:020000040800F2
:10000000003000209D040008DD070008ED0700080F
:10001000F5070008FD0700080508000800000000BB
:100020000000000000000000000000000D080008B3
:100030001D080008000000002D0800083D08000809
:10004000ED040008ED040008ED040008ED040008CC
:10005000ED040008ED040008ED040008ED040008BC
:10006000ED040008ED040008ED040008ED040008AC
:10007000ED0400084D080008ED040008ED04000838
:10008000ED040008ED040008ED040008ED0400088C
:10009000ED040008ED040008ED040008ED0400087C
:1000A000ED040008ED040008ED040008ED0400086C
:1000B000ED040008ED04000800000000ED04000855
:1000C000ED0400080000000000000000ED0400083E
:1000D00000000000ED040008ED040008ED04000835
:1000E000ED040008ED04000800000000000000001E
:1000F0000000000000000000000000000000000000
:1001000000000000000000000000000000000000EF
:100110000000000000000000ED040008ED040008ED
:1001200000000000000000000000000000000000CF
:1001300000000000000000000000000000000000BF
:10014000ED040008ED0400080000000000000000BD
:10015000000000000000000000000000000000009F
:10016000000000000000000000000000000000008F
:10017000000000000000000000000000000000007F
:0801800000000000ED0400087E
:10018800044B05481B1A062B02D9044B03B1184728
:10019800704700BF2F0400202C040020000000003E
:1001A80005490648091A891001EBD171491002D096
:1001B800034B03B1184770472C0400202C0400207F
:1001C8000000000010B5064C237843B9FFF7D8FFAC
:1001D800044B13B10448AFF300800123237010BD12
:1001E8002C040020000000007C38000808B5084BEB
:1001F8001BB108490848AFF300800848036813B9E1
:10020800BDE80840CCE7064B002BF9D09847F7E744
:1002180000000000300400207C3800082C04002076
:1002280000000000844641EA000313F003036DD187
:10023800403A41D351F8043B40F8043B51F8043BA1
:1002480040F8043B51F8043B40F8043B51F8043BA8
:1002580040F8043B51F8043B40F8043B51F8043B98
:1002680040F8043B51F8043B40F8043B51F8043B88
:1002780040F8043B51F8043B40F8043B51F8043B78
:1002880040F8043B51F8043B40F8043B51F8043B68
:1002980040F8043B51F8043B40F8043B51F8043B58
:1002A80040F8043B51F8043B40F8043B51F8043B48
:1002B80040F8043B403ABDD2303211D351F8043BE8
:1002C80040F8043B51F8043B40F8043B51F8043B28
:1002D80040F8043B51F8043B40F8043B103AEDD297
:1002E8000C3205D351F8043B40F8043B043AF9D2E8
:1002F800043208D0D2071CBF11F8013B00F8013BBB
:1003080001D30B8803806046704700BF082A13D3C7
:100318008B078DD010F003038AD0C3F10403D21ADF
:10032800DB071CBF11F8013B00F8013B80D331F813
:10033800023B20F8023B7BE7043AD9D3013A11F893
:10034800013B00F8013BF9D20B7803704B784370FE
:100358008B7883706046704770B50F4E0F4D761BD3
:10036800B61018BF002405D0013455F8043B98474F
:10037800A642F9D10A4E0B4D761B03F07BFAB61054
:1003880018BF002406D0013455F8043B9847A6420C
:10039800F9D170BD70BD00BFD0380008D038000852
:1003A800D8380008D0380008024B13B1024800F0D2
:1003B80005B8704700000000D1030008002301467B
:1003C8001A46184600F014B838B5074D074C2C1BD0
:1003D800A41005D0013C55F8043D9847002CF9D1EC
:1003E800BDE8384003F04CBADC380008D8380008BB
:1003F8002DE9F047254C2568D5F84841064688463A
:1004080092469946C4B360681F2817DC431C76B12E
:1004180004EB80050122C5F888A0D4F88811824031
:100428001143022EC4F88811C5F808911ED0023075
:10043800636044F820800020BDE8F087144B03B3C4
:100448004FF4C870AFF300800446D0B1D5F84831F6
:10045800002780E88800C5F8484138460123C4F8D9
:100468008871C4F88C71002EE1D0D1E7D4F88C11D2
:100478000A43C4F88C21DAE705F5A674C5F84841A3
:10048800C1E74FF0FF30BDE8F08700BF9C38000897
:1004980000000000DFF834D0002103E00C4B5B586B
:1004A800435004310B480C4B42189A42F6D30B4A7E
:1004B80002E0002342F8043B094B9A42F9D300F0CA
:1004C800CBF9FFF749FF00F00FF8FEE700300020F6
:1004D800DC380008000000202C0400202C04002038
:1004E800D4040020FEE7000080B588B004AF0023E4
:1004F800BB737523FB7312237B73414A07F108030F
:10050800114602221846FFF78DFE0023FB7100F00A
:1005180091FA00F07BF800F01DF900F0FDF800F00A
:10052800C5F80A2302930123019307F10E030093F0
:1005380001237522D021334801F08CF9BB7B682B4D
:100548004CD10A23029301230193FB1D009301233D
:100558006B22D0212B4801F057F80A23029301237C
:10056800019307F10E03009301236B22D021254844
:1005780001F070F90A2302930123019307F10D0397
:10058800009301231A22D0211E4801F03DF80A23C6
:1005980002930123019307F10E03009301231A220A
:1005A800D021184801F056F9BB7B122B05D1012246
:1005B8000821154800F086FFC3E7012208211248E8
:1005C80000F080FF322000F081FA002208210E4856
:1005D80000F078FFC82000F079FAEEE70122082140
:1005E800094800F06FFFC82000F070FA00220821C7
:1005F800054800F067FF322000F068FAEEE700BF18
:1006080094380008480400200004004880B596B0DB
:1006180000AF02233B6301233B6410237B64002368
:10062800FB6407F13003184601F0AAFC0346002BCF
:1006380001D000F0B9F80F23FB6100233B620023CF
:100648007B620023BB620023FB6207F11C030021CD
:10065800184602F057FD0346002B01D000F0A4F81D
:1006680020237B6000233B613B1D184602F0BCFF42
:100678000346002B01D000F097F802F0A9FF0246CC
:10068800094BA3FB02239B09184600F033FB042007
:1006980000F03CFB002200214FF0FF3000F000FB8F
:1006A80000BF5837BD4680BDD34D621080B500AF3E
:1006B800164B174A1A60154B164A5A60134B0022FC
:1006C8009A60124B0122DA60104B00221A610F4B1C
:1006D80000225A610D4B00229A610C4B0022DA610C
:1006E8000A4B00221A62094800F004FF0346002B57
:1006F80001D000F059F80021044801F0F5FB034649
:10070800002B01D000F050F800BF80BD4804002045
:10071800005400400E09002080B582B000AF0C4A9A
:100728000B4B5B6943F001035361094B5B6903F0B1
:1007380001037B607B68002200210D2000F0B0FAE5
:100748000D2000F0C9FA00BF0837BD4680BD00BFC4
:100758000010024080B586B000AF114A104B5B69AB
:1007680043F4802353610E4B5B6903F480233B60A1
:100778003B68002208210B4800F0A4FE08237B6098
:100788000123BB600023FB6000233B613B1D19462E
:10079800044800F021FD00BF1837BD4680BD00BFEA
:1007A800001002400004004880B500AF0122082173
:1007B800074800F087FE322000F088F9002208215F
:1007C800034800F07FFE322000F080F9EEE700BF1A
:1007D8000004004880B400AF00BFBD465DF8047B4C
:1007E800704700BF80B400AFFEE700BF80B400AF21
:1007F800FEE700BF80B400AFFEE700BF80B400AFE3
:10080800FEE700BF80B400AF00BFBD465DF8047BC3
:10081800704700BF80B400AF00BFBD465DF8047BE1
:10082800704700BF80B400AF00BFBD465DF8047BD1
:10083800704700BF80B500AF00F02EF900F082FAD3
:1008480000BF80BD80B500AF024800F0D5FA00BFF8
:1008580080BD00BF9404002080B400AF1F4A1F4B26
:10086800D3F8883043F47003C2F888301C4A1C4B14
:100878001B6843F0010313601949194B5A68194B57
:1008880013404B60164A164B1B6823F0847323F4FD
:1008980080331360124A124B1B6823F480231360C1
:1008A8000F4A0F4B5B6823F4FE0353600C4A0C4B52
:1008B800DB6A23F00F03D3620949094B1A6B0A4B11
:1008C80013400B63064B00229A60044B4FF0006202
:1008D8009A6000BFBD465DF8047B704700ED00E0FC
:1008E800001002400CC07FF8CCFC00FF80B582B03D
:1008F80000AF1E4A1D4B9B6943F0010393611B4BDC
:100908009B6903F001037B607B68032000F0BCF95E
:10091800002200216FF00B0000F0C2F90022002134
:100928006FF00A0000F0BCF9002200216FF0090006
:1009380000F0B6F9002200216FF0040000F0B0F9D1
:10094800002200216FF0030000F0AAF90022002124
:100958006FF0010000F0A4F9002200214FF0FF30F1
:1009680000F09EF900BF0837BD4680BD0010024068
:1009780080B588B000AF78607B681B68274A9342CF
:1009880047D1C023FB6012233B6101237B61032312
:10099800BB610423FB6107F10C031946204800F0F2
:1009A8001BFC204A1F4BDB6943F40013D3611D4B2A
:1009B800DB6903F40013BB60BB681B4B1B4A1A605E
:1009C800194B00225A60184B00229A60164B80225D
:1009D800DA60154B00221A61134B00225A61124B40
:1009E80020229A61104B0022DA610F4800F0B8F912
:1009F8000346002B01D0FFF7D7FE0D4A0C4B1B6DA9
:100A080043F0100313657B68074ADA63064A7B687C
:100A1800536200BF2037BD4680BD00BF0054004070
:100A280000040048001002409404002030000240F6
:100A38000000014080B500AF084A084B1B6843F02E
:100A480010031360032000F01FF9002000F008F8DD
:100A5800FFF74CFF0023184680BD00BF002002406E
:100A680080B582B000AF7860094B1B68094AA2FBC9
:100A780003239B09184600F03DF9002279684FF0DE
:100A8800FF3000F00DF9002318460837BD4680BD39
:100A980028040020D34D621080B400AF044B1B68BB
:100AA8000133034A136000BFBD465DF8047B7047FD
:100AB800D004002080B400AF034B1B681846BD4625
:100AC8005DF8047B704700BFD004002080B584B077
:100AD80000AF7860FFF7EEFFF86000BFFFF7EAFFAE
:100AE8000246FB68D21A7B689A42F7D300BF1037D8
:100AF800BD4680BD80B485B000AF78607B6803F0E8
:100B08000703FB600C4BDB68BB60BA684FF6FF035A
:100B18001340BB60FB681A02BB68134343F0BF6312
:100B280043F40033BB60044ABB68D36000BF14378A
:100B3800BD465DF8047B704700ED00E080B400AF6F
:100B4800044BDB6803F4E0631B0A1846BD465DF8F6
:100B5800047B704700ED00E080B483B000AF03462B
:100B6800FB71094997F907305B09FA7902F01F020E
:100B7800012000FA02F241F8232000BF0C37BD46DD
:100B88005DF8047B704700BF00E100E080B483B0EB
:100B980000AF03463960FB7197F90730002B0BDA79
:100BA8000D49FB7903F00F03043B3A68D2B21201F6
:100BB800D2B20B441A7609E0084997F907303A6827
:100BC800D2B21201D2B20B4483F8002300BF0C3713
:100BD800BD465DF8047B704700ED00E000E100E0F1
:100BE80080B489B000AFF860B9607A60FB6803F040
:100BF8000703FB61FB69C3F10703042B28BF042328
:100C0800BB61FB690433062B02D9FB69033B00E097
:100C180000237B610122BB6902FA03F35A1EBB68F9
:100C28001A407B699A4001217B6901FA03F3591E36
:100C38007B680B40134318462437BD465DF8047B98
:100C4800704700BF80B582B000AF78607B68013B19
:100C5800B3F1807F01D301230FE00A4A7B68013B8F
:100C680053600F214FF0FF30FFF790FF054B002234
:100C78009A60044B07221A60002318460837BD46BD
:100C880080BD00BF10E000E080B582B000AF7860A2
:100C98007868FFF72FFF00BF0837BD4680BD00BF4B
:100CA80080B586B000AF0346B9607A60FB73002355
:100CB8007B61FFF743FF78617A68B9687869FFF765
:100CC8008FFF024697F90F3011461846FFF75EFF6F
:100CD80000BF1837BD4680BD80B582B000AF03465F
:100CE800FB7197F907301846FFF736FF00BF083742
:100CF800BD4680BD80B582B000AF78607868FFF7E8
:100D0800A1FF034618460837BD4680BD80B483B0AE
:100D180000AF78607B68042B06D1094A084B1B6832
:100D280043F00403136005E0054A054B1B6823F0F4
:100D38000403136000BF0C37BD465DF8047B7047A1
:100D480010E000E080B500AF00F002F800BF80BD01
:100D580080B400AF00BFBD465DF8047B704700BF9C
:100D680080B485B000AF78600023FB607B68002BFF
:100D780001D1012339E07B6893F82130002B03D19E
:100D88007B68002283F820207B68022283F82120D8
:100D98007B681B681B68FB60FB6823F47F5323F0A8
:100DA8003003FB607B685A687B689B681A437B68E2
:100DB800DB681A437B681B691A437B685B691A43C3
:100DC8007B689B691A437B68DB691343FA681343A2
:100DD800FB607B681B68FA681A607B6800229A636C
:100DE8007B68012283F82120002318461437BD466A
:100DF8005DF8047B704700BF80B582B000AF7860B3
:100E08008F4B1A687B681B6819468E4B99422ED007
:100E18007B681B6819468C4B994226D07B681B68F7
:100E280019468A4B99421DD07B681B681946884B26
:100E3800994214D07B681B681946864B99420BD09F
:100E48007B681B681946844B994202D14FF4000312
:100E58000EE04FF000630BE04FF4002308E04FF47E
:100E6800004305E04FF4006302E0802300E008231C
:100E78001340002B5CD07B681B681B6803F00803D9
:100E8800002B55D07B681B687A681268126822F0BC
:100E980008021A606A4A7B681B681946694B9942BE
:100EA8002ED07B681B681946674B994226D07B6811
:100EB8001B681946654B99421DD07B681B6819460B
:100EC800634B994214D07B681B681946614B994261
:100ED8000BD07B681B6819465F4B994202D14FF4CF
:100EE80000030EE04FF000630BE04FF4002308E02E
:100EF8004FF4004305E04FF4006302E0802300E074
:100F0800082353607B689B6B43F001027B689A63FC
:100F18007B68042283F821207B68002283F8202044
:100F28007B681B6B002B03D07B681B6B786898472A
:100F3800434B1A687B681B681946424B99422ED06E
:100F48007B681B681946404B994226D07B681B6812
:100F580019463E4B99421DD07B681B6819463C4B8D
:100F6800994214D07B681B6819463A4B99420BD0BA
:100F78007B681B681946384B994202D14FF48003AD
:100F88000EE04FF080630BE04FF4802308E04FF44D
:100F9800804305E04FF4806302E0402300E004232F
:100FA8001340002B68D07B681B681B6803F00403A0
:100FB800002B61D07B681B681B6803F02003002BA3
:100FC80007D17B681B687A681268126822F00402ED
:100FD8001A601B4A7B681B6819461A4B99423DD018
:100FE8007B681B681946184B994226D07B681B689A
:100FF8001946164B99421DD07B681B681946144B3D
:10100800994214D07B681B681946124B99420BD041
:101018007B681B681946104B994202D14FF4800334
:101028001DE04FF080631AE04FF4802317E04FF47F
:10103800804314E04FF4806311E040230FE000BFC9
:1010480000000240080002401C000240300002403C
:1010580044000240580002406C00024004235360E0
:101068007B68112283F821207B68DB6A002B03D080
:101078007B68DB6A78689847504B1A687B681B68FE
:1010880019464F4B99422ED07B681B6819464D4B29
:10109800994226D07B681B6819464B4B99421DD054
:1010A8007B681B681946494B994214D07B681B68BA
:1010B8001946474B99420BD07B681B681946454B2C
:1010C800994202D14FF400130EE04FF000730BE089
:1010D8004FF4003308E04FF4005305E04FF4007379
:1010E80002E0202300E002231340002B61D07B683C
:1010F8001B681B6803F00203002B5AD07B681B682F
:101108001B6803F02003002B07D17B681B687A68F3
:101118001268126822F002021A60284A7B681B686B
:101128001946274B99422ED07B681B681946254BD8
:10113800994226D07B681B681946234B99421DD0DB
:101148007B681B681946214B994214D07B681B6841
:1011580019461F4B99420BD07B681B6819461D4BDB
:10116800994202D14FF400130EE04FF000730BE0E8
:101178004FF4003308E04FF4005305E04FF40073D8
:1011880002E0202300E0022353607B689A6B7B68AF
:101198009A637B68012283F821207B68002283F808
:1011A80020207B689B6A002B03D07B689B6A786849
:1011B800984700BF0837BD4680BD00BF0000024009
:1011C800080002401C000240300002404400024077
:1011D800580002406C00024080B487B000AF7860CD
:1011E800396000237B610023FB6000233B614EE1F3
:1011F8003B681A6801217B6901FA03F31340FB601D
:10120800FB68002B00F040813B685B68022B03D031
:101218003B685B68122B23D17B69DA087B6808324C
:1012280053F822303B617B6903F007039B000F22D0
:1012380002FA03F3DB433A6913403B613B681A69DE
:101248007B6903F007039B0002FA03F33A6913432F
:101258003B617B69DA087B680832396943F82210F8
:101268007B681B683B617B695B00032202FA03F31E
:10127800DB433A6913403B613B685B6803F0030258
:101288007B695B0002FA03F33A6913433B617B68AD
:101298003A691A603B685B68012B0BD03B685B6856
:1012A800022B07D03B685B68112B03D03B685B6857
:1012B800122B30D17B689B683B617B695B00032202
:1012C80002FA03F3DB433A6913403B613B68DA688F
:1012D8007B695B0002FA03F33A6913433B617B685D
:1012E8003A699A607B685B683B6101227B6902FA14
:1012F80003F3DB433A6913403B613B685B681B09B6
:1013080003F001027B6902FA03F33A6913433B6174
:101318007B683A695A607B68DB683B617B695B0084
:10132800032202FA03F3DB433A6913403B613B684B
:101338009A687B695B0002FA03F33A6913433B61DD
:101348007B683A69DA603B685B6803F08053002B7E
:1013580000F09A80554A554B9B6943F0010393610D
:10136800524B9B6903F00103BB60BB68504A7B6921
:101378009B08023352F823303B617B6903F0030377
:101388009B000F2202FA03F3DB433A6913403B61E7
:101398007B68B3F1904F13D07B68464A93420DD0D7
:1013A8007B68454A934207D07B68444A934201D1FF
:1013B800032306E0052304E0022302E0012300E002
:1013C80000237A6902F00302920093403A691343BA
:1013D8003B6137497B699B0802333A6941F823200E
:1013E800374B1B683B61FB68DB433A6913403B6141
:1013F8003B685B6803F48033002B03D03A69FB68D1
:1014080013433B612E4A3B6913602D4B5B683B617C
:10141800FB68DB433A6913403B613B685B6803F454
:101428000033002B03D03A69FB6813433B61244A1D
:101438003B695360224B9B683B61FB68DB433A691D
:1014480013403B613B685B6803F48013002B03D0B7
:101458003A69FB6813433B61194A3B699360184B2F
:10146800DB683B61FB68DB433A6913403B613B68DF
:101478005B6803F40013002B03D03A69FB6813433D
:101488003B610F4A3B69D3607B6901337B613B68F1
:101498001A687B6922FA03F3002B7FF4A9AE00BF18
:1014A8001C37BD465DF8047B704700BF0010024042
:1014B800000001400004004800080048000C0048F3
:1014C8000004014080B483B000AF78600B467B8095
:1014D80013467B707B78002B03D07A887B689A61EF
:1014E80002E07A887B689A6200BF0C37BD465DF8D7
:1014F800047B704780B582B000AF78607B68002BB2
:1015080001D101237CE07B6893F84130DBB2002BEA
:1015180006D17B68002283F840207868FFF728FA14
:101528007B68242283F841207B681B687A681268EC
:10153800126822F001021A607B681B687A68526898
:1015480022F070621A617B681B687A681268926878
:1015580022F400429A607B689B68002B12D07B685B
:10156800DB68012B07D17B681B687A68926842F4B4
:1015780000429A6006E07B681B687A68926842F4C9
:1015880004429A607B68DB68022B04D17B681B6885
:101598004FF400625A607B681A687B681B685B6856
:1015A80043F0007343F4004353607B681B687A6818
:1015B80011697A68526911437A68926912020A437A
:1015C800DA607B681B687A68D1697A68126A0A43AC
:1015D8001A607B681B687A681268126842F0010218
:1015E8001A607B6800225A647B68202283F84120B5
:1015F8007B6800221A637B68002283F8422000235C
:1016080018460837BD4680BD80B588B002AFF8607F
:10161800084611461A4603467B810B463B81134612
:10162800FB8000237B61FB6893F84130DBB2202B01
:1016380040F009813B6A002B02D0BB8C002B01D102
:10164800012301E1FB6893F84030012B01D102230B
:10165800FAE0FB68012283F84020FFF72BFA786153
:101668007B690093192301224FF40041F86800F0C8
:10167800F9FA0346002B01D00323E5E0FB68212299
:1016880083F84120FB68402283F84220FB6800224F
:101698005A64FB683A6A5A62FB68BA8C5A85FB68D6
:1016A80000225A63F8883A8979897B690193BB6A71
:1016B80000930346F86800F0F3F90346002B0FD0B7
:1016C800FB685B6C042B05D1FB68002283F8402083
:1016D8000123B9E0FB68002283F840200323B3E02C
:1016E800FB685B8D9BB2FF2B0ED9FB68FF221A8526
:1016F800FB681B8DDAB27989002300934FF0807361
:10170800F86800F0C3FB0FE0FB685B8D9AB2FB68DA
:101718001A85FB681B8DDAB27989002300934FF094
:101728000073F86800F0B2FB7A69B96AF86800F0EB
:10173800D3FA0346002B07D0FB685B6C042B01D15E
:10174800012381E003237FE0FB681A68FB685B6A7A
:10175800581CF96848621B789362FB685B8D9BB2E2
:10176800013B9AB2FB685A85FB681B8D013B9AB214
:10177800FB681A85FB681B8D002B35D1FB685B8DD8
:101788009BB2002B30D07B690093BB6A002280217A
:10179800F86800F067FA0346002B01D0032353E0F2
:1017A800FB685B8D9BB2FF2B0ED9FB68FF221A8565
:1017B800FB681B8DDAB27989002300934FF08073A0
:1017C800F86800F063FB0FE0FB685B8D9AB2FB687A
:1017D8001A85FB681B8DDAB27989002300934FF0D4
:1017E8000073F86800F052FBFB685B8D9BB2002B1E
:1017F8009AD17A69B96AF86800F0AEFA0346002B04
:1018080007D0FB685B6C042B01D101231CE0032388
:101818001AE0FB681B682022DA61FB681A68FB681B
:101828001B6859680A4B0B405360FB68202283F8F9
:101838004120FB68002283F84220FB68002283F8DD
:101848004020002300E0022318461837BD4680BD1B
:1018580000E800FE80B588B002AFF860084611467F
:101868001A4603467B810B463B811346FB800023C7
:101878007B61FB6893F84130DBB2202B40F0098193
:101888003B6A002B02D0BB8C002B01D1012301E164
:10189800FB6893F84030012B01D10223FAE0FB6882
:1018A800012283F84020FFF705F978617B690093EE
:1018B800192301224FF40041F86800F0D3F90346D8
:1018C800002B01D00323E5E0FB68222283F84120A6
:1018D800FB68402283F84220FB6800225A64FB68B8
:1018E8003A6A5A62FB68BA8C5A85FB6800225A63C6
:1018F800F8883A8979897B690193BB6A0093034622
:10190800F86800F02DF90346002B0FD0FB685B6CDC
:10191800042B05D1FB68002283F840200123B9E09D
:10192800FB68002283F840200323B3E0FB685B8D4B
:101938009BB2FF2B0FD9FB68FF221A85FB681B8D12
:10194800DAB279894FF4105300934FF08073F86836
:1019580000F09CFA10E0FB685B8D9AB2FB681A8570
:10196800FB681B8DDAB279894FF4105300934FF05E
:101978000073F86800F08AFA7B690093BB6A00225A
:101988000421F86800F06EF90346002B01D0032308
:1019980080E0FB685B6A591CFA685162FA68126851
:1019A800526AD2B21A70FB681B8D013B9AB2FB686F
:1019B8001A85FB685B8D9BB2013B9AB2FB685A851E
:1019C800FB681B8D002B35D1FB685B8D9BB2002B10
:1019D80030D07B690093BB6A00228021F86800F050
:1019E80041F90346002B01D0032353E0FB685B8DCC
:1019F8009BB2FF2B0ED9FB68FF221A85FB681B8D53
:101A0800DAB27989002300934FF08073F86800F008
:101A18003DFA0FE0FB685B8D9AB2FB681A85FB689C
:101A28001B8DDAB27989002300934FF00073F868B0
:101A380000F02CFAFB685B8D9BB2002B9CD17A6975
:101A4800B96AF86800F088F90346002B07D0FB68EC
:101A58005B6C042B01D101231CE003231AE0FB6813
:101A68001B682022DA61FB681A68FB681B685968E2
:101A78000A4B0B405360FB68202283F84120FB6827
:101A8800002283F84220FB68002283F840200023CC
:101A980000E0022318461837BD4680BD00E800FE66
:101AA80080B586B002AFF860084611461A4603466C
:101AB8007B810B463B811346FB80FB88DAB2798930
:101AC8004FF4005300934FF08073F86800F0DEF98C
:101AD800FA69B969F86800F0FFF80346002B07D0E7
:101AE800FB685B6C042B01D1012334E0032332E053
:101AF800FB88012B05D1FB681B683A89D2B29A6230
:101B08001BE0FB681B683A89120A92B2D2B29A6249
:101B1800FA69B969F86800F0DFF80346002B07D0C6
:101B2800FB685B6C042B01D1012314E0032312E052
:101B3800FB681B683A89D2B29A62FB690093BB6959
:101B480000228021F86800F08DF80346002B01D0B0
:101B5800032300E0002318461037BD4680BD00BFB0
:101B680080B586B002AFF860084611461A460346AB
:101B78007B810B463B811346FB80FB88DAB279896F
:101B88004FF4005300930023F86800F07FF9FA69D6
:101B9800B969F86800F0A0F80346002B07D0FB6885
:101BA8005B6C042B01D1012334E0032332E0FB8872
:101BB800012B05D1FB681B683A89D2B29A621BE0F7
:101BC800FB681B683A89120A92B2D2B29A62FA6921
:101BD800B969F86800F080F80346002B07D0FB6865
:101BE8005B6C042B01D1012314E0032312E0FB6892
:101BF8001B683A89D2B29A62FB690093BB690022DA
:101C08004021F86800F02EF80346002B01D003238A
:101C180000E0002318461037BD4680BD80B483B06D
:101C280000AF78607B681B689B6903F00203002B98
:101C380003D07B681B6800229A627B681B689B69DB
:101C480003F00103002B07D17B681B687A681268D0
:101C5800926942F001029A6100BF0C37BD465DF8F7
:101C6800047B704780B584B000AFF860B9603B6012
:101C78001346FB711CE03B68B3F1FF3F18D03B688B
:101C8800002B07D0FEF716FF0246BB69D21A3B6845
:101C98009A420DD9FB68202283F84120FB68002274
:101CA80083F84220FB68002283F8402003230FE0DA
:101CB800FB681B689A69BB681A40BB689A420CBFEC
:101CC80001230023DBB21A46FB799A42D3D00023C2
:101CD80018461037BD4680BD80B584B000AFF860A7
:101CE800B9607A602CE07A68B968F86800F070F832
:101CF8000346002B01D001232AE0BB68B3F1FF3F64
:101D08001ED0BB68002B07D0FEF7D4FE02467B68C6
:101D1800D21ABB689A4213D9FB685B6C43F0200265
:101D2800FB685A64FB68202283F84120FB68002284
:101D380083F84220FB68002283F84020032307E051
:101D4800FB681B689B6903F00203002BCBD00023C0
:101D580018461037BD4680BD80B584B000AFF86026
:101D6800B9607A6028E07A68B968F86800F030F8F5
:101D78000346002B01D0012326E0BB68002B07D0C7
:101D8800FEF798FE02467B68D21ABB689A4213D9BE
:101D9800FB685B6C43F02002FB685A64FB682022F6
:101DA80083F84120FB68002283F84220FB68002268
:101DB80083F84020032307E0FB681B689B6903F056
:101DC8002003002BCFD0002318461037BD4680BD16
:101DD80080B584B000AFF860B9607A60FB681B68B2
:101DE8009B6903F01003002B48D01CE0BB68B3F1DB
:101DF800FF3F18D0BB68002B07D0FEF75BFE0246FA
:101E08007B68D21ABB689A420DD9FB68202283F8F6
:101E18004120FB68002283F84220FB68002283F8F7
:101E2800402003232BE0FB681B689B6903F0200319
:101E3800002BDBD0FB681B681022DA61FB681B688B
:101E48002022DA61F868FFF7E9FEFB681A68FB6888
:101E58001B6859680C4B0B405360FB6804225A649A
:101E6800FB68202283F84120FB68002283F8422087
:101E7800FB68002283F84020012300E00023184675
:101E88001037BD4680BD00BF00E800FE80B487B0B3
:101E980000AFF8607B600B467B8113467B720023A2
:101EA8007B61FB681B685B687B617A690D4B13403B
:101EB8007B617B89C3F309027B7A1B0403F47F03EC
:101EC8001A437B681A433B6A13437A6913437B615D
:101ED800FB681B687A695A6000BF1C37BD465DF80D
:101EE800047B7047009800FC80B483B000AF786032
:101EF80039607B6893F84130DBB2202B38D17B689E
:101F080093F84030012B01D1022332E07B68012293
:101F180083F840207B68242283F841207B681B6873
:101F28007A681268126822F001021A607B681B68DE
:101F38007A681268126822F480521A607B681B68FB
:101F48007A68126811683A680A431A607B681B68E5
:101F58007A681268126842F001021A607B682022CF
:101F680083F841207B68002283F84020002300E0AA
:101F7800022318460C37BD465DF8047B704700BF46
:101F880090B5ADF5017D00AF3B1D18600023C7F883
:101F9800F8313B1D1B681B6803F00103002B00F0A0
:101FA800E881B84B5B6803F00C03042B0CD0B54BED
:101FB8005B6803F00C03082B40F08280B14B5B6830
:101FC80003F48033002B7BD04FF40033C7F804317F
:101FD800D7F8043193FAA3F207F580731A6007F56E
:101FE80080731B68B3FA83F3DBB243F02003DBB2E0
:101FF800DBB25B09DBB2012B02D1A24B1B6839E0D3
:102008004FF40033C7F8D431D7F8D43193FAA3F298
:1020180007F1FC031A6007F1FC031B68B3FA83F3AA
:10202800DBB243F02003DBB2DBB25B09DBB2022B8D
:1020380002D1944B1B6A1DE04FF40033C7F8D0312E
:10204800D7F8D03193FAA3F207F1F8031A6007F131
:10205800F8031B68B3FA83F3DBB243F02003DBB267
:10206800DBB25B09DBB2042B02D1864B5B6801E073
:10207800844B5B6A4FF40032C7F8CC21D7F8CC21E7
:1020880092FAA2F107F1F402116007F1F402126862
:10209800B2FA82F2D2B242F02002D2B2D2B202F046
:1020A8001F02D34003F00103002B00F061813B1DA8
:1020B8001B685B68002B40F05B81012301F01AB8B4
:1020C8003B1D1B685B68B3F5803F06D16D4A6D4BBD
:1020D8001B6843F48033136030E03B1D1B685B686A
:1020E800002B0CD1674A674B1B6823F480331360BD
:1020F800644A644B1B6823F4802313601EE03B1D75
:102108001B685B68B3F5A02F0CD15E4A5D4B1B685A
:1021180043F4802313605B4A5A4B1B6843F48033B3
:1021280013600BE0574A574B1B6823F48033136046
:10213800544A544B1B6823F4802313605149514B74
:10214800DB6A23F00F023B1D1B689B681343CB62BD
:102158003B1D1B685B68002B00F08380FEF7AAFC20
:10216800C7F8F8010AE0FEF7A5FC0246D7F8F831EF
:10217800D31A642B02D9032300F0BCBF4FF40033F9
:10218800C7F8C831D7F8C83193FAA3F207F1F003BA
:102198001A6007F1F0031B68B3FA83F3DBB243F06C
:1021A8002003DBB2DBB25B09DBB2012B02D1354B7A
:1021B8001B6839E04FF40033C7F8F431D7F8F4312D
:1021C80093FAA3F207F1EC031A6007F1EC031B681A
:1021D800B3FA83F3DBB243F02003DBB2DBB25B0973
:1021E800DBB2022B02D1274B1B6A1DE04FF40033F0
:1021F800C7F8F031D7F8F03193FAA3F207F1E80302
:102208001A6007F1E8031B68B3FA83F3DBB243F003
:102218002003DBB2DBB25B09DBB2042B02D1194B22
:102228005B6801E0174B5B6A4FF40032C7F8EC219A
:10223800D7F8EC2192FAA2F107F1E402116007F154
:10224800E4021268B2FA82F2D2B242F02002D2B2AA
:10225800D2B202F01F02D34003F00103002B82D058
:1022680087E0FEF727FCC7F8F8010DE0FEF722FC2F
:102278000246D7F8F831D31A642B05D9032300F0A6
:1022880039BF00BF001002404FF40033C7F8E831EF
:10229800D7F8E83193FAA3F207F1E0031A6007F1DF
:1022A800E0031B68B3FA83F3DBB243F02003DBB22D
:1022B800DBB25B09DBB2012B02D1B64B1B6839E0FC
:1022C8004FF40033C7F8E431D7F8E43193FAA3F2B6
:1022D80007F1DC031A6007F1DC031B68B3FA83F328
:1022E800DBB243F02003DBB2DBB25B09DBB2022BCB
:1022F80002D1A84B1B6A1DE04FF40033C7F8E03148
:10230800D7F8E03193FAA3F207F1D8031A6007F17E
:10231800D8031B68B3FA83F3DBB243F02003DBB2C4
:10232800DBB25B09DBB2042B02D19A4B5B6801E09C
:10233800984B5B6A4FF40032C7F8DC21D7F8DC21F0
:1023480092FAA2F107F1D402116007F1D4021268DF
:10235800B2FA82F2D2B242F02002D2B2D2B202F083
:102368001F02D34003F00103002B7FF47FAF00E08E
:1023780000BF3B1D1B681B6803F00203002B00F025
:10238800F481844B5B6803F00C03002B0DD0814B68
:102398005B6803F00C03082B40F099807D4B5B6869
:1023A80003F48033002B40F092800223C7F8D83121
:1023B800D7F8D83193FAA3F207F1D0031A6007F1DE
:1023C800D0031B68B3FA83F3DBB243F02003DBB21C
:1023D800DBB25B09DBB2012B02D16E4B1B6837E025
:1023E8000223C7F89831D7F8983193FAA3F207F186
:1023F800CC031A6007F1CC031B68B3FA83F3DBB292
:1024080043F02003DBB2DBB25B09DBB2022B02D163
:10241800604B1B6A1CE00223C7F89431D7F894314B
:1024280093FAA3F207F1C8031A6007F1C8031B68FF
:10243800B3FA83F3DBB243F02003DBB2DBB25B0910
:10244800DBB2042B02D1534B5B6801E0514B5B6A52
:102458000222C7F89021D7F8902192FAA2F107F149
:10246800C402116007F1C4021268B2FA82F2D2B251
:1024780042F02002D2B2D2B202F01F02D34003F0DF
:102488000103002B07D03B1D1B681B69012B02D0E1
:10249800012300F02FBE3F4C3E4B1B6823F0F8028F
:1024A8003B1D1B685969F823C7F88C31D7F88C3164
:1024B80093FAA3F007F1C003186007F1C0031B6883
:1024C800B3FA83F301FA03F3134323604DE13B1D91
:1024D8001B681B69002B00F0B3800123C7F8883103
:1024E800D7F8883193FAA3F207F1BC031A6007F111
:1024F800BC031B68B3FA83F39B0003F1844303F521
:1025080084031A4601231360FEF7D4FAC7F8F801CA
:102518000AE0FEF7CFFA0246D7F8F831D31A022BB1
:1025280002D9032300F0E6BD0223C7F8C431D7F867
:10253800C43193FAA3F207F1B8031A6007F1B8039C
:102548001B68B3FA83F3DBB243F02003DBB2DBB2E0
:102558005B09DBB2012B02D10E4B1B6839E0022369
:10256800C7F8C031D7F8C03193FAA3F207F1B40322
:102578001A6007F1B4031B68B3FA83F3DBB243F0C4
:102588002003DBB2DBB25B09DBB2022B04D1014BC7
:102598001B6A1EE0001002400223C7F8BC31D7F8BE
:1025A800BC3193FAA3F207F1B0031A6007F1B00344
:1025B8001B68B3FA83F3DBB243F02003DBB2DBB270
:1025C8005B09DBB2042B02D1B94B5B6801E0B84B65
:1025D8005B6A0222C7F8B821D7F8B82192FAA2F1AB
:1025E80007F1AC02116007F1AC021268B2FA82F28C
:1025F800D2B242F02002D2B2D2B202F01F02D340CD
:1026080003F00103002B84D0A94CA94B1B6823F0CD
:10261800F8023B1D1B685969F823C7F8B431D7F88D
:10262800B43193FAA3F007F1A803186007F1A803DF
:102638001B68B3FA83F301FA03F31343236094E0AE
:102648000123C7F8B031D7F8B03193FAA3F207F1F4
:10265800A4031A6007F1A4031B68B3FA83F39B0071
:1026680003F1844303F584031A4600231360FEF73D
:1026780021FAC7F8F8010AE0FEF71CFA0246D7F873
:10268800F831D31A022B02D9032300F033BD0223F9
:10269800C7F8AC31D7F8AC3193FAA3F207F1A0032D
:1026A8001A6007F1A0031B68B3FA83F3DBB243F0A7
:1026B8002003DBB2DBB25B09DBB2012B02D17C4B1E
:1026C8001B6837E00223C7F8A831D7F8A83193FA76
:1026D800A3F207F19C031A6007F19C031B68B3FA85
:1026E80083F3DBB243F02003DBB2DBB25B09DBB27E
:1026F800022B02D16E4B1B6A1CE00223C7F8A431DF
:10270800D7F8A43193FAA3F207F198031A6007F1F6
:1027180098031B68B3FA83F3DBB243F02003DBB200
:10272800DBB25B09DBB2042B02D1614B5B6801E0D1
:102738005F4B5B6A0222C7F8A021D7F8A02192FA62
:10274800A2F107F19402116007F194021268B2FA3B
:1027580082F2D2B242F02002D2B2D2B202F01F020A
:10276800D34003F00103002B86D13B1D1B681B6877
:1027780003F00803002B00F032813B1D1B689B69A6
:10278800002B00F099800123C7F89C31D7F89C31C1
:1027980093FAA3F207F190031A6007F190031B68FC
:1027A800B3FA83F39B001A46424B13441A4601239B
:1027B8001360FEF77FF9C7F8F8010AE0FEF77AF927
:1027C8000246D7F8F831D31A022B02D9032300F0B6
:1027D80091BC0223C7F88431D7F8843193FAA3F265
:1027E80007F18C031A6007F18C031B68B3FA83F3B3
:1027F800DBB243F06003DBB2DBB25B09DBB2012B77
:1028080002D12B4B1B6837E00223C7F88031D7F879
:10281800803193FAA3F207F188031A6007F188035D
:102828001B68B3FA83F3DBB243F06003DBB2DBB2BD
:102838005B09DBB2022B02D11D4B1B6A1CE0022391
:10284800C7F87C31D7F87C3193FAA3F207F18403F7
:102858001A6007F184031B68B3FA83F3DBB243F011
:102868006003DBB2DBB25B09DBB2042B02D1104B95
:102878005B6801E00E4B5B6A0222C7F87821D7F843
:10288800782192FAA2F107F18002116007F1800223
:102898001268B2FA82F2D2B242F06002D2B2D2B276
:1028A80002F01F02D34003F00103002B86D096E00C
:1028B80000100240800442420123C7F87431D7F85F
:1028C800743193FAA3F207F17C031A6007F17C03D1
:1028D8001B68B3FA83F39B001A46B54B13441A4698
:1028E80000231360FEF7E6F8C7F8F80109E0FEF7E1
:1028F800E1F80246D7F8F831D31A022B01D903239D
:10290800F8E30223C7F87031D7F8703193FAA3F2CD
:1029180007F178031A6007F178031B68B3FA83F3A9
:10292800DBB243F06003DBB2DBB25B09DBB2012B45
:1029380002D1A04B1B6837E00223C7F86C31D7F8E7
:102948006C3193FAA3F207F174031A6007F1740368
:102958001B68B3FA83F3DBB243F06003DBB2DBB28C
:102968005B09DBB2022B02D1924B1B6A1CE00223EB
:10297800C7F86831D7F8683193FAA3F207F1700302
:102988001A6007F170031B68B3FA83F3DBB243F0F4
:102998006003DBB2DBB25B09DBB2042B02D1854BEF
:1029A8005B6801E0834B5B6A0222C7F86421D7F8B1
:1029B800642192FAA2F107F16C02116007F16C022E
:1029C8001268B2FA82F2D2B242F06002D2B2D2B245
:1029D80002F01F02D34003F00103002B87D13B1DF7
:1029E8001B681B6803F00403002B00F08F81002391
:1029F80087F8FF316F4BDB6903F08053002B12D14E
:102A08006C4A6C4BDB6943F08053D361694BDB69DB
:102A180003F0805207F10C031A6007F10C031B68DE
:102A2800012387F8FF31644B1B6803F48073002B84
:102A38001AD1614A604B1B6843F480731360FEF738
:102A480039F8C7F8F80109E0FEF734F80246D7F874
:102A5800F831D31A642B01D903234BE3564B1B6877
:102A680003F48073002BEFD03B1D1B68DB68012B40
:102A780006D1504A4F4B1B6A43F0010313622FE003
:102A88003B1D1B68DB68002B0CD14A4A494B1B6A6B
:102A980023F001031362474A464B1B6A23F00403E1
:102AA80013621DE03B1D1B68DB68052B0CD1414AF6
:102AB800404B1B6A43F0040313623E4A3D4B1B6ABA
:102AC80043F0010313620BE03A4A3A4B1B6A23F0C6
:102AD80001031362374A374B1B6A23F0040313625E
:102AE8003B1D1B68DB68002B00F08780FDF7E2FFC9
:102AF800C7F8F8010BE0FDF7DDFF0246D7F8F8311B
:102B0800D31A41F28832934201D90323F2E2022315
:102B1800C7F86031D7F8603193FAA3F207F1680378
:102B28001A6007F168031B68B3FA83F3DBB243F05A
:102B38004003DBB2DBB25B09DBB2012B02D11D4BD8
:102B48001B683DE00223C7F85C31D7F85C3193FA83
:102B5800A3F207F164031A6007F164031B68B3FA70
:102B680083F3DBB243F04003DBB2DBB25B09DBB2D9
:102B7800022B02D10F4B1B6A22E00223C7F85831FF
:102B8800D7F8583193FAA3F207F160031A6007F1F6
:102B980060031B68B3FA83F3DBB243F04003DBB294
:102BA800DBB25B09DBB2042B08D1024B5B6807E0A0
:102BB800800442420010024000700040BF4B5B6A34
:102BC8000222C7F85421D7F8542192FAA2F107F14A
:102BD8005C02116007F15C021268B2FA82F2D2B2AA
:102BE80042F04002D2B2D2B202F01F02D34003F048
:102BF8000103002B3FF47FAF7EE0FDF75BFFC7F8D2
:102C0800F8010BE0FDF756FF0246D7F8F831D31A62
:102C180041F28832934201D903236BE20223C7F8B9
:102C28005031D7F8503193FAA3F207F158031A60DC
:102C380007F158031B68B3FA83F3DBB243F0400390
:102C4800DBB2DBB25B09DBB2012B02D19B4B1B6809
:102C580037E00223C7F84C31D7F84C3193FAA3F286
:102C680007F154031A6007F154031B68B3FA83F39E
:102C7800DBB243F04003DBB2DBB25B09DBB2022B11
:102C880002D18E4B1B6A1CE00223C7F84831D7F8E3
:102C9800483193FAA3F207F150031A6007F1500381
:102CA8001B68B3FA83F3DBB243F04003DBB2DBB259
:102CB8005B09DBB2042B02D1804B5B6801E07F4BE0
:102CC8005B6A0222C7F84421D7F8442192FAA2F19C
:102CD80007F14C02116007F14C021268B2FA82F255
:102CE800D2B242F04002D2B2D2B202F01F02D340B6
:102CF80003F00103002B85D197F8FF31012B05D193
:102D08006E4A6E4BDB6923F08053D3613B1D1B6811
:102D1800DB69002B00F0ED81684B5B6803F00C0366
:102D2800082B00F0E4813B1D1B68DB69022B40F097
:102D380044814FF08073C7F84031D7F8403193FA97
:102D4800A3F207F148031A6007F148031B68B3FAB6
:102D580083F39B0003F1844303F584031A4600239D
:102D68001360FDF7A7FEC7F8F80109E0FDF7A2FE1A
:102D78000246D7F8F831D31A022B01D90323B9E157
:102D88004FF00073C7F83C31D7F83C3193FAA3F2FF
:102D980007F144031A6007F144031B68B3FA83F38D
:102DA800DBB243F02003DBB2DBB25B09DBB2012B01
:102DB80002D1424B1B6839E04FF00073C7F8383135
:102DC800D7F8383193FAA3F207F140031A6007F1F4
:102DD80040031B68B3FA83F3DBB243F02003DBB292
:102DE800DBB25B09DBB2022B02D1344B1B6A1DE05C
:102DF8004FF00073C7F83431D7F8343193FAA3F29F
:102E080007F13C031A6007F13C031B68B3FA83F32C
:102E1800DBB243F02003DBB2DBB25B09DBB2042B8D
:102E280002D1264B5B6801E0244B5B6A4FF00072CD
:102E3800C7F83021D7F8302192FAA2F107F1380209
:102E4800116007F138021268B2FA82F2D2B242F087
:102E58002002D2B2D2B202F01F02D34003F0010323
:102E6800002B83D11548154B5B6823F474123B1D66
:102E78001B68596A3B1D1B681B6A0B43134343605D
:102E88004FF08073C7F82C31D7F82C3193FAA3F29E
:102E980007F134031A6007F134031B68B3FA83F3AC
:102EA8009B0003F1844303F584031A46012313604E
:102EB800FDF700FEC7F8F8010CE000BF0010024063
:102EC800FDF7F8FD0246D7F8F831D31A022B01D9DD
:102ED80003230FE14FF00073C7F82831D7F82831E2
:102EE80093FAA3F207F130031A6007F130031B6865
:102EF800B3FA83F3DBB243F02003DBB2DBB25B0946
:102F0800DBB2012B02D17E4B1B6839E04FF0007316
:102F1800C7F82431D7F8243193FAA3F207F12C0328
:102F28001A6007F12C031B68B3FA83F3DBB243F092
:102F38002003DBB2DBB25B09DBB2022B02D1704BA0
:102F48001B6A1DE04FF00073C7F82031D7F8203115
:102F580093FAA3F207F128031A6007F128031B6804
:102F6800B3FA83F3DBB243F02003DBB2DBB25B09D5
:102F7800DBB2042B02D1624B5B6801E0604B5B6AF9
:102F88004FF00072C7F81C21D7F81C2192FAA2F161
:102F980007F12402116007F124021268B2FA82F2E2
:102FA800D2B242F02002D2B2D2B202F01F02D34013
:102FB80003F00103002B83D09BE04FF08073C7F828
:102FC8001831D7F8183193FAA3F207F120031A60E1
:102FD80007F120031B68B3FA83F39B0003F18443D2
:102FE80003F584031A4600231360FDF763FDC7F851
:102FF800F80109E0FDF75EFD0246D7F8F831D31A6B
:10300800022B01D9032375E04FF00073C7F8143180
:10301800D7F8143193FAA3F207F11C031A6007F1E9
:103028001C031B68B3FA83F3DBB243F02003DBB263
:10303800DBB25B09DBB2012B02D1314B1B6839E0F3
:103048004FF00073C7F81031D7F8103193FAA3F294
:1030580007F118031A6007F118031B68B3FA83F322
:10306800DBB243F02003DBB2DBB25B09DBB2022B3D
:1030780002D1234B1B6A1DE04FF00073C7F80C31D7
:10308800D7F80C3193FAA3F207F114031A6007F189
:1030980014031B68B3FA83F3DBB243F02003DBB2FB
:1030A800DBB25B09DBB2042B02D1154B5B6801E094
:1030B800134B5B6A4FF00072C7F80821D7F8082154
:1030C80092FAA2F107F11002116007F110021268DA
:1030D800B2FA82F2D2B242F02002D2B2D2B202F0F6
:1030E8001F02D34003F00103002B83D101E0012329
:1030F80000E00023184607F50177BD4690BD00BFE4
:103108000010024080B59EB000AF7860396000239F
:103118007B67A34B1B6803F007023B689A4210D2F7
:103128009F499F4B1B6823F007023B6813430B60C2
:103138009B4B1B6803F007023B689A4201D00123AE
:10314800D0E17B681B6803F00203002B08D0954987
:10315800944B5B6823F0F0027B689B6813434B60D9
:103168007B681B6803F00103002B00F068817B6813
:103178005B68012B5CD14FF400333B643B6C93FAE2
:10318800A3F3FB63FB6BB3FA83F3DBB243F02003D7
:10319800DBB2DBB25B09DBB2012B02D1814B1B68CE
:1031A8002DE04FF400333B673B6F93FAA3F3BB6307
:1031B800BB6BB3FA83F3DBB243F02003DBB2DBB2C1
:1031C8005B09DBB2022B02D1764B1B6A17E04FF486
:1031D8000033FB66FB6E93FAA3F37B637B6BB3FA56
:1031E80083F3DBB243F02003DBB2DBB25B09DBB273
:1031F800042B02D16B4B5B6801E06A4B5B6A4FF4AE
:103208000032BA66BA6E92FAA2F23A633A6BB2FA2E
:1032180082F2D2B242F02002D2B2D2B202F01F023F
:10322800D34003F00103002B40F0BE80012359E195
:103238007B685B68022B5BD14FF000737B667B6E0B
:1032480093FAA3F3FB62FB6AB3FA83F3DBB243F0AE
:103258002003DBB2DBB25B09DBB2012B02D1514B9D
:103268001B682DE04FF000733B663B6E93FAA3F3A7
:10327800BB62BB6AB3FA83F3DBB243F02003DBB271
:10328800DBB25B09DBB2022B02D1464B1B6A17E0AB
:103298004FF00073FB65FB6D93FAA3F37B627B6AC7
:1032A800B3FA83F3DBB243F02003DBB2DBB25B0992
:1032B800DBB2042B02D13B4B5B6801E0394B5B6A04
:1032C8004FF00072BA65BA6D92FAA2F23A623A6A9F
:1032D800B2FA82F2D2B242F02002D2B2D2B202F0F4
:1032E8001F02D34003F00103002B5DD10123F9E055
:1032F80002237B657B6D93FAA3F3FB61FB69B3FA49
:1033080083F3DBB243F02003DBB2DBB25B09DBB251
:10331800012B02D1234B1B682BE002233B653B6D3D
:1033280093FAA3F3BB61BB69B3FA83F3DBB243F04F
:103338002003DBB2DBB25B09DBB2022B02D1194BF3
:103348001B6A16E00223FB64FB6C93FAA3F37B6110
:103358007B69B3FA83F3DBB243F02003DBB2DBB261
:103368005B09DBB2042B02D10E4B5B6801E00D4B0D
:103378005B6A0222BA64BA6C92FAA2F23A613A69BA
:10338800B2FA82F2D2B242F02002D2B2D2B202F043
:103398001F02D34003F00103002B05D10123A1E054
:1033A80000200240001002405049504B5B6823F057
:1033B80003027B685B6813434B60FDF77BFB786710
:1033C8007B685B68012B12D10AE0FDF773FB0246AC
:1033D8007B6FD31A41F28832934201D9032381E0EB
:1033E800424B5B6803F00C03042BEED127E07B68AB
:1033F8005B68022B1DD10AE0FDF75CFB02467B6F80
:10340800D31A41F28832934201D903236AE0374B39
:103418005B6803F00C03082BEED110E0FDF74AFBC4
:1034280002467B6FD31A41F28832934201D90323B3
:1034380058E02E4B5B6803F00C03002BEED12C4BAD
:103448001B6803F007023B689A4210D92849284BA9
:103458001B6823F007023B6813430B60244B1B686F
:1034680003F007023B689A4201D001233AE07B68E7
:103478001B6803F00403002B08D01C491B4B5B6836
:1034880023F4E0627B68DB6813434B607B681B684E
:1034980003F00803002B09D01449144B5B6823F48C
:1034A80060527B681B69DB0013434B6000F026F811
:1034B80001460E4B5B6803F0F002F0237B647B6CE3
:1034C80093FAA3F3FB60FB68B3FA83F322FA03F3DE
:1034D800084AD35C21FA03F3074A13600020FDF77A
:1034E800BFFA002318467837BD4680BD0010024059
:1034F80000200240A03800082804002080B48BB0C7
:1035080000AF0023FB610023BB6100237B62002323
:103518007B6100233B62294B5B68FB61FB6903F01D
:103528000C03042B02D0082B03D03CE0244B3B6255
:103538003CE0FB6903F470124FF470133B613B6984
:1035480093FAA3F37B607B68B3FA83F322FA03F35D
:103558001C4AD35C7B61194BDB6A03F00F020F2313
:10356800FB60FB6893FAA3F3BB60BB68B3FA83F311
:1035780022FA03F3144AD35CBB61FB6903F480337A
:10358800002B08D00E4ABB69B2FBF3F37A6902FB41
:1035980003F37B6204E07B690C4A02FB03F37B6262
:1035A8007B6A3B6202E0064B3B6200BF3B6A1846FF
:1035B8002C37BD465DF8047B704700BF0010024001
:1035C80000127A00B0380008C038000800093D0031
:1035D80080B400AF034B1B681846BD465DF8047BFA
:1035E800704700BF2804002080B592B000AF786013
:1035F80000233B640023FB637B681B6803F4803370
:10360800002B00F0EF80002387F84730964BDB69EA
:1036180003F08053002B0ED1934A934BDB6943F0A0
:103628008053D361904BDB6903F08053BB60BB6868
:10363800012387F847308D4B1B6803F48073002BF8
:1036480018D18A4A894B1B6843F480731360FDF7CD
:1036580031FA386408E0FDF72DFA02463B6CD31ABC
:10366800642B01D90323FAE0804B1B6803F48073B1
:10367800002BF0D07C4B1B6A03F44073FB63FB6B9D
:10368800002B00F09C807B685B6803F44072FB6B46
:103698009A4200F09480744B1B6A23F44073FB63D6
:1036A8004FF480337B637B6B93FAA3F3FB61FB6975
:1036B800B3FA83F39B001A466D4B13441A46012351
:1036C80013604FF480337B627B6A93FAA3F33B6207
:1036D8003B6AB3FA83F39B001A46654B13441A46B8
:1036E80000231360604AFB6B1362FB6B03F001035A
:1036F800002B64D0FDF7DEF938640AE0FDF7DAF94B
:1037080002463B6CD31A41F28832934201D9032313
:10371800A5E00223BB63BB6B93FAA3F3BB61BB6950
:10372800B3FA83F3DBB243F04003DBB2DBB25B09ED
:10373800DBB2012B02D14C4B1B682BE002233B630D
:103748003B6B93FAA3F37B617B69B3FA83F3DBB238
:1037580043F04003DBB2DBB25B09DBB2022B02D1E0
:10376800414B1B6A16E00223FB62FB6A93FAA3F340
:103778003B613B69B3FA83F3DBB243F04003DBB24E
:10378800DBB25B09DBB2042B02D1374B5B6801E08B
:10379800354B5B6A0222BA62BA6A92FAA2F2FA60FE
:1037A800FA68B2FA82F2D2B242F04002D2B2D2B28F
:1037B80002F01F02D34003F00103002B9ED02A49D8
:1037C800294B1B6A23F440727B685B6813430B62C6
:1037D80097F84730012B05D1234A234BDB6923F0A7
:1037E8008053D3617B681B6803F00103002B08D06A
:1037F8001D491D4B1B6B23F003027B689B68134319
:103808000B637B681B6803F02003002B08D0164964
:10381800154B1B6B23F010027B68DB6813430B63AB
:103828007B681B6803F08003002B08D00E490E4B01
:10383800DB6A23F4F8727B681B691343CB627B68ED
:103848001B6803F48053002B08D00749064B1B6BF9
:1038580023F480727B685B6913430B63002318466B
:103868004837BD4680BD00BF0010024000700040D0
:1038780000044242F8B500BFF8BC08BC9E46704739
:0C388800F8B500BFF8BC08BC9E467047B5
:103894001A12000043000000000000200000000095
:1038A40000000000010203040607080902030405DE
:1038B400060708090A0B0C0D0E0F10100102030471
:0C38C40005060708090A0B0C0D0E0F107A
:0838D000B1030008F501000836
:0438D800CD01000816
:1038DC0000000000EC02002054030020BC03002078
:1038EC0000000000000000000000000000000000CC
:1038FC0000000000000000000000000000000000BC
:10390C0000000000983800080000000000000000D3
:10391C00000000000000000000000000000000009B
:10392C00000000000000000000000000000000008B
:10393C00000000000000000000000000000000007B
:10394C00000000000000000000000000000000006B
:10395C00000000000000000000000000000000005B
:10396C00000000000000000000000000000000004B
:10397C00000000000000000001000000000000003A
:10398C000E33CDAB34126DE6ECDE05000B000000FF
:10399C00000000000000000000000000000000001B
:1039AC00000000000000000000000000000000000B
:1039BC0000000000000000000000000000000000FB
:1039CC0000000000000000000000000000000000EB
:0C3CFC00000000000000000000127A0030
:040000050800049D4E
:00000001FF
