:020000040800F2
:1000000000300020D1130008A51B0008B51B000814
:10001000BD1B0008C51B0008CD1B00080000000028
:10002000000000000000000000000000D51B0008D8
:10003000E51B000800000000F51B0008051C000877
:1000400021140008211400082114000821140008BC
:1000500021140008211400082114000821140008AC
:10006000211400082114000821140008211400089C
:100070002114000821140008151C0008291C000880
:10008000211400082114000821140008211400087C
:10009000211400082114000821140008211400086C
:1000A000411C000821140008211400082114000834
:1000B0002114000821140008000000002114000889
:1000C00021140008000000000000000021140008B6
:1000D000000000006D1C0008211400082114000815
:1000E000811C00082114000800000000000000002E
:1000F0000000000000000000000000000000000000
:1001000000000000000000000000000000000000EF
:100110000000000000000000211400082114000865
:1001200000000000000000000000000000000000CF
:1001300000000000000000000000000000000000BF
:100140002114000821140008000000000000000035
:10015000000000000000000000000000000000009F
:10016000000000000000000000000000000000008F
:10017000000000000000000000000000000000007F
:0801800000000000211400083A
:1001C000044B05481B1A062B02D9044B03B11847F0
:1001D000704700BF7B080020780800200000000066
:1001E00005490648091A891001EBD171491002D05E
:1001F000034B03B1184770477808002078080020A7
:100200000000000010B5064C237843B9FFF7D8FF73
:10021000044B13B10448AFF300800123237010BDD9
:100220007808002000000000D89D000808B5084BA1
:100230001BB108490848AFF300800848036813B9A8
:10024000BDE80840CCE7064B002BF9D09847F7E70C
:10025000000000007C080020D89D000878080020DD
:100260000000000081F0004102E000BF83F0004385
:1002700030B54FEA41044FEA430594EA050F08BF41
:1002800090EA020F1FBF54EA000C55EA020C7FEA05
:10029000645C7FEA655C00F0E2804FEA5454D4EB82
:1002A0005555B8BF6D420CDD2C4480EA020281EA4C
:1002B000030382EA000083EA010180EA020281EA84
:1002C0000303362D88BF30BD11F0004F4FEA0131D6
:1002D0004FF4801C4CEA113102D0404261EB4101E5
:1002E00013F0004F4FEA03334CEA133302D052426B
:1002F00063EB430394EA050F00F0A780A4F1010427
:10030000D5F1200E0DDB02FA0EFC22FA05F2801860
:1003100041F1000103FA0EF2801843FA05F3594146
:100320000EE0A5F120050EF1200E012A03FA0EFCC5
:1003300028BF4CF0020C43FA05F3C01851EBE371EF
:1003400001F0004507D54FF0000EDCF1000C7EEB0C
:1003500000006EEB0101B1F5801F1BD3B1F5001F4A
:100360000CD349085FEA30004FEA3C0C04F1010469
:100370004FEA445212F5800F80F09A80BCF1004F92
:1003800008BF5FEA500C50F1000041EB045141EA14
:10039000050130BD5FEA4C0C404141EB010111F415
:1003A000801FA4F10104E9D191F0000F04BF0146C0
:1003B0000020B1FA81F308BF2033A3F10B03B3F19E
:1003C00020020CDA0C3208DD02F1140CC2F10C022E
:1003D00001FA0CF021FA02F10CE002F11402D8BF8C
:1003E000C2F1200C01FA02F120FA0CFCDCBF41EA58
:1003F0000C019040E41AA2BF01EB0451294330BD27
:100400006FEA04041F3C1CDA0C340EDC04F1140403
:10041000C4F1200220FA04F001FA02F340EA0300DA
:1004200021FA04F345EA030130BDC4F10C04C4F120
:10043000200220FA02F001FA04F340EA0300294600
:1004400030BD21FA04F0294630BD94F0000F83F44A
:10045000801306BF81F480110134013D4EE77FEA2D
:10046000645C18BF7FEA655C29D094EA050F08BF79
:1004700090EA020F05D054EA000C04BF194610465A
:1004800030BD91EA030F1EBF0021002030BD5FEA9E
:10049000545C05D14000494128BF41F0004130BDC6
:1004A00014F580043CBF01F5801130BD01F000451A
:1004B00045F0FE4141F470014FF0000030BD7FEA8D
:1004C000645C1ABF194610467FEA655C1CBF0B4688
:1004D000024650EA013406BF52EA033591EA030F9F
:1004E00041F4002130BD00BF90F0000F04BF002197
:1004F000704730B54FF4806404F132044FF00005CA
:100500004FF0000150E700BF90F0000F04BF002142
:10051000704730B54FF4806404F1320410F00045A8
:1005200048BF40424FF000013EE700BF42004FEAA3
:10053000E2014FEA31014FEA02701FBF12F07F4320
:1005400093F07F4F81F06051704792F0000F14BF1D
:1005500093F07F4F704730B54FF4607401F0004561
:1005600021F0004120E700BF50EA010208BF7047B8
:1005700030B54FF000050AE050EA010208BF7047AD
:1005800030B511F0004502D5404261EB41014FF416
:10059000806404F132045FEA915C3FF4DCAE4FF01A
:1005A00003025FEADC0C18BF03325FEADC0C18BF01
:1005B000033202EBDC02C2F1200300FA03FC20FA52
:1005C00002F001FA03FE40EA0E0021FA02F114449F
:1005D000C1E600BF70B54FF0FF0C4CF4E06C1CEAB4
:1005E00011541DBF1CEA135594EA0C0F95EA0C0F29
:1005F00000F0DEF82C4481EA030621EA4C5123EA9C
:100600004C5350EA013518BF52EA033541F48011CA
:1006100043F4801338D0A0FB02CE4FF00005E1FB7D
:1006200002E506F00042E0FB03E54FF00006E1FBC7
:1006300003569CF0000F18BF4EF0010EA4F1FF040A
:10064000B6F5007F64F5407404D25FEA4E0E6D414A
:1006500046EB060642EAC62141EA55514FEAC5205B
:1006600040EA5E504FEACE2EB4F1FD0C88BFBCF5D7
:10067000E06F1ED8BEF1004F08BF5FEA500E50F188
:10068000000041EB045170BD06F0004646EA01014E
:1006900040EA020081EA0301B4EB5C04C2BFD4EB80
:1006A0000C0541EA045170BD41F480114FF0000E79
:1006B000013C00F3AB8014F1360FDEBF002001F0E7
:1006C000004170BDC4F10004203C35DA0C341BDC61
:1006D00004F11404C4F1200500FA05F320FA04F033
:1006E00001FA05F240EA020001F0004221F0004167
:1006F00010EBD37021FA04F642EB06015EEA430EDA
:1007000008BF20EAD37070BDC4F10C04C4F1200509
:1007100000FA04F320FA05F001FA04F240EA0200BC
:1007200001F0004110EBD37041F100015EEA430E8D
:1007300008BF20EAD37070BDC4F1200500FA05F2AD
:100740004EEA020E20FA04F301FA05F243EA02032C
:1007500021FA04F001F0004121FA04F220EA02003B
:1007600000EBD3705EEA430E08BF20EAD37070BD81
:1007700094F0000F0FD101F00046400041EB010161
:1007800011F4801F08BF013CF7D041EA060195F043
:10079000000F18BF704703F00046520043EB0303FD
:1007A00013F4801F08BF013DF7D043EA06037047EA
:1007B00094EA0C0F0CEA135518BF95EA0C0F0CD0F5
:1007C00050EA410618BF52EA4306D1D181EA03013B
:1007D00001F000414FF0000070BD50EA410606BF35
:1007E0001046194652EA430619D094EA0C0F02D17A
:1007F00050EA013613D195EA0C0F05D152EA0336BF
:100800001CBF104619460AD181EA030101F00041DC
:1008100041F0FE4141F470014FF0000070BD41F025
:10082000FE4141F4780170BD70B54FF0FF0C4CF4FF
:10083000E06C1CEA11541DBF1CEA135594EA0C0F1E
:1008400095EA0C0F00F0A7F8A4EB050481EA030E6B
:1008500052EA03354FEA013100F088804FEA033352
:100860004FF0805545EA131343EA12634FEA022220
:1008700045EA111545EA10654FEA00260EF00041E1
:100880009D4208BF964244F1FD0404F5407402D233
:100890005B084FEA3202B61A65EB03055B084FEAC4
:1008A00032024FF480104FF4002CB6EB020E75EBC1
:1008B000030E22BFB61A754640EA0C005B084FEAE9
:1008C0003202B6EB020E75EB030E22BFB61A754666
:1008D00040EA5C005B084FEA3202B6EB020E75EBB1
:1008E000030E22BFB61A754640EA9C005B084FEA29
:1008F0003202B6EB020E75EB030E22BFB61A754636
:1009000040EADC0055EA060E18D04FEA051545EA24
:1009100016754FEA06164FEAC30343EA52734FEACD
:10092000C2025FEA1C1CC0D111F4801F0BD141EA46
:1009300000014FF000004FF0004CB6E711F4801FAB
:1009400004BF01430020B4F1FD0C88BFBCF5E06F8B
:100950003FF6AFAEB5EB030C04BFB6EB020C5FEA9B
:10096000500C50F1000041EB045170BD0EF0004EF0
:100970004EEA113114EB5C04C2BFD4EB0C0541EA22
:10098000045170BD41F480114FF0000E013C90E61F
:1009900045EA060E8DE60CEA135594EA0C0F08BFE3
:1009A00095EA0C0F3FF43BAF94EA0C0F0AD150EAE2
:1009B00001347FF434AF95EA0C0F7FF425AF104675
:1009C00019462CE795EA0C0F06D152EA03353FF49D
:1009D000FDAE1046194622E750EA410618BF52EA1A
:1009E00043067FF4C5AE50EA41047FF40DAF52EAEE
:1009F00043057FF4EBAE12E74FEA4102B2F1E04368
:100A000024BFB3F5001CDCF1FE5C0DD901F0004CF5
:100A10004FEAC0024CEA5070B2F1004F40EB830045
:100A200008BF20F00100704711F0804F21D113F171
:100A30003872BCBF01F00040704741F480114FEAAA
:100A40005252C2F11802C2F1200C10FA0CF320FA33
:100A500002F018BF40F001004FEAC1234FEAD32350
:100A600003FA0CFC40EA0C0023FA02F34FEA4303BA
:100A7000CCE77FEA625307D150EA01331EBF4FF043
:100A8000FE4040F44000704701F0004040F0FE405E
:100A900040F40000704700BF844641EA000313F0B1
:100AA00003036DD1403A41D351F8043B40F8043B75
:100AB00051F8043B40F8043B51F8043B40F8043B38
:100AC00051F8043B40F8043B51F8043B40F8043B28
:100AD00051F8043B40F8043B51F8043B40F8043B18
:100AE00051F8043B40F8043B51F8043B40F8043B08
:100AF00051F8043B40F8043B51F8043B40F8043BF8
:100B000051F8043B40F8043B51F8043B40F8043BE7
:100B100051F8043B40F8043B51F8043B40F8043BD7
:100B200051F8043B40F8043B403ABDD2303211D377
:100B300051F8043B40F8043B51F8043B40F8043BB7
:100B400051F8043B40F8043B51F8043B40F8043BA7
:100B5000103AEDD20C3205D351F8043B40F8043B77
:100B6000043AF9D2043208D0D2071CBF11F8013B75
:100B700000F8013B01D30B8803806046704700BF3B
:100B8000082A13D38B078DD010F003038AD0C3F14A
:100B90000403D21ADB071CBF11F8013B00F8013B2C
:100BA00080D331F8023B20F8023B7BE7043AD9D3EB
:100BB000013A11F8013B00F8013BF9D20B780370C0
:100BC0004B7843708B78837060467047000000005C
:100BD0000000000000000000000000000000000015
:100BE0000000000000000000000000000000000005
:100BF00000000000000000000000000000000000F5
:100C000090F800F06DE9024520F007016FF0000C4C
:100C100010F0070491F820F040F049804FF00004F4
:100C20006FF00700D1E9002391F840F000F10800CF
:100C300082FA4CF2A4FA8CF283FA4CF3A2FA8CF307
:100C40004BBBD1E9022382FA4CF200F10800A4FA6E
:100C50008CF283FA4CF3A2FA8CF3E3B9D1E90423C2
:100C600082FA4CF200F10800A4FA8CF283FA4CF3F9
:100C7000A2FA8CF37BB9D1E9062301F1200182FAB3
:100C80004CF200F10800A4FA8CF283FA4CF3A2FAB9
:100C90008CF3002BC6D0002A04BF04301A4612BAC7
:100CA000B2FA82F2FDE8024500EBD2007047D1E9CA
:100CB000002304F00305C4F100004FEAC50514F059
:100CC000040F91F840F00CFA05F562EA05021CBF2A
:100CD00063EA050362464FF00004A9E70000000044
:100CE00001F0FF01102A2BDB10F0070F08D010F8DD
:100CF000013B013A8B422DD010F0070F42B3F6D1E1
:100D0000F0B441EA012141EA014122F007047FF0F9
:100D100000070023F0E80256083C85EA010586EA50
:100D2000010685FA47F5A3FA87F586FA47F6A5FA8C
:100D300087F68EB9EED1F0BC01F0FF0102F0070298
:100D400032B110F8013B013A83EA010313B1F8D143
:100D50000020704701387047002D06BF3546033824
:100D6000073815F0010F07D1013015F4807F02BF5D
:100D7000013015F4C03F0130F0BC0138704700BFAE
:100D80004FF0FF3C06E000BF4FF0010C02E000BF57
:100D90004FF0010C4DF804CD4FEA410C7FEA6C5C3A
:100DA0004FEA430C18BF7FEA6C5C1BD001B050EADD
:100DB000410C0CBF52EA430C91EA030F02BF90EAC8
:100DC000020F0020704710F1000F91EA030F58BF87
:100DD000994208BF90422CBFD8176FEAE37040F0E9
:100DE000010070474FEA410C7FEA6C5C02D150EA87
:100DF000013C07D14FEA430C7FEA6C5CD6D152EA42
:100E0000033CD3D05DF8040B704700BF8446104606
:100E100062468C461946634600E000BF01B5FFF705
:100E2000B7FF002848BF10F1000F01BD4DF808EDD5
:100E3000FFF7F4FF0CBF012000205DF808FB00BFA6
:100E40004DF808EDFFF7EAFF34BF012000205DF800
:100E500008FB00BF4DF808EDFFF7E0FF94BF01204D
:100E600000205DF808FB00BF4DF808EDFFF7CEFF4E
:100E700094BF012000205DF808FB00BF4DF808ED8D
:100E8000FFF7C4FF34BF012000205DF808FB00BF5E
:100E90004FEA410212F5001215D211D56FF47873A2
:100EA000B3EB625212D94FEAC12343F0004343EA45
:100EB000505311F0004F23FA02F018BF4042704720
:100EC0004FF00000704750EA013005D111F00040AA
:100ED00008BF6FF0004070474FF00000704700BF40
:100EE00053B94AB9002908BF00281CBF4FF0FF3191
:100EF0004FF0FF3000F07EB9ADF1080C6DE904CE83
:100F000000F006F8DDF804E0DDE9022304B07047E4
:100F10002DE9F0478C460E460446089D002B50D123
:100F20008A4217466CD9B2FA82FEBEF1000F0BD08E
:100F3000CEF1200420FA04F401FA0EF644EA060C7D
:100F400002FA0EF700FA0EF44FEA1749220CBCFB26
:100F5000F9F01FFA87F809FB10C642EA064600FBC3
:100F600008F3B34209D9F61900F1FF3280F022816B
:100F7000B34240F21F8102383E44F61AA2B2B6FBD9
:100F8000F9F309FB136642EA064403FB08F8A0459F
:100F900009D9E41903F1FF3280F00A81A04540F23B
:100FA0000781023B3C44C8EB040443EA00400021B3
:100FB000002D62D024FA0EF400232C606B60BDE893
:100FC000F0878B4207D9002D55D0002185E84100DC
:100FD0000846BDE8F087B3FA83F1002940F090801D
:100FE000B34202D3824200F2F880841A66EB030611
:100FF0000120B446002D40D085E81010BDE8F087F0
:1010000012B90127B7FBF2F7B7FA87FEBEF1000F5E
:1010100035D1F31B4FEA17481FFA87FC0121B3FBB8
:10102000F8F0220C08FB103642EA06460CFB00F3EF
:10103000B34207D9F61900F1FF3202D2B34200F2EF
:10104000CE801046F61AA2B2B6FBF8F308FB136680
:1010500042EA06440CFB03FCA44507D9E41903F15A
:10106000FF3202D2A44500F2B5801346CCEB040453
:1010700043EA00409CE729462846BDE8F087CEF1C8
:10108000200106FA0EF307FA0EF720FA01F94FEAEB
:101090001748CE4049EA0309B6FBF8FA4FEA19446B
:1010A00008FB1A661FFA87FC44EA06430AFB0CF2A7
:1010B0009A4200FA0EF40AD9DB190AF1FF3180F0E6
:1010C00087809A4240F28480AAF1020A3B449B1A2C
:1010D0001FFA89F9B3FBF8F108FB113349EA03431E
:1010E00001FB0CF69E4207D9DB1901F1FF326BD2EE
:1010F0009E4269D902393B449B1B41EA0A418EE773
:10110000C1F1200E22FA0EF48B40234320FA0EF791
:1011100006FA01F44FEA134C26FA0EF63C43B6FBEE
:10112000FCF9270C0CFB19661FFA83F847EA064600
:1011300009FB08F7B74202FA01F200FA01FA08D9EE
:10114000F61809F1FF3041D2B7423FD9A9F102099F
:101150001E44F61BA0B2B6FBFCF40CFB146640EA7E
:10116000064704FB08F8B84507D9FF1804F1FF301B
:1011700028D2B84526D9023C1F4444EA0940C8EBAE
:101180000707A0FB02894F4544464E4614D329D099
:1011900065B3BAEB040367EB060707FA0EFECB4014
:1011A000CF404EEA030385E888000021BDE8F087C0
:1011B0001346F8E61046E0E6B8EB020469EB0306D6
:1011C0000138E5E70446D8E7114695E78146C0E7D0
:1011D0008A467CE7023B3C4448E708460AE7023877
:1011E0003E442FE7C245E7D33E46D1E72946BDE856
:1011F000F08700BF704700BF70B50F4E0F4D761BD4
:10120000B61018BF002405D0013455F8043B9847A8
:10121000A642F9D10A4E0B4D761B08F0DDFDB61043
:1012200018BF002406D0013455F8043B9847A64265
:10123000F9D170BD70BD00BFB89F0008B89F00080D
:10124000C09F0008B89F000870B4840746D0541EA1
:10125000002A41D0CDB2034602E0621EE4B3144638
:1012600003F8015B9A07F8D1032C2ED9CDB245EAD9
:1012700005250F2C45EA054519D903F1100226462C
:10128000103E0F2E42F8105C42F80C5C42F8085CED
:1012900042F8045C02F11002F2D8A4F1100222F02C
:1012A0000F0204F00F041032032C13440DD91E4614
:1012B0002246043A032A46F8045BFAD8221F22F099
:1012C00003020432134404F003042CB1C9B21C44D9
:1012D00003F8011BA342FBD170BC704714460346C0
:1012E000C2E700BF024B13B1024800F005B87047D7
:1012F0000000000005130008002301461A461846A6
:1013000000F014B838B5074D074C2C1BA41005D0BD
:10131000013C55F8043D9847002CF9D1BDE8384010
:1013200008F060BDC49F0008C09F00082DE9F04789
:10133000254C2568D5F84841064688469246994688
:10134000C4B360681F2817DC431C76B104EB80052A
:101350000122C5F888A0D4F8881182401143022EDA
:10136000C4F88811C5F808911ED00230636044F8B3
:1013700020800020BDE8F087144B03B34FF4C87001
:10138000AFF300800446D0B1D5F84831002780E89B
:101390008800C5F8484138460123C4F88871C4F86C
:1013A0008C71002EE1D0D1E7D4F88C110A43C4F837
:1013B0008C21DAE705F5A674C5F84841C1E74FF07E
:1013C000FF30BDE8F08700BFF89D00080000000076
:1013D000DFF834D0002103E00C4B5B58435004315C
:1013E0000B480C4B42189A42F6D30B4A02E00023FA
:1013F00042F8043B094B9A42F9D300F04FFCFFF747
:10140000FBFE00F00FF8FEE700300020C49F00084C
:10141000000000207808002078080020840E0020BA
:10142000FEE7000080B588B000AF0023FB77002303
:10143000BB7700233B7700237B7700233B76002399
:101440007B760023BB7600233B8200237B82002334
:10145000BB8200233B8100237B810023BB8100F002
:10146000B3FD00F06BF800F0E5F900F0CBF900F007
:10147000DBF800F00FF900F053F900F093F900F0F9
:10148000AFF800BF254B1B78002BFBD0244804F09D
:10149000F1FA00F0A7FA0221032000F0B9FA0022C5
:1014A0000121204801F0D8FA012202211D4801F053
:1014B000D3FA2AE001211B4801F0E6FA022119487B
:1014C00001F0E2FA642000F0CBFD00F005FB0346DA
:1014D000BB81154BD3ED007A9FED147A67EE877AC6
:1014E000FCEEE77AC7ED017ABB889BB21A46104939
:1014F000104804F013FF0F48FFF782FB03469AB22F
:1015000001230C490C4803F04BFD044B1B78012BC5
:10151000D0D000BF18462037BD4680BD440E002005
:101520001C09002000140048400A002000007A44F2
:10153000F09D0008440A00205809002080B596B0AC
:1015400000AF02233B6301233B6410237B64002331
:10155000FB6407F13003184602F012F80346002B33
:1015600001D000F0E5FA0F23FB6100233B6200236A
:101570007B620023BB620023FB6207F11C03002196
:10158000184603F0BFF80346002B01D000F0D0FA54
:1015900021237B600023FB6000233B613B1D184639
:1015A00003F066FB0346002B01D000F0C1FA03F004
:1015B0000FFB0246094BA3FB02239B09184600F0D0
:1015C00063FE042000F06CFE002200214FF0FF308B
:1015D00000F030FE00BF5837BD4680BDD34D6210CD
:1015E00080B500AF002200210E2000F023FE0E2067
:1015F00000F03CFE002200210F2000F01BFE0F2017
:1016000000F034FE00220021252000F013FE2520EA
:1016100000F02CFE00220021282000F00BFE2820E4
:1016200000F024FE00BF80BD80B500AF164B174A06
:101630001A60154B164A5A60134B00229A60124BDF
:101640000122DA60104B00221A610F4B00225A610E
:101650000D4B00229A610C4B0022DA610A4B0022EA
:101660001A62094801F046FA0346002B01D000F047
:101670005FFA0021044801F037FF0346002B01D038
:1016800000F056FA00BF80BD9408002000540040CE
:101690000E09002080B58CB000AF1F4B1F4A1A60A6
:1016A0001D4B00225A601C4B00229A601A4B0022EC
:1016B000DA60194B00221A610123FB6000233B61B1
:1016C00001237B610023BB610023FB6100233B629C
:1016D00001237B620023BB620023FB6207F10C0342
:1016E00019460D4804F0E2F90346002B01D000F042
:1016F0001FFA00233B600023BB603B4619460648A7
:1017000004F0A4FD0346002B01D000F011FA00BF45
:101710003037BD4680BD00BFE00800200004004017
:1017200080B588B000AF1D4B1D4A1A601B4B4FF4AB
:10173000FA525A60194B00229A60184B0A22DA605A
:10174000164B00221A61154B00225A61134804F00F
:1017500065F90346002B01D000F0EAF94FF48053FD
:101760003B6107F1100319460C4804F03FFB0346A8
:10177000002B01D000F0DCF900237B600023FB602C
:101780003B1D1946054804F061FD0346002B01D0BE
:1017900000F0CEF900BF2037BD4680BD1C090020F7
:1017A0000040014080B500AF144B154A1A60134B3E
:1017B0004FF416525A60114B00229A600F4B0022D0
:1017C000DA600E4B00221A610C4B0C225A610B4B53
:1017D00000229A61094B0022DA61084B00221A624A
:1017E000064B00225A62054803F088FB0346002B93
:1017F00001D000F09DF900BF80BD00BF5809002056
:101800000038014080B483B000AF094A084B5B69DF
:1018100043F001035361064B5B6903F001037B60F6
:101820007B6800BF0C37BD465DF8047B704700BF86
:101830000010024080B588B000AF464A454B5B6956
:1018400043F480035361434B5B6903F48003BB6043
:10185000BB68404A3F4B5B6943F4003353613D4BE7
:101860005B6903F400337B607B683A4A394B5B6900
:1018700043F480235361374B5B6903F480233B605F
:101880003B6800220321344801F0E6F800224FF4BF
:1018900001414FF0904001F0DFF8002208212F486D
:1018A00001F0DAF80323FB6001233B6100237B6135
:1018B0000023BB6107F10C031946274800F056FFCF
:1018C00041F2FF03FB6000233B6100237B6107F1D2
:1018D0000C0319464FF0904000F048FF0323FB60D3
:1018E00000233B6100237B6107F10C0319461B4871
:1018F00000F03CFF4FF40143FB6001233B610023F8
:101900007B610023BB6107F10C0319464FF0904047
:1019100000F02CFF4FF40063FB60114B3B61002390
:101920007B6107F10C0319464FF0904000F01EFF59
:101930000823FB6001233B6100237B610023BB6123
:1019400007F10C031946054800F010FF00BF2037CF
:10195000BD4680BD0010024000140048000400484D
:101960000000111000000000B0B500AF00F0B4F8A6
:10197000034607EE903AF8EEE77A17EE900AFEF784
:10198000D5FD14A3D3E90023FEF74EFF03460C4612
:101990001846214611A3D3E90023FEF71BFE034698
:1019A0000C4625461C460A4B1B681846FEF7BEFD32
:1019B00022462B46FEF75CFC03460C4618462146A1
:1019C000FFF71AF80246024B1A6000BFB0BD00BF15
:1019D000400A002066666666666630407B14AE4745
:1019E000E17A843F80B586B004AF0A2302930123D5
:1019F0000193FB1D009301237522D021034801F0C0
:101A000029FAFB7918460837BD4680BD94080020A6
:101A100080B588B004AF03460A46FB711346BB711C
:101A20000023FB730A2302930123019307F10F03A1
:101A3000009301231922D021264801F0E5F8002364
:101A4000FB730A2302930123019307F10F03009311
:101A500001236B22D0211F4801F0D6F8FB79DB006F
:101A6000DBB203F01803DBB2FB730A2302930123FA
:101A7000019307F10F03009301231B22D021154886
:101A800001F0C2F8BB79DB00DBB203F01803DBB274
:101A9000FB730A2302930123019307F10F030093C1
:101AA00001231C22D0210B4801F0AEF80223FB7366
:101AB0000A2302930123019307F10F0300930123EB
:101AC0003722D021034801F09FF800BF1037BD46F0
:101AD00080BD00BF9408002080B500AF472000F013
:101AE00003F80346184680BD80B588B004AF0346AE
:101AF000FB71FB799AB20A2302930223019307F147
:101B0000080300930123D021084801F0A3F93B7A90
:101B10001B029AB27B7A9BB213439BB29BB2BB81EE
:101B2000BB891BB218461037BD4680BD9408002003
:101B300080B500AF0821034800F0A6FF322000F076
:101B40008FFAF7E70004004880B584B000AF7860F2
:101B50003960124B1B68002B02D1104B104A1A60DF
:101B60000E4B1B68FB600D4B1A683B6813446A46BA
:101B7000934207D904F0CCFB02460C2313604FF0CC
:101B8000FF3306E0054B1A683B681344034A1360B1
:101B9000FB6818461037BD4680BD00BF480E0020C8
:101BA000880E002080B400AF00BFBD465DF8047B06
:101BB000704700BF80B400AFFEE700BF80B400AF45
:101BC000FEE700BF80B400AFFEE700BF80B400AF07
:101BD000FEE700BF80B400AF00BFBD465DF8047BE8
:101BE000704700BF80B400AF00BFBD465DF8047B06
:101BF000704700BF80B400AF00BFBD465DF8047BF6
:101C0000704700BF80B500AF00F010FA00F064FB31
:101C100000BF80BD80B500AF024800F0B7FB00BF39
:101C200080BD00BF040A002080B500AFFFF79CFE16
:101C3000024800F0ABFB00BF80BD00BFC809002018
:101C400080B500AF0821074800F01EFF4FF40041A7
:101C50004FF0904000F018FF034803F0BFFF00BFB3
:101C600080BD00BF000400481C09002080B500AF03
:101C7000024803F017FA00BF80BD00BF58090020DA
:101C800080B500AF044B01221A604FF4006000F0F1
:101C90000DFF00BF80BD00BF440E002080B400AF28
:101CA0001F4A1F4BD3F8883043F47003C2F88830C2
:101CB0001C4A1C4B1B6843F0010313601949194B64
:101CC0005A68194B13404B60164A164B1B6823F099
:101CD000847323F480331360124A124B1B6823F47D
:101CE000802313600F4A0F4B5B6823F4FE0353609D
:101CF0000C4A0C4BDB6A23F00F03D3620949094BF2
:101D00001A6B0A4B13400B63064B00229A60044B7C
:101D10004FF000629A6000BFBD465DF8047B7047DB
:101D200000ED00E0001002400CC07FF8CCFC00FF8A
:101D300080B582B000AF1E4A1D4B9B6943F0010382
:101D400093611B4B9B6903F001037B607B6803205D
:101D500000F064FA002200216FF00B0000F06AFA34
:101D6000002200216FF00A0000F064FA0022002136
:101D70006FF0090000F05EFA002200216FF004000D
:101D800000F058FA002200216FF0030000F052FA30
:101D9000002200216FF0010000F04CFA0022002127
:101DA0004FF0FF3000F046FA00BF0837BD4680BD57
:101DB0000010024080B588B000AF78607B681B6877
:101DC000114A93421BD1C023FB6012233B610123C4
:101DD0007B610323BB610423FB6107F10C031946FC
:101DE0000A4800F0C3FC0A4A094BDB6943F40013BC
:101DF000D361074BDB6903F40013BB60BB6800BF12
:101E00002037BD4680BD00BF00540040000400489C
:101E10000010024080B588B000AF78607B681B6816
:101E2000114A93421BD1114A104BDB6943F0020364
:101E3000D3610E4BDB6903F00203BB60BB68302348
:101E4000FB6002233B6101237B610023BB61022312
:101E5000FB6107F10C031946054800F087FC00BF41
:101E60002037BD4680BD00BF000400400010024086
:101E70000004004880B584B000AF78607B681B68C0
:101E80000D4A934213D10D4A0C4B9B6943F48033A6
:101E900093610A4B9B6903F48033FB60FB6800226B
:101EA0000021182000F0C6F9182000F0DFF900BF6B
:101EB0001037BD4680BD00BF004001400010024009
:101EC00080B588B000AF78607B681B68384A934261
:101ED00069D1384A374B9B6943F480439361354B52
:101EE0009B6903F48043BB60BB684FF4C063FB6035
:101EF00002233B6101237B610323BB610723FB6159
:101F000007F10C0319464FF0904000F02FFC2A4BCC
:101F10002A4A1A60284B00225A60274B00229A60F6
:101F2000254B8022DA60244B00221A61224B0022CA
:101F30005A61214B20229A611F4B0022DA611E4810
:101F400000F0D8F90346002B01D0FFF7F1FD7B68C4
:101F5000194A5A66184A7B685362194B194A1A6023
:101F6000174B10225A60164B00229A60144B8022A5
:101F7000DA60134B00221A61114B00225A61104B98
:101F800020229A610E4B0022DA610D4800F0B2F96E
:101F90000346002B01D0FFF7CBFD7B68084A1A6689
:101FA000074A7B68536200BF2037BD4680BD00BF33
:101FB0000038014000100240C809002058000240CB
:101FC000040A00204400024080B500AF084A084BD4
:101FD0001B6843F010031360032000F01FF900207A
:101FE00000F008F8FFF7A4FE0023184680BD00BFEC
:101FF0000020024080B582B000AF7860094B1B68BA
:10200000094AA2FB03239B09184600F03DF9002270
:1020100079684FF0FF3000F00DF9002318460837BB
:10202000BD4680BD2C040020D34D621080B400AFAB
:10203000044B1B680133034A136000BFBD465DF8C3
:10204000047B70474C0E002080B400AF034B1B682C
:102050001846BD465DF8047B704700BF4C0E00205B
:1020600080B584B000AF7860FFF7EEFFF86000BF86
:10207000FFF7EAFF0246FB68D21A7B689A42F7D361
:1020800000BF1037BD4680BD80B485B000AF78601A
:102090007B6803F00703FB600C4BDB68BB60BA682E
:1020A0004FF6FF031340BB60FB681A02BB68134383
:1020B00043F0BF6343F40033BB60044ABB68D360A2
:1020C00000BF1437BD465DF8047B704700ED00E0AB
:1020D00080B400AF044BDB6803F4E0631B0A1846CE
:1020E000BD465DF8047B704700ED00E080B483B02E
:1020F00000AF0346FB71094997F907305B09FA798C
:1021000002F01F02012000FA02F241F8232000BF72
:102110000C37BD465DF8047B704700BF00E100E06E
:1021200080B483B000AF03463960FB7197F9073084
:10213000002B0BDA0D49FB7903F00F03043B3A68DF
:10214000D2B21201D2B20B441A7609E0084997F9CB
:1021500007303A68D2B21201D2B20B4483F800239E
:1021600000BF0C37BD465DF8047B704700ED00E012
:1021700000E100E080B489B000AFF860B9607A6037
:10218000FB6803F00703FB61FB69C3F10703042B42
:1021900028BF0423BB61FB690433062B02D9FB690A
:1021A000033B00E000237B610122BB6902FA03F3D9
:1021B0005A1EBB681A407B699A4001217B6901FA6B
:1021C00003F3591E7B680B40134318462437BD4662
:1021D0005DF8047B704700BF80B582B000AF7860C7
:1021E0007B68013BB3F1807F01D301230FE00A4AF2
:1021F0007B68013B53600F214FF0FF30FFF790FFEA
:10220000054B00229A60044B07221A6000231846EF
:102210000837BD4680BD00BF10E000E080B582B049
:1022200000AF78607868FFF72FFF00BF0837BD4622
:1022300080BD00BF80B586B000AF0346B9607A604C
:10224000FB7300237B61FFF743FF78617A68B9680D
:102250007869FFF78FFF024697F90F30114618464D
:10226000FFF75EFF00BF1837BD4680BD80B582B066
:1022700000AF0346FB7197F907301846FFF736FFAA
:1022800000BF0837BD4680BD80B582B000AF786022
:102290007868FFF7A1FF034618460837BD4680BDA2
:1022A00080B483B000AF78607B68042B06D1094A04
:1022B000084B1B6843F00403136005E0054A054B17
:1022C0001B6823F00403136000BF0C37BD465DF8A4
:1022D000047B704710E000E080B500AF00F002F82A
:1022E00000BF80BD80B400AF00BFBD465DF8047B79
:1022F000704700BF80B485B000AF78600023FB60FA
:102300007B68002B01D1012339E07B6893F82130F1
:10231000002B03D17B68002283F820207B680222F7
:1023200083F821207B681B681B68FB60FB6823F433
:102330007F5323F03003FB607B685A687B689B689F
:102340001A437B68DB681A437B681B691A437B6806
:102350005B691A437B689B691A437B68DB6913439B
:10236000FA681343FB607B681B68FA681A607B6835
:1023700000229A637B68012283F8212000231846FB
:102380001437BD465DF8047B704700BF80B582B04E
:1023900000AF78608F4B1A687B681B6819468E4BBC
:1023A00099422ED07B681B6819468C4B994226D0E7
:1023B0007B681B6819468A4B99421DD07B681B6855
:1023C0001946884B994214D07B681B681946864B86
:1023D00099420BD07B681B681946844B994202D105
:1023E0004FF400030EE04FF000630BE04FF40023C6
:1023F00008E04FF4004305E04FF4006302E080235F
:1024000000E008231340002B5CD07B681B681B682E
:1024100003F00803002B55D07B681B687A681268AC
:10242000126822F008021A606A4A7B681B68194623
:10243000694B99422ED07B681B681946674B9942BD
:1024400026D07B681B681946654B99421DD07B6876
:102450001B681946634B994214D07B681B68194668
:10246000614B99420BD07B681B6819465F4B9942C0
:1024700002D14FF400030EE04FF000630BE04FF485
:10248000002308E04FF4004305E04FF4006302E04E
:10249000802300E0082353607B689B6B43F00102BC
:1024A0007B689A637B68042283F821207B68002282
:1024B00083F820207B681B6B002B03D07B681B6B91
:1024C00078689847434B1A687B681B681946424BEB
:1024D00099422ED07B681B681946404B994226D002
:1024E0007B681B6819463E4B99421DD07B681B6870
:1024F00019463C4B994214D07B681B6819463A4BED
:1025000099420BD07B681B681946384B994202D11F
:102510004FF480030EE04FF080630BE04FF4802314
:1025200008E04FF4804305E04FF4806302E040236D
:1025300000E004231340002B68D07B681B681B68F5
:1025400003F00403002B61D07B681B681B6803F059
:102550002003002B07D17B681B687A681268126819
:1025600022F004021A601B4A7B681B6819461A4B4A
:1025700099423DD07B681B681946184B994226D07A
:102580007B681B681946164B99421DD07B681B68F7
:102590001946144B994214D07B681B681946124B9C
:1025A00099420BD07B681B681946104B994202D1A7
:1025B0004FF480031DE04FF080631AE04FF4802356
:1025C00017E04FF4804314E04FF4806311E04023A0
:1025D0000FE000BF00000240080002401C00024063
:1025E0003000024044000240580002406C000240AB
:1025F000042353607B68112283F821207B68DB6A07
:10260000002B03D07B68DB6A78689847504B1A68C8
:102610007B681B6819464F4B99422ED07B681B681C
:1026200019464D4B994226D07B681B6819464B4B87
:1026300099421DD07B681B681946494B994214D0BA
:102640007B681B681946474B99420BD07B681B6817
:102650001946454B994202D14FF400130EE04FF05A
:1026600000730BE04FF4003308E04FF4005305E033
:102670004FF4007302E0202300E002231340002BFC
:1026800061D07B681B681B6803F00203002B5AD0E3
:102690007B681B681B6803F02003002B07D17B6855
:1026A0001B687A681268126822F002021A60284ACF
:1026B0007B681B681946274B99422ED07B681B68A4
:1026C0001946254B994226D07B681B681946234B37
:1026D00099421DD07B681B681946214B994214D042
:1026E0007B681B6819461F4B99420BD07B681B689F
:1026F00019461D4B994202D14FF400130EE04FF0E2
:1027000000730BE04FF4003308E04FF4005305E092
:102710004FF4007302E0202300E0022353607B6843
:102720009A6B7B689A637B68012283F821207B681F
:10273000002283F820207B689B6A002B03D07B68F3
:102740009B6A7868984700BF0837BD4680BD00BFC8
:1027500000000240080002401C000240300002401D
:1027600044000240580002406C00024080B487B030
:1027700000AF7860396000237B610023FB60002399
:102780003B614EE13B681A6801217B6901FA03F362
:102790001340FB60FB68002B00F040813B685B68E6
:1027A000022B03D03B685B68122B23D17B69DA08CC
:1027B0007B68083253F822303B617B6903F00703E2
:1027C0009B000F2202FA03F3DB433A6913403B619B
:1027D0003B681A697B6903F007039B0002FA03F365
:1027E0003A6913433B617B69DA087B6808323969CF
:1027F00043F822107B681B683B617B695B00032206
:1028000002FA03F3DB433A6913403B613B685B68C0
:1028100003F003027B695B0002FA03F33A69134396
:102820003B617B683A691A603B685B68012B0BD09F
:102830003B685B68022B07D03B685B68112B03D0B9
:102840003B685B68122B30D17B689B683B617B697E
:102850005B00032202FA03F3DB433A6913403B6156
:102860003B68DA687B695B0002FA03F33A69134359
:102870003B617B683A699A607B685B683B610122D7
:102880007B6902FA03F3DB433A6913403B613B681F
:102890005B681B0903F001027B6902FA03F33A69E2
:1028A00013433B617B683A695A607B68DB683B6134
:1028B0007B695B00032202FA03F3DB433A691340AE
:1028C0003B613B689A687B695B0002FA03F33A69F3
:1028D00013433B617B683A69DA603B685B6803F0ED
:1028E0008053002B00F09A80554A554B9B6943F06A
:1028F00001039361524B9B6903F00103BB60BB680A
:10290000504A7B699B08023352F823303B617B6954
:1029100003F003039B000F2202FA03F3DB433A693F
:1029200013403B617B68B3F1904F13D07B68464AFC
:1029300093420DD07B68454A934207D07B68444A56
:10294000934201D1032306E0052304E0022302E0C1
:10295000012300E000237A6902F003029200934011
:102960003A6913433B6137497B699B0802333A69F3
:1029700041F82320374B1B683B61FB68DB433A6916
:1029800013403B613B685B6803F48033002B03D04A
:102990003A69FB6813433B612E4A3B6913602D4B38
:1029A0005B683B61FB68DB433A6913403B613B6812
:1029B0005B6803F40033002B03D03A69FB681343D0
:1029C0003B61244A3B695360224B9B683B61FB6837
:1029D000DB433A6913403B613B685B6803F4801357
:1029E000002B03D03A69FB6813433B61194A3B69EA
:1029F0009360184BDB683B61FB68DB433A6913402B
:102A00003B613B685B6803F40013002B03D03A6919
:102A1000FB6813433B610F4A3B69D3607B69013319
:102A20007B613B681A687B6922FA03F3002B7FF411
:102A3000A9AE00BF1C37BD465DF8047B704700BFE0
:102A40000010024000000140000400480008004857
:102A5000000C00480004014080B483B000AF7860EF
:102A60000B467B8013467B707B78002B03D07A88E3
:102A70007B689A6102E07A887B689A6200BF0C37B3
:102A8000BD465DF8047B704780B483B000AF7860CA
:102A90000B467B807B685A697B885A407B685A6109
:102AA00000BF0C37BD465DF8047B704780B582B02F
:102AB00000AF0346FB80084B5A69FB881340002B8C
:102AC00006D0054AFB885361FB88184600F006F8DB
:102AD00000BF0837BD4680BD0004014080B483B00C
:102AE00000AF0346FB8000BF0C37BD465DF8047B9A
:102AF000704700BF80B582B000AF78607B68002B64
:102B000001D101237CE07B6893F84130DBB2002BDC
:102B100006D17B68002283F840207868FFF74AF9E5
:102B20007B68242283F841207B681B687A681268DE
:102B3000126822F001021A607B681B687A6852688A
:102B400022F070621A617B681B687A68126892686A
:102B500022F400429A607B689B68002B12D07B684D
:102B6000DB68012B07D17B681B687A68926842F4A6
:102B700000429A6006E07B681B687A68926842F4BB
:102B800004429A607B68DB68022B04D17B681B6877
:102B90004FF400625A607B681A687B681B685B6848
:102BA00043F0007343F4004353607B681B687A680A
:102BB00011697A68526911437A68926912020A436C
:102BC000DA607B681B687A68D1697A68126A0A439E
:102BD0001A607B681B687A681268126842F001020A
:102BE0001A607B6800225A647B68202283F84120A7
:102BF0007B6800221A637B68002283F8422000234E
:102C000018460837BD4680BD80B588B002AFF86071
:102C1000084611461A4603467B810B463B81134604
:102C2000FB8000237B61FB6893F84130DBB2202BF3
:102C300040F009813B6A002B02D0BB8C002B01D1F4
:102C4000012301E1FB6893F84030012B01D10223FD
:102C5000FAE0FB68012283F84020FFF7F5F978617C
:102C60007B690093192301224FF40041F86800F0BA
:102C7000F9FA0346002B01D00323E5E0FB6821228B
:102C800083F84120FB68402283F84220FB68002241
:102C90005A64FB683A6A5A62FB68BA8C5A85FB68C8
:102CA00000225A63F8883A8979897B690193BB6A63
:102CB00000930346F86800F0F3F90346002B0FD0A9
:102CC000FB685B6C042B05D1FB68002283F8402075
:102CD0000123B9E0FB68002283F840200323B3E01E
:102CE000FB685B8D9BB2FF2B0ED9FB68FF221A8518
:102CF000FB681B8DDAB27989002300934FF0807353
:102D0000F86800F0C3FB0FE0FB685B8D9AB2FB68CC
:102D10001A85FB681B8DDAB27989002300934FF086
:102D20000073F86800F0B2FB7A69B96AF86800F0DD
:102D3000D3FA0346002B07D0FB685B6C042B01D150
:102D4000012381E003237FE0FB681A68FB685B6A6C
:102D5000581CF96848621B789362FB685B8D9BB2D4
:102D6000013B9AB2FB685A85FB681B8D013B9AB206
:102D7000FB681A85FB681B8D002B35D1FB685B8DCA
:102D80009BB2002B30D07B690093BB6A002280216C
:102D9000F86800F067FA0346002B01D0032353E0E4
:102DA000FB685B8D9BB2FF2B0ED9FB68FF221A8557
:102DB000FB681B8DDAB27989002300934FF0807392
:102DC000F86800F063FB0FE0FB685B8D9AB2FB686C
:102DD0001A85FB681B8DDAB27989002300934FF0C6
:102DE0000073F86800F052FBFB685B8D9BB2002B10
:102DF0009AD17A69B96AF86800F0AEFA0346002BF6
:102E000007D0FB685B6C042B01D101231CE003237A
:102E10001AE0FB681B682022DA61FB681A68FB680D
:102E20001B6859680A4B0B405360FB68202283F8EB
:102E30004120FB68002283F84220FB68002283F8CF
:102E40004020002300E0022318461837BD4680BD0D
:102E500000E800FE80B588B002AFF8600846114671
:102E60001A4603467B810B463B811346FB800023B9
:102E70007B61FB6893F84130DBB2202B40F0098185
:102E80003B6A002B02D0BB8C002B01D1012301E156
:102E9000FB6893F84030012B01D10223FAE0FB6874
:102EA000012283F84020FFF7CFF878617B69009317
:102EB000192301224FF40041F86800F0D3F90346CA
:102EC000002B01D00323E5E0FB68222283F8412098
:102ED000FB68402283F84220FB6800225A64FB68AA
:102EE0003A6A5A62FB68BA8C5A85FB6800225A63B8
:102EF000F8883A8979897B690193BB6A0093034614
:102F0000F86800F02DF90346002B0FD0FB685B6CCE
:102F1000042B05D1FB68002283F840200123B9E08F
:102F2000FB68002283F840200323B3E0FB685B8D3D
:102F30009BB2FF2B0FD9FB68FF221A85FB681B8D04
:102F4000DAB279894FF4105300934FF08073F86828
:102F500000F09CFA10E0FB685B8D9AB2FB681A8562
:102F6000FB681B8DDAB279894FF4105300934FF050
:102F70000073F86800F08AFA7B690093BB6A00224C
:102F80000421F86800F06EF90346002B01D00323FA
:102F900080E0FB685B6A591CFA685162FA68126843
:102FA000526AD2B21A70FB681B8D013B9AB2FB6861
:102FB0001A85FB685B8D9BB2013B9AB2FB685A8510
:102FC000FB681B8D002B35D1FB685B8D9BB2002B02
:102FD00030D07B690093BB6A00228021F86800F042
:102FE00041F90346002B01D0032353E0FB685B8DBE
:102FF0009BB2FF2B0ED9FB68FF221A85FB681B8D45
:10300000DAB27989002300934FF08073F86800F0FA
:103010003DFA0FE0FB685B8D9AB2FB681A85FB688E
:103020001B8DDAB27989002300934FF00073F868A2
:1030300000F02CFAFB685B8D9BB2002B9CD17A6967
:10304000B96AF86800F088F90346002B07D0FB68DE
:103050005B6C042B01D101231CE003231AE0FB6805
:103060001B682022DA61FB681A68FB681B685968D4
:103070000A4B0B405360FB68202283F84120FB6819
:10308000002283F84220FB68002283F840200023BE
:1030900000E0022318461837BD4680BD00E800FE58
:1030A00080B586B002AFF860084611461A4603465E
:1030B0007B810B463B811346FB80FB88DAB2798922
:1030C0004FF4005300934FF08073F86800F0DEF97E
:1030D000FA69B969F86800F0FFF80346002B07D0D9
:1030E000FB685B6C042B01D1012334E0032332E045
:1030F000FB88012B05D1FB681B683A89D2B29A6222
:103100001BE0FB681B683A89120A92B2D2B29A623B
:10311000FA69B969F86800F0DFF80346002B07D0B8
:10312000FB685B6C042B01D1012314E0032312E044
:10313000FB681B683A89D2B29A62FB690093BB694B
:1031400000228021F86800F08DF80346002B01D0A2
:10315000032300E0002318461037BD4680BD00BFA2
:1031600080B586B002AFF860084611461A4603469D
:103170007B810B463B811346FB80FB88DAB2798961
:103180004FF4005300930023F86800F07FF9FA69C8
:10319000B969F86800F0A0F80346002B07D0FB6877
:1031A0005B6C042B01D1012334E0032332E0FB8864
:1031B000012B05D1FB681B683A89D2B29A621BE0E9
:1031C000FB681B683A89120A92B2D2B29A62FA6913
:1031D000B969F86800F080F80346002B07D0FB6857
:1031E0005B6C042B01D1012314E0032312E0FB6884
:1031F0001B683A89D2B29A62FB690093BB690022CC
:103200004021F86800F02EF80346002B01D003237C
:1032100000E0002318461037BD4680BD80B483B05F
:1032200000AF78607B681B689B6903F00203002B8A
:1032300003D07B681B6800229A627B681B689B69CD
:1032400003F00103002B07D17B681B687A681268C2
:10325000926942F001029A6100BF0C37BD465DF8E9
:10326000047B704780B584B000AFF860B9603B6004
:103270001346FB711CE03B68B3F1FF3F18D03B687D
:10328000002B07D0FEF7E0FE0246BB69D21A3B686E
:103290009A420DD9FB68202283F84120FB68002266
:1032A00083F84220FB68002283F8402003230FE0CC
:1032B000FB681B689A69BB681A40BB689A420CBFDE
:1032C00001230023DBB21A46FB799A42D3D00023B4
:1032D00018461037BD4680BD80B584B000AFF86099
:1032E000B9607A602CE07A68B968F86800F070F824
:1032F0000346002B01D001232AE0BB68B3F1FF3F56
:103300001ED0BB68002B07D0FEF79EFE02467B68EE
:10331000D21ABB689A4213D9FB685B6C43F0200257
:10332000FB685A64FB68202283F84120FB68002276
:1033300083F84220FB68002283F84020032307E043
:10334000FB681B689B6903F00203002BCBD00023B2
:1033500018461037BD4680BD80B584B000AFF86018
:10336000B9607A6028E07A68B968F86800F030F8E7
:103370000346002B01D0012326E0BB68002B07D0B9
:10338000FEF762FE02467B68D21ABB689A4213D9E6
:10339000FB685B6C43F02002FB685A64FB682022E8
:1033A00083F84120FB68002283F84220FB6800225A
:1033B00083F84020032307E0FB681B689B6903F048
:1033C0002003002BCFD0002318461037BD4680BD08
:1033D00080B584B000AFF860B9607A60FB681B68A4
:1033E0009B6903F01003002B48D01CE0BB68B3F1CD
:1033F000FF3F18D0BB68002B07D0FEF725FE024622
:103400007B68D21ABB689A420DD9FB68202283F8E8
:103410004120FB68002283F84220FB68002283F8E9
:10342000402003232BE0FB681B689B6903F020030B
:10343000002BDBD0FB681B681022DA61FB681B687D
:103440002022DA61F868FFF7E9FEFB681A68FB687A
:103450001B6859680C4B0B405360FB6804225A648C
:10346000FB68202283F84120FB68002283F8422079
:10347000FB68002283F84020012300E00023184667
:103480001037BD4680BD00BF00E800FE80B487B0A5
:1034900000AFF8607B600B467B8113467B72002394
:1034A0007B61FB681B685B687B617A690D4B13402D
:1034B0007B617B89C3F309027B7A1B0403F47F03DE
:1034C0001A437B681A433B6A13437A6913437B614F
:1034D000FB681B687A695A6000BF1C37BD465DF8FF
:1034E000047B7047009800FC80B483B000AF786024
:1034F00039607B6893F84130DBB2202B38D17B6890
:1035000093F84030012B01D1022332E07B68012285
:1035100083F840207B68242283F841207B681B6865
:103520007A681268126822F001021A607B681B68D0
:103530007A681268126822F480521A607B681B68ED
:103540007A68126811683A680A431A607B681B68D7
:103550007A681268126842F001021A607B682022C1
:1035600083F841207B68002283F84020002300E09C
:10357000022318460C37BD465DF8047B704700BF38
:1035800090B5ADF5017D00AF3B1D18600023C7F875
:10359000F8313B1D1B681B6803F00103002B00F092
:1035A000E881B84B5B6803F00C03042B0CD0B54BDF
:1035B0005B6803F00C03082B40F08280B14B5B6822
:1035C00003F48033002B7BD04FF40033C7F8043171
:1035D000D7F8043193FAA3F207F580731A6007F560
:1035E00080731B68B3FA83F3DBB243F02003DBB2D2
:1035F000DBB25B09DBB2012B02D1A24B1B6839E0C5
:103600004FF40033C7F8D431D7F8D43193FAA3F28A
:1036100007F1FC031A6007F1FC031B68B3FA83F39C
:10362000DBB243F02003DBB2DBB25B09DBB2022B7F
:1036300002D1944B1B6A1DE04FF40033C7F8D03120
:10364000D7F8D03193FAA3F207F1F8031A6007F123
:10365000F8031B68B3FA83F3DBB243F02003DBB259
:10366000DBB25B09DBB2042B02D1864B5B6801E065
:10367000844B5B6A4FF40032C7F8CC21D7F8CC21D9
:1036800092FAA2F107F1F402116007F1F402126854
:10369000B2FA82F2D2B242F02002D2B2D2B202F038
:1036A0001F02D34003F00103002B00F061813B1D9A
:1036B0001B685B68002B40F05B81012301F01AB8A6
:1036C0003B1D1B685B68B3F5803F06D16D4A6D4BAF
:1036D0001B6843F48033136030E03B1D1B685B685C
:1036E000002B0CD1674A674B1B6823F480331360AF
:1036F000644A644B1B6823F4802313601EE03B1D67
:103700001B685B68B3F5A02F0CD15E4A5D4B1B684C
:1037100043F4802313605B4A5A4B1B6843F48033A5
:1037200013600BE0574A574B1B6823F48033136038
:10373000544A544B1B6823F4802313605149514B66
:10374000DB6A23F00F023B1D1B689B681343CB62AF
:103750003B1D1B685B68002B00F08380FEF774FC48
:10376000C7F8F8010AE0FEF76FFC0246D7F8F83117
:10377000D31A642B02D9032300F0BCBF4FF40033EB
:10378000C7F8C831D7F8C83193FAA3F207F1F003AC
:103790001A6007F1F0031B68B3FA83F3DBB243F05E
:1037A0002003DBB2DBB25B09DBB2012B02D1354B6C
:1037B0001B6839E04FF40033C7F8F431D7F8F4311F
:1037C00093FAA3F207F1EC031A6007F1EC031B680C
:1037D000B3FA83F3DBB243F02003DBB2DBB25B0965
:1037E000DBB2022B02D1274B1B6A1DE04FF40033E2
:1037F000C7F8F031D7F8F03193FAA3F207F1E803F4
:103800001A6007F1E8031B68B3FA83F3DBB243F0F5
:103810002003DBB2DBB25B09DBB2042B02D1194B14
:103820005B6801E0174B5B6A4FF40032C7F8EC218C
:10383000D7F8EC2192FAA2F107F1E402116007F146
:10384000E4021268B2FA82F2D2B242F02002D2B29C
:10385000D2B202F01F02D34003F00103002B82D04A
:1038600087E0FEF7F1FBC7F8F8010DE0FEF7ECFB8F
:103870000246D7F8F831D31A642B05D9032300F098
:1038800039BF00BF001002404FF40033C7F8E831E1
:10389000D7F8E83193FAA3F207F1E0031A6007F1D1
:1038A000E0031B68B3FA83F3DBB243F02003DBB21F
:1038B000DBB25B09DBB2012B02D1B64B1B6839E0EE
:1038C0004FF40033C7F8E431D7F8E43193FAA3F2A8
:1038D00007F1DC031A6007F1DC031B68B3FA83F31A
:1038E000DBB243F02003DBB2DBB25B09DBB2022BBD
:1038F00002D1A84B1B6A1DE04FF40033C7F8E0313A
:10390000D7F8E03193FAA3F207F1D8031A6007F170
:10391000D8031B68B3FA83F3DBB243F02003DBB2B6
:10392000DBB25B09DBB2042B02D19A4B5B6801E08E
:10393000984B5B6A4FF40032C7F8DC21D7F8DC21E2
:1039400092FAA2F107F1D402116007F1D4021268D1
:10395000B2FA82F2D2B242F02002D2B2D2B202F075
:103960001F02D34003F00103002B7FF47FAF00E080
:1039700000BF3B1D1B681B6803F00203002B00F017
:10398000F481844B5B6803F00C03002B0DD0814B5A
:103990005B6803F00C03082B40F099807D4B5B685B
:1039A00003F48033002B40F092800223C7F8D83113
:1039B000D7F8D83193FAA3F207F1D0031A6007F1D0
:1039C000D0031B68B3FA83F3DBB243F02003DBB20E
:1039D000DBB25B09DBB2012B02D16E4B1B6837E017
:1039E0000223C7F89831D7F8983193FAA3F207F178
:1039F000CC031A6007F1CC031B68B3FA83F3DBB284
:103A000043F02003DBB2DBB25B09DBB2022B02D155
:103A1000604B1B6A1CE00223C7F89431D7F894313D
:103A200093FAA3F207F1C8031A6007F1C8031B68F1
:103A3000B3FA83F3DBB243F02003DBB2DBB25B0902
:103A4000DBB2042B02D1534B5B6801E0514B5B6A44
:103A50000222C7F89021D7F8902192FAA2F107F13B
:103A6000C402116007F1C4021268B2FA82F2D2B243
:103A700042F02002D2B2D2B202F01F02D34003F0D1
:103A80000103002B07D03B1D1B681B69012B02D0D3
:103A9000012300F02FBE3F4C3E4B1B6823F0F80281
:103AA0003B1D1B685969F823C7F88C31D7F88C3156
:103AB00093FAA3F007F1C003186007F1C0031B6875
:103AC000B3FA83F301FA03F3134323604DE13B1D83
:103AD0001B681B69002B00F0B3800123C7F88831F5
:103AE000D7F8883193FAA3F207F1BC031A6007F103
:103AF000BC031B68B3FA83F39B0003F1844303F513
:103B000084031A4601231360FEF79EFAC7F8F801F2
:103B10000AE0FEF799FA0246D7F8F831D31A022BD9
:103B200002D9032300F0E6BD0223C7F8C431D7F859
:103B3000C43193FAA3F207F1B8031A6007F1B8038E
:103B40001B68B3FA83F3DBB243F02003DBB2DBB2D2
:103B50005B09DBB2012B02D10E4B1B6839E002235B
:103B6000C7F8C031D7F8C03193FAA3F207F1B40314
:103B70001A6007F1B4031B68B3FA83F3DBB243F0B6
:103B80002003DBB2DBB25B09DBB2022B04D1014BB9
:103B90001B6A1EE0001002400223C7F8BC31D7F8B0
:103BA000BC3193FAA3F207F1B0031A6007F1B00336
:103BB0001B68B3FA83F3DBB243F02003DBB2DBB262
:103BC0005B09DBB2042B02D1B94B5B6801E0B84B57
:103BD0005B6A0222C7F8B821D7F8B82192FAA2F19D
:103BE00007F1AC02116007F1AC021268B2FA82F27E
:103BF000D2B242F02002D2B2D2B202F01F02D340BF
:103C000003F00103002B84D0A94CA94B1B6823F0BF
:103C1000F8023B1D1B685969F823C7F8B431D7F87F
:103C2000B43193FAA3F007F1A803186007F1A803D1
:103C30001B68B3FA83F301FA03F31343236094E0A0
:103C40000123C7F8B031D7F8B03193FAA3F207F1E6
:103C5000A4031A6007F1A4031B68B3FA83F39B0063
:103C600003F1844303F584031A4600231360FEF72F
:103C7000EBF9C7F8F8010AE0FEF7E6F90246D7F8D3
:103C8000F831D31A022B02D9032300F033BD0223EB
:103C9000C7F8AC31D7F8AC3193FAA3F207F1A0031F
:103CA0001A6007F1A0031B68B3FA83F3DBB243F099
:103CB0002003DBB2DBB25B09DBB2012B02D17C4B10
:103CC0001B6837E00223C7F8A831D7F8A83193FA68
:103CD000A3F207F19C031A6007F19C031B68B3FA77
:103CE00083F3DBB243F02003DBB2DBB25B09DBB270
:103CF000022B02D16E4B1B6A1CE00223C7F8A431D1
:103D0000D7F8A43193FAA3F207F198031A6007F1E8
:103D100098031B68B3FA83F3DBB243F02003DBB2F2
:103D2000DBB25B09DBB2042B02D1614B5B6801E0C3
:103D30005F4B5B6A0222C7F8A021D7F8A02192FA54
:103D4000A2F107F19402116007F194021268B2FA2D
:103D500082F2D2B242F02002D2B2D2B202F01F02FC
:103D6000D34003F00103002B86D13B1D1B681B6869
:103D700003F00803002B00F032813B1D1B689B6998
:103D8000002B00F099800123C7F89C31D7F89C31B3
:103D900093FAA3F207F190031A6007F190031B68EE
:103DA000B3FA83F39B001A46424B13441A4601238D
:103DB0001360FEF749F9C7F8F8010AE0FEF744F985
:103DC0000246D7F8F831D31A022B02D9032300F0A8
:103DD00091BC0223C7F88431D7F8843193FAA3F257
:103DE00007F18C031A6007F18C031B68B3FA83F3A5
:103DF000DBB243F06003DBB2DBB25B09DBB2012B69
:103E000002D12B4B1B6837E00223C7F88031D7F86B
:103E1000803193FAA3F207F188031A6007F188034F
:103E20001B68B3FA83F3DBB243F06003DBB2DBB2AF
:103E30005B09DBB2022B02D11D4B1B6A1CE0022383
:103E4000C7F87C31D7F87C3193FAA3F207F18403E9
:103E50001A6007F184031B68B3FA83F3DBB243F003
:103E60006003DBB2DBB25B09DBB2042B02D1104B87
:103E70005B6801E00E4B5B6A0222C7F87821D7F835
:103E8000782192FAA2F107F18002116007F1800215
:103E90001268B2FA82F2D2B242F06002D2B2D2B268
:103EA00002F01F02D34003F00103002B86D096E0FE
:103EB00000100240800442420123C7F87431D7F851
:103EC000743193FAA3F207F17C031A6007F17C03C3
:103ED0001B68B3FA83F39B001A46B54B13441A468A
:103EE00000231360FEF7B0F8C7F8F80109E0FEF709
:103EF000ABF80246D7F8F831D31A022B01D90323C5
:103F0000F8E30223C7F87031D7F8703193FAA3F2BF
:103F100007F178031A6007F178031B68B3FA83F39B
:103F2000DBB243F06003DBB2DBB25B09DBB2012B37
:103F300002D1A04B1B6837E00223C7F86C31D7F8D9
:103F40006C3193FAA3F207F174031A6007F174035A
:103F50001B68B3FA83F3DBB243F06003DBB2DBB27E
:103F60005B09DBB2022B02D1924B1B6A1CE00223DD
:103F7000C7F86831D7F8683193FAA3F207F17003F4
:103F80001A6007F170031B68B3FA83F3DBB243F0E6
:103F90006003DBB2DBB25B09DBB2042B02D1854BE1
:103FA0005B6801E0834B5B6A0222C7F86421D7F8A3
:103FB000642192FAA2F107F16C02116007F16C0220
:103FC0001268B2FA82F2D2B242F06002D2B2D2B237
:103FD00002F01F02D34003F00103002B87D13B1DE9
:103FE0001B681B6803F00403002B00F08F81002383
:103FF00087F8FF316F4BDB6903F08053002B12D140
:104000006C4A6C4BDB6943F08053D361694BDB69CD
:1040100003F0805207F10C031A6007F10C031B68D0
:10402000012387F8FF31644B1B6803F48073002B76
:104030001AD1614A604B1B6843F480731360FEF72A
:1040400003F8C7F8F80109E0FDF7FEFF0246D7F8CC
:10405000F831D31A642B01D903234BE3564B1B6869
:1040600003F48073002BEFD03B1D1B68DB68012B32
:1040700006D1504A4F4B1B6A43F0010313622FE0F5
:104080003B1D1B68DB68002B0CD14A4A494B1B6A5D
:1040900023F001031362474A464B1B6A23F00403D3
:1040A00013621DE03B1D1B68DB68052B0CD1414AE8
:1040B000404B1B6A43F0040313623E4A3D4B1B6AAC
:1040C00043F0010313620BE03A4A3A4B1B6A23F0B8
:1040D00001031362374A374B1B6A23F00403136250
:1040E0003B1D1B68DB68002B00F08780FDF7ACFFF1
:1040F000C7F8F8010BE0FDF7A7FF0246D7F8F83143
:10410000D31A41F28832934201D90323F2E2022307
:10411000C7F86031D7F8603193FAA3F207F168036A
:104120001A6007F168031B68B3FA83F3DBB243F04C
:104130004003DBB2DBB25B09DBB2012B02D11D4BCA
:104140001B683DE00223C7F85C31D7F85C3193FA75
:10415000A3F207F164031A6007F164031B68B3FA62
:1041600083F3DBB243F04003DBB2DBB25B09DBB2CB
:10417000022B02D10F4B1B6A22E00223C7F85831F1
:10418000D7F8583193FAA3F207F160031A6007F1E8
:1041900060031B68B3FA83F3DBB243F04003DBB286
:1041A000DBB25B09DBB2042B08D1024B5B6807E092
:1041B000800442420010024000700040BF4B5B6A26
:1041C0000222C7F85421D7F8542192FAA2F107F13C
:1041D0005C02116007F15C021268B2FA82F2D2B29C
:1041E00042F04002D2B2D2B202F01F02D34003F03A
:1041F0000103002B3FF47FAF7EE0FDF725FFC7F8FA
:10420000F8010BE0FDF720FF0246D7F8F831D31A8A
:1042100041F28832934201D903236BE20223C7F8AB
:104220005031D7F8503193FAA3F207F158031A60CE
:1042300007F158031B68B3FA83F3DBB243F0400382
:10424000DBB2DBB25B09DBB2012B02D19B4B1B68FB
:1042500037E00223C7F84C31D7F84C3193FAA3F278
:1042600007F154031A6007F154031B68B3FA83F390
:10427000DBB243F04003DBB2DBB25B09DBB2022B03
:1042800002D18E4B1B6A1CE00223C7F84831D7F8D5
:10429000483193FAA3F207F150031A6007F1500373
:1042A0001B68B3FA83F3DBB243F04003DBB2DBB24B
:1042B0005B09DBB2042B02D1804B5B6801E07F4BD2
:1042C0005B6A0222C7F84421D7F8442192FAA2F18E
:1042D00007F14C02116007F14C021268B2FA82F247
:1042E000D2B242F04002D2B2D2B202F01F02D340A8
:1042F00003F00103002B85D197F8FF31012B05D185
:104300006E4A6E4BDB6923F08053D3613B1D1B6803
:10431000DB69002B00F0ED81684B5B6803F00C0358
:10432000082B00F0E4813B1D1B68DB69022B40F089
:1043300044814FF08073C7F84031D7F8403193FA89
:10434000A3F207F148031A6007F148031B68B3FAA8
:1043500083F39B0003F1844303F584031A4600238F
:104360001360FDF771FEC7F8F80109E0FDF76CFE78
:104370000246D7F8F831D31A022B01D90323B9E149
:104380004FF00073C7F83C31D7F83C3193FAA3F2F1
:1043900007F144031A6007F144031B68B3FA83F37F
:1043A000DBB243F02003DBB2DBB25B09DBB2012BF3
:1043B00002D1424B1B6839E04FF00073C7F8383127
:1043C000D7F8383193FAA3F207F140031A6007F1E6
:1043D00040031B68B3FA83F3DBB243F02003DBB284
:1043E000DBB25B09DBB2022B02D1344B1B6A1DE04E
:1043F0004FF00073C7F83431D7F8343193FAA3F291
:1044000007F13C031A6007F13C031B68B3FA83F31E
:10441000DBB243F02003DBB2DBB25B09DBB2042B7F
:1044200002D1264B5B6801E0244B5B6A4FF00072BF
:10443000C7F83021D7F8302192FAA2F107F13802FB
:10444000116007F138021268B2FA82F2D2B242F079
:104450002002D2B2D2B202F01F02D34003F0010315
:10446000002B83D11548154B5B6823F474123B1D58
:104470001B68596A3B1D1B681B6A0B43134343604F
:104480004FF08073C7F82C31D7F82C3193FAA3F290
:1044900007F134031A6007F134031B68B3FA83F39E
:1044A0009B0003F1844303F584031A460123136040
:1044B000FDF7CAFDC7F8F8010CE000BF001002408C
:1044C000FDF7C2FD0246D7F8F831D31A022B01D905
:1044D00003230FE14FF00073C7F82831D7F82831D4
:1044E00093FAA3F207F130031A6007F130031B6857
:1044F000B3FA83F3DBB243F02003DBB2DBB25B0938
:10450000DBB2012B02D17E4B1B6839E04FF0007308
:10451000C7F82431D7F8243193FAA3F207F12C031A
:104520001A6007F12C031B68B3FA83F3DBB243F084
:104530002003DBB2DBB25B09DBB2022B02D1704B92
:104540001B6A1DE04FF00073C7F82031D7F8203107
:1045500093FAA3F207F128031A6007F128031B68F6
:10456000B3FA83F3DBB243F02003DBB2DBB25B09C7
:10457000DBB2042B02D1624B5B6801E0604B5B6AEB
:104580004FF00072C7F81C21D7F81C2192FAA2F153
:1045900007F12402116007F124021268B2FA82F2D4
:1045A000D2B242F02002D2B2D2B202F01F02D34005
:1045B00003F00103002B83D09BE04FF08073C7F81A
:1045C0001831D7F8183193FAA3F207F120031A60D3
:1045D00007F120031B68B3FA83F39B0003F18443C4
:1045E00003F584031A4600231360FDF72DFDC7F879
:1045F000F80109E0FDF728FD0246D7F8F831D31A93
:10460000022B01D9032375E04FF00073C7F8143172
:10461000D7F8143193FAA3F207F11C031A6007F1DB
:104620001C031B68B3FA83F3DBB243F02003DBB255
:10463000DBB25B09DBB2012B02D1314B1B6839E0E5
:104640004FF00073C7F81031D7F8103193FAA3F286
:1046500007F118031A6007F118031B68B3FA83F314
:10466000DBB243F02003DBB2DBB25B09DBB2022B2F
:1046700002D1234B1B6A1DE04FF00073C7F80C31C9
:10468000D7F80C3193FAA3F207F114031A6007F17B
:1046900014031B68B3FA83F3DBB243F02003DBB2ED
:1046A000DBB25B09DBB2042B02D1154B5B6801E086
:1046B000134B5B6A4FF00072C7F80821D7F8082146
:1046C00092FAA2F107F11002116007F110021268CC
:1046D000B2FA82F2D2B242F02002D2B2D2B202F0E8
:1046E0001F02D34003F00103002B83D101E001231B
:1046F00000E00023184607F50177BD4690BD00BFD6
:104700000010024080B59EB000AF78603960002391
:104710007B67A34B1B6803F007023B689A4210D2E9
:104720009F499F4B1B6823F007023B6813430B60B4
:104730009B4B1B6803F007023B689A4201D00123A0
:10474000D0E17B681B6803F00203002B08D0954979
:10475000944B5B6823F0F0027B689B6813434B60CB
:104760007B681B6803F00103002B00F068817B6805
:104770005B68012B5CD14FF400333B643B6C93FAD4
:10478000A3F3FB63FB6BB3FA83F3DBB243F02003C9
:10479000DBB2DBB25B09DBB2012B02D1814B1B68C0
:1047A0002DE04FF400333B673B6F93FAA3F3BB63F9
:1047B000BB6BB3FA83F3DBB243F02003DBB2DBB2B3
:1047C0005B09DBB2022B02D1764B1B6A17E04FF478
:1047D0000033FB66FB6E93FAA3F37B637B6BB3FA48
:1047E00083F3DBB243F02003DBB2DBB25B09DBB265
:1047F000042B02D16B4B5B6801E06A4B5B6A4FF4A0
:104800000032BA66BA6E92FAA2F23A633A6BB2FA20
:1048100082F2D2B242F02002D2B2D2B202F01F0231
:10482000D34003F00103002B40F0BE80012359E187
:104830007B685B68022B5BD14FF000737B667B6EFD
:1048400093FAA3F3FB62FB6AB3FA83F3DBB243F0A0
:104850002003DBB2DBB25B09DBB2012B02D1514B8F
:104860001B682DE04FF000733B663B6E93FAA3F399
:10487000BB62BB6AB3FA83F3DBB243F02003DBB263
:10488000DBB25B09DBB2022B02D1464B1B6A17E09D
:104890004FF00073FB65FB6D93FAA3F37B627B6AB9
:1048A000B3FA83F3DBB243F02003DBB2DBB25B0984
:1048B000DBB2042B02D13B4B5B6801E0394B5B6AF6
:1048C0004FF00072BA65BA6D92FAA2F23A623A6A91
:1048D000B2FA82F2D2B242F02002D2B2D2B202F0E6
:1048E0001F02D34003F00103002B5DD10123F9E047
:1048F00002237B657B6D93FAA3F3FB61FB69B3FA3B
:1049000083F3DBB243F02003DBB2DBB25B09DBB243
:10491000012B02D1234B1B682BE002233B653B6D2F
:1049200093FAA3F3BB61BB69B3FA83F3DBB243F041
:104930002003DBB2DBB25B09DBB2022B02D1194BE5
:104940001B6A16E00223FB64FB6C93FAA3F37B6102
:104950007B69B3FA83F3DBB243F02003DBB2DBB253
:104960005B09DBB2042B02D10E4B5B6801E00D4BFF
:104970005B6A0222BA64BA6C92FAA2F23A613A69AC
:10498000B2FA82F2D2B242F02002D2B2D2B202F035
:104990001F02D34003F00103002B05D10123A1E046
:1049A00000200240001002405049504B5B6823F049
:1049B00003027B685B6813434B60FDF745FB786738
:1049C0007B685B68012B12D10AE0FDF73DFB0246D4
:1049D0007B6FD31A41F28832934201D9032381E0DD
:1049E000424B5B6803F00C03042BEED127E07B689D
:1049F0005B68022B1DD10AE0FDF726FB02467B6FA8
:104A0000D31A41F28832934201D903236AE0374B2B
:104A10005B6803F00C03082BEED110E0FDF714FBEC
:104A200002467B6FD31A41F28832934201D90323A5
:104A300058E02E4B5B6803F00C03002BEED12C4B9F
:104A40001B6803F007023B689A4210D92849284B9B
:104A50001B6823F007023B6813430B60244B1B6861
:104A600003F007023B689A4201D001233AE07B68D9
:104A70001B6803F00403002B08D01C491B4B5B6828
:104A800023F4E0627B68DB6813434B607B681B6840
:104A900003F00803002B09D01449144B5B6823F47E
:104AA00060527B681B69DB0013434B6000F026F803
:104AB00001460E4B5B6803F0F002F0237B647B6CD5
:104AC00093FAA3F3FB60FB68B3FA83F322FA03F3D0
:104AD000084AD35C21FA03F3074A13600020FDF76C
:104AE00089FA002318467837BD4680BD0010024081
:104AF00000200240FC9D00082C04002080B48BB0F4
:104B000000AF0023FB610023BB6100237B62002315
:104B10007B6100233B62294B5B68FB61FB6903F00F
:104B20000C03042B02D0082B03D03CE0244B3B6247
:104B30003CE0FB6903F470124FF470133B613B6976
:104B400093FAA3F37B607B68B3FA83F322FA03F34F
:104B50001C4AD35C7B61194BDB6A03F00F020F2305
:104B6000FB60FB6893FAA3F3BB60BB68B3FA83F303
:104B700022FA03F3144AD35CBB61FB6903F480336C
:104B8000002B08D00E4ABB69B2FBF3F37A6902FB33
:104B900003F37B6204E07B690C4A02FB03F37B6254
:104BA0007B6A3B6202E0064B3B6200BF3B6A1846F1
:104BB0002C37BD465DF8047B704700BF00100240F3
:104BC00000127A00149E0008249E000800093D008F
:104BD00080B400AF034B1B681846BD465DF8047BEC
:104BE000704700BF2C04002080B582B000AFFFF7F3
:104BF000EFFF01460B4B5B6803F4E0624FF4E063A8
:104C00007B607B6893FAA3F33B603B68B3FA83F362
:104C100022FA03F3044AD35C21FA03F31846083757
:104C2000BD4680BD001002400C9E000880B582B0D9
:104C300000AFFFF7CDFF01460B4B5B6803F46052FA
:104C40004FF460537B607B6893FAA3F33B603B684F
:104C5000B3FA83F322FA03F3044AD35C21FA03F391
:104C600018460837BD4680BD001002400C9E000863
:104C700080B592B000AF786000233B640023FB63F3
:104C80007B681B6803F48033002B00F0EF80002367
:104C900087F84730964BDB6903F08053002B0ED129
:104CA000934A934BDB6943F08053D361904BDB69AC
:104CB00003F08053BB60BB68012387F847308D4BFE
:104CC0001B6803F48073002B18D18A4A894B1B6838
:104CD00043F480731360FDF7B7F9386408E0FDF71B
:104CE000B3F902463B6CD31A642B01D90323FAE0D3
:104CF000804B1B6803F48073002BF0D07C4B1B6A45
:104D000003F44073FB63FB6B002B00F09C807B681B
:104D10005B6803F44072FB6B9A4200F09480744B22
:104D20001B6A23F44073FB634FF480337B637B6B1C
:104D300093FAA3F3FB61FB69B3FA83F39B001A4672
:104D40006D4B13441A46012313604FF480337B628A
:104D50007B6A93FAA3F33B623B6AB3FA83F39B004B
:104D60001A46654B13441A4600231360604AFB6BD6
:104D70001362FB6B03F00103002B64D0FDF764F9B1
:104D800038640AE0FDF760F902463B6CD31A41F241
:104D90008832934201D90323A5E00223BB63BB6B96
:104DA00093FAA3F3BB61BB69B3FA83F3DBB243F0BD
:104DB0004003DBB2DBB25B09DBB2012B02D14C4B0F
:104DC0001B682BE002233B633B6B93FAA3F37B61ED
:104DD0007B69B3FA83F3DBB243F04003DBB2DBB2AF
:104DE0005B09DBB2022B02D1414B1B6A16E00223A6
:104DF000FB62FB6A93FAA3F33B613B69B3FA83F36B
:104E0000DBB243F04003DBB2DBB25B09DBB2042B65
:104E100002D1374B5B6801E0354B5B6A0222BA6214
:104E2000BA6A92FAA2F2FA60FA68B2FA82F2D2B2DE
:104E300042F04002D2B2D2B202F01F02D34003F0DD
:104E40000103002B9ED02A49294B1B6A23F4407290
:104E50007B685B6813430B6297F84730012B05D1E1
:104E6000234A234BDB6923F08053D3617B681B68A3
:104E700003F00103002B08D01D491D4B1B6B23F0D1
:104E800003027B689B6813430B637B681B6803F01A
:104E90002003002B08D01649154B1B6B23F0100282
:104EA0007B68DB6813430B637B681B6803F080033C
:104EB000002B08D00E490E4BDB6A23F4F8727B6896
:104EC0001B691343CB627B681B6803F48053002B80
:104ED00008D00749064B1B6B23F480727B685B6923
:104EE00013430B63002318464837BD4680BD00BFFF
:104EF00000100240007000400004424280B582B0C1
:104F000000AF78607B68002B01D1012343E07B6810
:104F100093F86930DBB2002B06D17B68002283F85E
:104F200068207868FCF7CCFF7B68242283F869202E
:104F30007B681B687A681268126822F001021A60A6
:104F4000786800F095F90346012B01D1012322E096
:104F50007B685B6A002B02D0786800F0EFFA7B6810
:104F60001B687A681268526822F490425A607B6823
:104F70001B687A681268926822F02A029A607B683D
:104F80001B687A681268126842F001021A60786839
:104F900000F076FB034618460837BD4680BD00BFCB
:104FA00080B586B000AFF860B9603B601346FB8007
:104FB000FB6893F86930DBB2202B6ED1BB68002B05
:104FC00002D0FB88002B01D1012367E0FB6893F836
:104FD0006830012B01D1022360E0FB68012283F8D5
:104FE0006820FB680022DA66FB68212283F86920CA
:104FF000FB68FA88A3F85020FB68FA88A3F85220CF
:1050000031E0FB68B3F85230013B9AB2FB68A3F879
:1050100052203B6800228021F86800F071FB0346B3
:10502000002B01D0032339E0FB689B68B3F5805F58
:1050300011D1FB681B69002B0DD1BB687B61FB683C
:105040001B687A691288C2F3080292B21A85BB689B
:105050000233BB6007E0FB681A68BB68591CB96083
:105060001B789BB21385FB68B3F85230002BC8D174
:105070003B6800224021F86800F042FB0346002B09
:1050800001D003230AE0FB68202283F86920FB6833
:10509000002283F86820002300E002231846183716
:1050A000BD4680BD80B582B000AF78607B681B686C
:1050B000DB6903F00103002B10D07B681B681B68C1
:1050C00003F48073002B09D07B681B6801221A62ED
:1050D0007B68DB6E43F001027B68DA667B681B68E5
:1050E000DB6903F00203002B10D07B681B689B6810
:1050F00003F00103002B09D07B681B6802221A62AF
:105100007B68DB6E43F004027B68DA667B681B68B1
:10511000DB6903F00403002B10D07B681B689B68DD
:1051200003F00103002B09D07B681B6804221A627C
:105130007B68DB6E43F002027B68DA667B681B6883
:10514000DB6903F00803002B10D07B681B689B68A9
:1051500003F00103002B09D07B681B6808221A6248
:105160007B68DB6E43F008027B68DA667B681B684D
:10517000DB6903F48013002B16D07B681B689B68E7
:1051800003F48003002B0FD07B681B684FF4801260
:105190001A627B68202283F869207B68202283F8CA
:1051A0006A20786800F030FC7B681B68DB6903F0DC
:1051B0002003002B09D07B681B681B6803F02003C9
:1051C000002B02D0786800F0A9FB7B681B68DB69C4
:1051D00003F08003002B09D07B681B681B6803F079
:1051E0008003002B02D0786800F02AFB7B681B68E4
:1051F000DB6903F04003002B09D07B681B681B6848
:1052000003F04003002B02D0786800F06FFB7B684E
:10521000DB6E002B0AD07B68202283F869207B6834
:10522000202283F86A20786800F018F800BF083759
:10523000BD4680BD80B483B000AF786000BF0C373E
:10524000BD465DF8047B704780B483B000AF7860E2
:1052500000BF0C37BD465DF8047B704780B483B057
:1052600000AF786000BF0C37BD465DF8047B704727
:1052700090B587B000AF78600023FB601023FB750A
:1052800000237B810023BB820023FB747B689A6828
:105290007B681B691A437B685B691A437B68DB691F
:1052A0001343FB607B681A687B681B6819689E4B18
:1052B0000B40F9680B4313607B681B687A681268BF
:1052C000526822F440517A68D2680A435A607B6877
:1052D0009A697B681B6A1343FB607B681B687A686A
:1052E0001268926822F43061FA680A439A607B6817
:1052F0001B688E4A934221D18D4B1B6B03F0030335
:10530000032B17D801A252F823F000BF1D53000849
:10531000295300082F530008235300080023FB756E
:105320001EE00223FB751BE00423FB7518E0082335
:10533000FB7515E01023FB7500BF11E07B681B684F
:105340007C4A934202D10023FB7509E07B681B680D
:10535000794A934202D10023FB7501E01023FB75CB
:105360007B68DB69B3F5004F70D1FB7D082B57D804
:1053700001A252F823F000BF9D530008B953000862
:10538000D553000821540008EF53000821540008A9
:1053900021540008215400080B540008FFF724FC96
:1053A00003465A007B685B685B081A447B685B684D
:1053B000B2FBF3F3BB8236E0FFF738FC03465A003A
:1053C0007B685B685B081A447B685B68B2FBF3F33D
:1053D000BB8228E07B685B685B0803F5740303F518
:1053E00010537A685268B3FBF2F3BB821BE0FFF7FD
:1053F00085FB03465A007B685B685B081A447B6840
:105400005B68B2FBF3F3BB820DE07B685B685B0813
:1054100003F580327B685B68B2FBF3F3BB8202E08A
:105420000123FB7400BFBB8A23F00F037B81BB8A7F
:105430005B109BB203F007039AB27B8913439BB2C4
:105440007B817B681B687A89DA6068E0FB7D082BCA
:1054500062D801A252F823F07D5400089D54000840
:10546000BD54000819550008DD54000819550008FE
:105470001955000819550008FD5400087B681C6880
:10548000FFF7B2FB02467B685B685B081A447B68E7
:105490005B68B2FBF3F39BB2E36040E07B681C689F
:1054A000FFF7C4FB02467B685B685B081A447B68B5
:1054B0005B68B2FBF3F39BB2E36030E07B681A6891
:1054C0007B685B685B0803F5F40303F59053796828
:1054D0004968B3FBF1F39BB2D36020E07B681C68A2
:1054E000FFF70CFB02467B685B685B081A447B682D
:1054F0005B68B2FBF3F39BB2E36010E07B681B6870
:105500007A685268520802F500417A685268B1FB25
:10551000F2F292B2DA6002E00123FB7400BFFB7C7E
:1055200018461C37BD4690BDF369FFEF00380140B7
:1055300000100240004400400048004080B483B0A6
:1055400000AF78607B685B6A03F00103002B0AD030
:105550007B681B687A681268526822F400317A68A6
:10556000926A0A435A607B685B6A03F00203002B6D
:105570000AD07B681B687A681268526822F480310E
:105580007A68D26A0A435A607B685B6A03F0040354
:10559000002B0AD07B681B687A681268526822F474
:1055A00080217A68126B0A435A607B685B6A03F059
:1055B0000803002B0AD07B681B687A68126852685F
:1055C00022F400417A68526B0A435A607B685B6A36
:1055D00003F01003002B0AD07B681B687A681268FE
:1055E000926822F480517A68926B0A439A607B68D1
:1055F0005B6A03F02003002B0AD07B681B687A6883
:105600001268926822F400517A68D26B0A439A6059
:105610007B685B6A03F04003002B1AD07B681B6831
:105620007A681268526822F480117A68126C0A4310
:105630005A607B681B6CB3F5801F0AD17B681B68BE
:105640007A681268526822F4C0017A68526C0A4380
:105650005A607B685B6A03F08003002B0AD07B688A
:105660001B687A681268526822F400217A68926C8A
:105670000A435A6000BF0C37BD465DF8047B704793
:1056800080B582B000AF78607B680022DA667B6804
:105690001B681B6803F00803002B0CD04FF47A73CF
:1056A00000224FF40011786800F02AF80346002B1E
:1056B00001D0032320E07B681B681B6803F0040310
:1056C000002B0CD04FF47A7300224FF480017868DD
:1056D00000F016F80346002B01D003230CE07B6892
:1056E000202283F869207B68202283F86A207B6867
:1056F000002283F86820002318460837BD4680BD85
:1057000080B586B000AFF860B9603B601346FB71AE
:10571000FCF79AFC7861FB79002B40F084803CE038
:105720003B68B3F1FF3F38D03B68002B07D0FCF754
:105730008BFC02467B69D21A3B689A422DD9FB68E2
:105740001B68FA681268126822F080021A60FB680F
:105750001B68FA681268126822F020021A60FB685F
:105760001B68FA681268126822F480721A60FB687B
:105770001B68FA681268926822F001029A60FB685E
:10578000202283F86920FB68202283F86A20FB68C6
:10579000002283F8682003234EE0FB681B68DA6967
:1057A000BB681A40BB689A42BAD144E03B68B3F187
:1057B000FF3F38D03B68002B07D0FCF745FC024682
:1057C0007B69D21A3B689A422DD9FB681B68FA683C
:1057D0001268126822F080021A60FB681B68FA687F
:1057E0001268126822F020021A60FB681B68FA68CF
:1057F0001268126822F480721A60FB681B68FA68EB
:105800001268926822F001029A60FB68202283F8F5
:105810006920FB68202283F86A20FB68002283F855
:105820006820032308E0FB681B68DA69BB681A403C
:10583000BB689A42BAD0002318461837BD4680BDCF
:1058400080B485B000AF78607B6893F86930DBB2D4
:10585000212B44D17B68B3F85230002B11D17B68E7
:105860001B687A681268126822F080021A607B68EE
:105870001B687A681268126842F040021A600023BE
:105880002EE07B689B68B3F5805F14D17B681B6951
:10589000002B10D17B68DB6CFB607B681B68FA68AF
:1058A0001288C2F3080292B21A857B68DB6C9A1CDC
:1058B0007B68DA6409E07B681A687B68DB6C581CDB
:1058C0007968C8641B789BB213857B68B3F8523043
:1058D000013B9AB27B68A3F85220002300E0022328
:1058E00018461437BD465DF8047B704780B582B01A
:1058F00000AF78607B681B687A681268126822F0D3
:1059000040021A607B68202283F869207868FFF7DC
:1059100091FC002318460837BD4680BD80B584B091
:1059200000AF78607B68B3F85C30FB817B6893F8EC
:105930006A30DBB2222B59D17B689B68B3F5805F5C
:1059400015D17B681B69002B11D17B685B6DBB6037
:105950007B681B689B8C9AB2FB8913409AB2BB6828
:105960001A807B685B6D9A1C7B685A650EE07B68C9
:105970005B6D591C7A6851657A681268928C92B294
:10598000D1B2FA89D2B20A40D2B21A707B68B3F8A7
:105990005A30013B9AB27B68A3F85A207B68B3F86F
:1059A0005A30002B20D17B681B687A681268126815
:1059B00022F020021A607B681B687A6812681268FD
:1059C00022F480721A607B681B687A681268926899
:1059D00022F001029A607B68202283F86A207868AE
:1059E000FFF732FC00230AE0002308E07B681B6815
:1059F0007A681268926942F008029A610223184696
:105A00001037BD4680BD00BF80B483B000AF786062
:105A100000BF0C37BD465DF8047B704780B582B08F
:105A200000AF78607B68002B01D101231DE07B680B
:105A300093F83930DBB2002B06D17B68002283F863
:105A400038207868FCF716FA7B68022283F8392040
:105A50007B681A687B6804331946104600F0DAFA4E
:105A60007B68012283F83920002318460837BD4699
:105A700080BD00BF80B483B000AF78607B681B68D6
:105A80007A681268D26842F00102DA607B681B68AB
:105A90007A681268126842F001021A600023184600
:105AA0000C37BD465DF8047B704700BF80B586B0FB
:105AB00000AF7860396000237B6100233B610023E5
:105AC000FB607B68002B01D1012383E07B6893F8A6
:105AD0003930DBB2002B06D17B68002283F83820F6
:105AE0007868FCF797F97B68022283F839207B6895
:105AF0001A687B681B689B6823F4803323F00703D4
:105B000093607B681A687B6804331946104600F07E
