:020000040800F2
:100000000030002011130008B5180008C5180008BA
:10001000CD180008D5180008DD1800080000000001
:10002000000000000000000000000000E5180008CB
:10003000F51800080000000005190008151900084F
:1000400061130008611300086113000861130008C0
:1000500061130008611300086113000861130008B0
:1000600061130008611300086113000861130008A0
:100070006113000825190008391900084D190008F6
:100080006113000861130008611300086113000880
:100090006113000861130008611300086113000870
:1000A0006113000861130008611300086113000860
:1000B00061130008611300080000000061190008C6
:1000C000751900080000000000000000611300081E
:1000D00000000000611300086113000861130008AC
:1000E0006113000861130008000000000000000018
:1000F0000000000000000000000000000000000000
:1001000000000000000000000000000000000000EF
:1001100000000000000000006113000861130008E7
:1001200000000000000000000000000000000000CF
:1001300000000000000000000000000000000000BF
:1001400061130008611300080000000000000000B7
:10015000000000000000000000000000000000009F
:10016000000000000000000000000000000000008F
:10017000000000000000000000000000000000007F
:080180000000000061130008FB
:1001C000044B05481B1A062B02D9044B03B11847F0
:1001D000704700BF7B080020780800200000000066
:1001E00005490648091A891001EBD171491002D05E
:1001F000034B03B1184770477808002078080020A7
:100200000000000010B5064C237843B9FFF7D8FF73
:10021000044B13B10448AFF300800123237010BDD9
:100220007808002000000000B899000808B5084BC5
:100230001BB108490848AFF300800848036813B9A8
:10024000BDE80840CCE7064B002BF9D09847F7E70C
:10025000000000007C080020B89900087808002001
:100260000000000081F0004102E000BF83F0004385
:1002700030B54FEA41044FEA430594EA050F08BF41
:1002800090EA020F1FBF54EA000C55EA020C7FEA05
:10029000645C7FEA655C00F0E2804FEA5454D4EB82
:1002A0005555B8BF6D420CDD2C4480EA020281EA4C
:1002B000030382EA000083EA010180EA020281EA84
:1002C0000303362D88BF30BD11F0004F4FEA0131D6
:1002D0004FF4801C4CEA113102D0404261EB4101E5
:1002E00013F0004F4FEA03334CEA133302D052426B
:1002F00063EB430394EA050F00F0A780A4F1010427
:10030000D5F1200E0DDB02FA0EFC22FA05F2801860
:1003100041F1000103FA0EF2801843FA05F3594146
:100320000EE0A5F120050EF1200E012A03FA0EFCC5
:1003300028BF4CF0020C43FA05F3C01851EBE371EF
:1003400001F0004507D54FF0000EDCF1000C7EEB0C
:1003500000006EEB0101B1F5801F1BD3B1F5001F4A
:100360000CD349085FEA30004FEA3C0C04F1010469
:100370004FEA445212F5800F80F09A80BCF1004F92
:1003800008BF5FEA500C50F1000041EB045141EA14
:10039000050130BD5FEA4C0C404141EB010111F415
:1003A000801FA4F10104E9D191F0000F04BF0146C0
:1003B0000020B1FA81F308BF2033A3F10B03B3F19E
:1003C00020020CDA0C3208DD02F1140CC2F10C022E
:1003D00001FA0CF021FA02F10CE002F11402D8BF8C
:1003E000C2F1200C01FA02F120FA0CFCDCBF41EA58
:1003F0000C019040E41AA2BF01EB0451294330BD27
:100400006FEA04041F3C1CDA0C340EDC04F1140403
:10041000C4F1200220FA04F001FA02F340EA0300DA
:1004200021FA04F345EA030130BDC4F10C04C4F120
:10043000200220FA02F001FA04F340EA0300294600
:1004400030BD21FA04F0294630BD94F0000F83F44A
:10045000801306BF81F480110134013D4EE77FEA2D
:10046000645C18BF7FEA655C29D094EA050F08BF79
:1004700090EA020F05D054EA000C04BF194610465A
:1004800030BD91EA030F1EBF0021002030BD5FEA9E
:10049000545C05D14000494128BF41F0004130BDC6
:1004A00014F580043CBF01F5801130BD01F000451A
:1004B00045F0FE4141F470014FF0000030BD7FEA8D
:1004C000645C1ABF194610467FEA655C1CBF0B4688
:1004D000024650EA013406BF52EA033591EA030F9F
:1004E00041F4002130BD00BF90F0000F04BF002197
:1004F000704730B54FF4806404F132044FF00005CA
:100500004FF0000150E700BF90F0000F04BF002142
:10051000704730B54FF4806404F1320410F00045A8
:1005200048BF40424FF000013EE700BF42004FEAA3
:10053000E2014FEA31014FEA02701FBF12F07F4320
:1005400093F07F4F81F06051704792F0000F14BF1D
:1005500093F07F4F704730B54FF4607401F0004561
:1005600021F0004120E700BF50EA010208BF7047B8
:1005700030B54FF000050AE050EA010208BF7047AD
:1005800030B511F0004502D5404261EB41014FF416
:10059000806404F132045FEA915C3FF4DCAE4FF01A
:1005A00003025FEADC0C18BF03325FEADC0C18BF01
:1005B000033202EBDC02C2F1200300FA03FC20FA52
:1005C00002F001FA03FE40EA0E0021FA02F114449F
:1005D000C1E600BF844641EA000313F003036DD176
:1005E000403A41D351F8043B40F8043B51F8043BF6
:1005F00040F8043B51F8043B40F8043B51F8043BFD
:1006000040F8043B51F8043B40F8043B51F8043BEC
:1006100040F8043B51F8043B40F8043B51F8043BDC
:1006200040F8043B51F8043B40F8043B51F8043BCC
:1006300040F8043B51F8043B40F8043B51F8043BBC
:1006400040F8043B51F8043B40F8043B51F8043BAC
:1006500040F8043B51F8043B40F8043B51F8043B9C
:1006600040F8043B403ABDD2303211D351F8043B3C
:1006700040F8043B51F8043B40F8043B51F8043B7C
:1006800040F8043B51F8043B40F8043B103AEDD2EB
:100690000C3205D351F8043B40F8043B043AF9D23C
:1006A000043208D0D2071CBF11F8013B00F8013B0F
:1006B00001D30B8803806046704700BF082A13D31C
:1006C0008B078DD010F003038AD0C3F10403D21A34
:1006D000DB071CBF11F8013B00F8013B80D331F868
:1006E000023B20F8023B7BE7043AD9D3013A11F8E8
:1006F000013B00F8013BF9D20B7803704B78437053
:100700008B78837060467047000000000000000096
:1007100001F0FF01102A2BDB10F0070F08D010F8B2
:10072000013B013A8B422DD010F0070F42B3F6D1B6
:10073000F0B441EA012141EA014122F007047FF0CF
:1007400000070023F0E80256083C85EA010586EA26
:10075000010685FA47F5A3FA87F586FA47F6A5FA62
:1007600087F68EB9EED1F0BC01F0FF0102F007026E
:1007700032B110F8013B013A83EA010313B1F8D119
:100780000020704701387047002D06BF35460338FA
:10079000073815F0010F07D1013015F4807F02BF33
:1007A000013015F4C03F0130F0BC0138704700BF84
:1007B0000000000000000000000000000000000039
:1007C00090F800F06DE9024520F007016FF0000C91
:1007D00010F0070491F820F040F049804FF0000439
:1007E0006FF00700D1E9002391F840F000F1080014
:1007F00082FA4CF2A4FA8CF283FA4CF3A2FA8CF34C
:100800004BBBD1E9022382FA4CF200F10800A4FAB2
:100810008CF283FA4CF3A2FA8CF3E3B9D1E9042306
:1008200082FA4CF200F10800A4FA8CF283FA4CF33D
:10083000A2FA8CF37BB9D1E9062301F1200182FAF7
:100840004CF200F10800A4FA8CF283FA4CF3A2FAFD
:100850008CF3002BC6D0002A04BF04301A4612BA0B
:10086000B2FA82F2FDE8024500EBD2007047D1E90E
:10087000002304F00305C4F100004FEAC50514F09D
:10088000040F91F840F00CFA05F562EA05021CBF6E
:1008900063EA050362464FF00004A9E770B54FF024
:1008A000FF0C4CF4E06C1CEA11541DBF1CEA1355FC
:1008B00094EA0C0F95EA0C0F00F0DEF82C4481EA64
:1008C000030621EA4C5123EA4C5350EA013518BF84
:1008D00052EA033541F4801143F4801338D0A0FB71
:1008E00002CE4FF00005E1FB02E506F00042E0FB1E
:1008F00003E54FF00006E1FB03569CF0000F18BF24
:100900004EF0010EA4F1FF04B6F5007F64F54074CB
:1009100004D25FEA4E0E6D4146EB060642EAC6215E
:1009200041EA55514FEAC52040EA5E504FEACE2ECB
:10093000B4F1FD0C88BFBCF5E06F1ED8BEF1004FCE
:1009400008BF5FEA500E50F1000041EB045170BD4A
:1009500006F0004646EA010140EA020081EA03018E
:10096000B4EB5C04C2BFD4EB0C0541EA045170BD8A
:1009700041F480114FF0000E013C00F3AB8014F104
:10098000360FDEBF002001F0004170BDC4F100044D
:10099000203C35DA0C341BDC04F11404C4F12005CE
:1009A00000FA05F320FA04F001FA05F240EA020029
:1009B00001F0004221F0004110EBD37021FA04F65F
:1009C00042EB06015EEA430E08BF20EAD37070BD19
:1009D000C4F10C04C4F1200500FA04F320FA05F078
:1009E00001FA04F240EA020001F0004110EBD3707A
:1009F00041F100015EEA430E08BF20EAD37070BDEA
:100A0000C4F1200500FA05F24EEA020E20FA04F3C2
:100A100001FA05F243EA020321FA04F001F0004171
:100A200021FA04F220EA020000EBD3705EEA430EE2
:100A300008BF20EAD37070BD94F0000F0FD101F011
:100A40000046400041EB010111F4801F08BF013C4A
:100A5000F7D041EA060195F0000F18BF704703F088
:100A60000046520043EB030313F4801F08BF013D0F
:100A7000F7D043EA0603704794EA0C0F0CEA1355CB
:100A800018BF95EA0C0F0CD050EA410618BF52EA85
:100A90004306D1D181EA030101F000414FF000008B
:100AA00070BD50EA410606BF1046194652EA430699
:100AB00019D094EA0C0F02D150EA013613D195EA0D
:100AC0000C0F05D152EA03361CBF104619460AD155
:100AD00081EA030101F0004141F0FE4141F470015F
:100AE0004FF0000070BD41F0FE4141F4780170BD4F
:100AF00070B54FF0FF0C4CF4E06C1CEA11541DBFB4
:100B00001CEA135594EA0C0F95EA0C0F00F0A7F8B5
:100B1000A4EB050481EA030E52EA03354FEA0131E2
:100B200000F088804FEA03334FF0805545EA1313F5
:100B300043EA12634FEA022245EA111545EA1065BD
:100B40004FEA00260EF000419D4208BF964244F154
:100B5000FD0404F5407402D25B084FEA3202B61A73
:100B600065EB03055B084FEA32024FF480104FF447
:100B7000002CB6EB020E75EB030E22BFB61A7546BB
:100B800040EA0C005B084FEA3202B6EB020E75EB4E
:100B9000030E22BFB61A754640EA5C005B084FEAB6
:100BA0003202B6EB020E75EB030E22BFB61A754683
:100BB00040EA9C005B084FEA3202B6EB020E75EB8E
:100BC000030E22BFB61A754640EADC0055EA060E4F
:100BD00018D04FEA051545EA16754FEA06164FEA92
:100BE000C30343EA52734FEAC2025FEA1C1CC0D13E
:100BF00011F4801F0BD141EA00014FF000004FF0CB
:100C0000004CB6E711F4801F04BF01430020B4F18B
:100C1000FD0C88BFBCF5E06F3FF6AFAEB5EB030C43
:100C200004BFB6EB020C5FEA500C50F1000041EB40
:100C3000045170BD0EF0004E4EEA113114EB5C040D
:100C4000C2BFD4EB0C0541EA045170BD41F48011E0
:100C50004FF0000E013C90E645EA060E8DE60CEAE8
:100C6000135594EA0C0F08BF95EA0C0F3FF43BAF05
:100C700094EA0C0F0AD150EA01347FF434AF95EABC
:100C80000C0F7FF425AF104619462CE795EA0C0FA0
:100C900006D152EA03353FF4FDAE1046194622E76D
:100CA00050EA410618BF52EA43067FF4C5AE50EA47
:100CB00041047FF40DAF52EA43057FF4EBAE12E737
:100CC0004FF0FF3C06E000BF4FF0010C02E000BF18
:100CD0004FF0010C4DF804CD4FEA410C7FEA6C5CFB
:100CE0004FEA430C18BF7FEA6C5C1BD001B050EA9E
:100CF000410C0CBF52EA430C91EA030F02BF90EA89
:100D0000020F0020704710F1000F91EA030F58BF47
:100D1000994208BF90422CBFD8176FEAE37040F0A9
:100D2000010070474FEA410C7FEA6C5C02D150EA47
:100D3000013C07D14FEA430C7FEA6C5CD6D152EA02
:100D4000033CD3D05DF8040B704700BF84461046C7
:100D500062468C461946634600E000BF01B5FFF7C6
:100D6000B7FF002848BF10F1000F01BD4DF808ED96
:100D7000FFF7F4FF0CBF012000205DF808FB00BF67
:100D80004DF808EDFFF7EAFF34BF012000205DF8C1
:100D900008FB00BF4DF808EDFFF7E0FF94BF01200E
:100DA00000205DF808FB00BF4DF808EDFFF7CEFF0F
:100DB00094BF012000205DF808FB00BF4DF808ED4E
:100DC000FFF7C4FF34BF012000205DF808FB00BF1F
:100DD0004FEA410212F5001215D211D56FF4787363
:100DE000B3EB625212D94FEAC12343F0004343EA06
:100DF000505311F0004F23FA02F018BF40427047E1
:100E00004FF00000704750EA013005D111F000406A
:100E100008BF6FF0004070474FF00000704700BF00
:100E200053B94AB9002908BF00281CBF4FF0FF3151
:100E30004FF0FF3000F07EB9ADF1080C6DE904CE43
:100E400000F006F8DDF804E0DDE9022304B07047A5
:100E50002DE9F0478C460E460446089D002B50D1E4
:100E60008A4217466CD9B2FA82FEBEF1000F0BD04F
:100E7000CEF1200420FA04F401FA0EF644EA060C3E
:100E800002FA0EF700FA0EF44FEA1749220CBCFBE7
:100E9000F9F01FFA87F809FB10C642EA064600FB84
:100EA00008F3B34209D9F61900F1FF3280F022812C
:100EB000B34240F21F8102383E44F61AA2B2B6FB9A
:100EC000F9F309FB136642EA064403FB08F8A04560
:100ED00009D9E41903F1FF3280F00A81A04540F2FC
:100EE0000781023B3C44C8EB040443EA0040002174
:100EF000002D62D024FA0EF400232C606B60BDE854
:100F0000F0878B4207D9002D55D0002185E841009C
:100F10000846BDE8F087B3FA83F1002940F09080DD
:100F2000B34202D3824200F2F880841A66EB0306D1
:100F30000120B446002D40D085E81010BDE8F087B0
:100F400012B90127B7FBF2F7B7FA87FEBEF1000F1F
:100F500035D1F31B4FEA17481FFA87FC0121B3FB79
:100F6000F8F0220C08FB103642EA06460CFB00F3B0
:100F7000B34207D9F61900F1FF3202D2B34200F2B0
:100F8000CE801046F61AA2B2B6FBF8F308FB136641
:100F900042EA06440CFB03FCA44507D9E41903F11B
:100FA000FF3202D2A44500F2B5801346CCEB040414
:100FB00043EA00409CE729462846BDE8F087CEF189
:100FC000200106FA0EF307FA0EF720FA01F94FEAAC
:100FD0001748CE4049EA0309B6FBF8FA4FEA19442C
:100FE00008FB1A661FFA87FC44EA06430AFB0CF268
:100FF0009A4200FA0EF40AD9DB190AF1FF3180F0A7
:1010000087809A4240F28480AAF1020A3B449B1AEC
:101010001FFA89F9B3FBF8F108FB113349EA0343DE
:1010200001FB0CF69E4207D9DB1901F1FF326BD2AE
:101030009E4269D902393B449B1B41EA0A418EE733
:10104000C1F1200E22FA0EF48B40234320FA0EF752
:1010500006FA01F44FEA134C26FA0EF63C43B6FBAF
:10106000FCF9270C0CFB19661FFA83F847EA0646C1
:1010700009FB08F7B74202FA01F200FA01FA08D9AF
:10108000F61809F1FF3041D2B7423FD9A9F1020960
:101090001E44F61BA0B2B6FBFCF40CFB146640EA3F
:1010A000064704FB08F8B84507D9FF1804F1FF30DC
:1010B00028D2B84526D9023C1F4444EA0940C8EB6F
:1010C0000707A0FB02894F4544464E4614D329D05A
:1010D00065B3BAEB040367EB060707FA0EFECB40D5
:1010E000CF404EEA030385E888000021BDE8F08781
:1010F0001346F8E61046E0E6B8EB020469EB030697
:101100000138E5E70446D8E7114695E78146C0E790
:101110008A467CE7023B3C4448E708460AE7023837
:101120003E442FE7C245E7D33E46D1E72946BDE816
:10113000F08700BF704700BF70B50F4E0F4D761B94
:10114000B61018BF002405D0013455F8043B984769
:10115000A642F9D10A4E0B4D761B08F02DFCB610B5
:1011600018BF002406D0013455F8043B9847A64226
:10117000F9D170BD70BD00BFE09B0008E09B000886
:10118000E89B0008E09B000870B4840746D0541E1A
:10119000002A41D0CDB2034602E0621EE4B31446F9
:1011A00003F8015B9A07F8D1032C2ED9CDB245EA9A
:1011B00005250F2C45EA054519D903F110022646ED
:1011C000103E0F2E42F8105C42F80C5C42F8085CAE
:1011D00042F8045C02F11002F2D8A4F1100222F0ED
:1011E0000F0204F00F041032032C13440DD91E46D5
:1011F0002246043A032A46F8045BFAD8221F22F05A
:1012000003020432134404F003042CB1C9B21C4499
:1012100003F8011BA342FBD170BC70471446034680
:10122000C2E700BF024B13B1024800F005B8704797
:101230000000000045120008002301461A46184627
:1012400000F014B838B5074D074C2C1BA41005D07E
:10125000013C55F8043D9847002CF9D1BDE83840D1
:1012600008F0B0BBEC9B0008E89B00082DE9F047B4
:10127000254C2568D5F84841064688469246994649
:10128000C4B360681F2817DC431C76B104EB8005EB
:101290000122C5F888A0D4F8881182401143022E9B
:1012A000C4F88811C5F808911ED00230636044F874
:1012B00020800020BDE8F087144B03B34FF4C870C2
:1012C000AFF300800446D0B1D5F84831002780E85C
:1012D0008800C5F8484138460123C4F88871C4F82D
:1012E0008C71002EE1D0D1E7D4F88C110A43C4F8F8
:1012F0008C21DAE705F5A674C5F84841C1E74FF03F
:10130000FF30BDE8F08700BF1C9A00080000000015
:10131000DFF834D0002103E00C4B5B58435004311C
:101320000B480C4B42189A42F6D30B4A02E00023BA
:1013300042F8043B094B9A42F9D300F025FBFFF732
:10134000FBFE00F00FF8FEE700300020EC9B0008E9
:10135000000000207808002078080020440E0020BB
:10136000FEE700002DE9F04190B004AF002387F8BC
:101370002F300A23BB84002387F82030002387F80E
:101380002130002387F8223000233B7700237B772E
:101390004FF000033B614FF000037B614FF000030F
:1013A000BB610023FB731223BB731A2387F82E3013
:1013B000432387F82D30442387F82C30452387F8C2
:1013C0002B30462387F82A30472387F829304823D3
:1013D00087F828306B2387F82730752387F8263065
:1013E0006C4A07F10C03114602221846FFF7F2F887
:1013F0001A233B7200237B721B233B7100237B71FA
:101400001C233B7000237B7000F030FC00F0CEF812
:1014100000F0C6F900F0A6F900F03EF900F072F90C
:1014200000F016F94FF480625B495C4804F0A6F9BD
:101430000346002B01D000F003FA00BF584B1B7885
:10144000012BFBD1564B00221A700A230293012371
:10145000019307F12003009301237522D021514805
:1014600001F012FC97F827309AB20A230293012365
:10147000019307F10F0300930123D021494801F0A4
:10148000DDFA97F827309AB20A23029301230193D9
:1014900007F12003013300930123D021414801F0DB
:1014A000F3FBFB7B1A4607F120039A4201D100F0BF
:1014B000C7F997F82E309AB20A23029301230193B9
:1014C00007F10E0300930123D021364801F0B6FA4C
:1014D00097F82E309AB20A2302930123019307F161
:1014E0002003023300930123D0212E4801F0CCFBCE
:1014F000BB7B1A4607F120039A4201D100F0A0F904
:1015000097F82E309AB20A2302930123019307F130
:101510001C0300930123D021224801F0B5FB97F86A
:101520002E309AB20A2302930123019307F11C0380
:10153000013300930123D0211A4801F0A5FB3B7F22
:101540001A467B7F083302FA03F307EE903AF8EE6F
:10155000E77AC7ED047A97F82F30013387F82F30F8
:1015600097F820301E4697F82130984697F8223099
:101570001D463B691846FEF7D9FF03460C46CDE9E8
:1015800002340095434632460749034804F0B4FC50
:101590005BE700BF149A0008040A00201C09002021
:1015A000040E002094080020D099000880B596B061
:1015B00000AF02233B6301233B6410237B640023C1
:1015C000FB6407F13003184602F0C8FB0346002B0A
:1015D00001D000F035F90F23FB6100233B620023AB
:1015E0007B620023BB620023FB6207F11C03002126
:1015F000184603F075FC0346002B01D000F020F9DB
:1016000021237B600023FB6000233B613B1D1846C8
:1016100003F01CFF0346002B01D000F011F903F08A
:10162000C5FE0246094BA3FB02239B09184600F0A6
:101630007DFC042000F086FC002200214FF0FF30EA
:1016400000F04AFC00BF5837BD4680BDD34D621044
:1016500080B500AF002200210F2000F03DFC0F20DC
:1016600000F056FC002200210E2000F035FC0E2078
:1016700000F04EFC002200211F2000F02DFC1F2056
:1016800000F046FC00220021202000F025FC202054
:1016900000F03EFC00BF80BD80B500AF164B174A7E
:1016A0001A60154B164A5A60134B00229A60124B6F
:1016B0000122DA60104B00221A610F4B00225A619E
:1016C0000D4B00229A610C4B0022DA610A4B00227A
:1016D0001A62094801F028F90346002B01D000F0F6
:1016E000AFF80021044802F0EDFA0346002B01D0C8
:1016F00000F0A6F800BF80BD940800200054004010
:101700000E09002080B500AF144B154A1A60134B28
:101710004FF416525A60114B00229A600F4B002270
:10172000DA600E4B00221A610C4B0C225A610B4BF3
:1017300000229A61094B0022DA61084B00221A62EA
:10174000064B00225A62054803F0C6FF0346002BF1
:1017500001D000F075F800BF80BD00BF1C0900205B
:101760000038014080B582B000AF0C4A0B4B5B697A
:1017700043F001035361094B5B6903F001037B6094
:101780007B68002200210D2000F0A6FB0D2000F058
:10179000BFFB00BF0837BD4680BD00BF0010024040
:1017A00080B588B000AF174A164B5B6943F400332D
:1017B0005361144B5B6903F40033BB60BB68114A8F
:1017C000104B5B6943F4802353610E4B5B6903F458
:1017D00080237B607B68002208210B4801F07AF8A7
:1017E0000823FB6001233B6100237B610023BB6175
:1017F00007F10C031946044800F0F6FE00BF20373D
:10180000BD4680BD001002400004004880B483B093
:1018100000AF7860044B01221A7000BF0C37BD4640
:101820005DF8047B704700BF040E002080B582B0D5
:1018300000AF786000F004F800BF0837BD4680BDF7
:1018400080B500AF0821034801F05CF8322000F0B9
:1018500059FAF7E70004004880B584B000AF78601B
:101860003960124B1B68002B02D1104B104A1A60D2
:101870000E4B1B68FB600D4B1A683B6813446A46AD
:10188000934207D904F032FB02460C2313604FF059
:10189000FF3306E0054B1A683B681344034A1360A4
:1018A000FB6818461037BD4680BD00BF080E0020FB
:1018B000480E002080B400AF00BFBD465DF8047B39
:1018C000704700BF80B400AFFEE700BF80B400AF38
:1018D000FEE700BF80B400AFFEE700BF80B400AFFA
:1018E000FEE700BF80B400AF00BFBD465DF8047BDB
:1018F000704700BF80B400AF00BFBD465DF8047BF9
:10190000704700BF80B400AF00BFBD465DF8047BE8
:10191000704700BF80B500AF00F0DAF900F02EFB91
:1019200000BF80BD80B500AF024800F047FC00BF9B
:1019300080BD00BFE008002080B500AF024800F085
:101940003DFC00BF80BD00BFC809002080B500AFCE
:10195000024800F033FC00BF80BD00BF8C090020AE
:1019600080B500AF024801F0B5FA00BF80BD00BFEE
:101970009408002080B500AF024801F0C5FA00BF0E
:1019800080BD00BF9408002080B400AF1F4A1F4BE9
:10199000D3F8883043F47003C2F888301C4A1C4BDB
:1019A0001B6843F0010313601949194B5A68194B1E
:1019B00013404B60164A164B1B6823F0847323F4C4
:1019C00080331360124A124B1B6823F48023136088
:1019D0000F4A0F4B5B6823F4FE0353600C4A0C4B19
:1019E000DB6A23F00F03D3620949094B1A6B0A4BD8
:1019F00013400B63064B00229A60044B4FF00062C9
:101A00009A6000BFBD465DF8047B704700ED00E0C2
:101A1000001002400CC07FF8CCFC00FF80B582B003
:101A200000AF1E4A1D4B9B6943F0010393611B4BA2
:101A30009B6903F001037B607B68032000F040FAA0
:101A4000002200216FF00B0000F046FA0022002176
:101A50006FF00A0000F040FA002200216FF0090048
:101A600000F03AFA002200216FF0040000F034FA8E
:101A7000002200216FF0030000F02EFA0022002166
:101A80006FF0010000F028FA002200214FF0FF3033
:101A900000F022FA00BF0837BD4680BD00100240AA
:101AA00080B588B000AF78607B681B68274A934296
:101AB00047D1C023FB6012233B6101237B610323D9
:101AC000BB610423FB6107F10C031946204800F0B9
:101AD0008BFD204A1F4BDB6943F40013D3611D4B80
:101AE000DB6903F40013BB60BB681B4B1B4A1A6025
:101AF000194B00225A60184B00229A60164B802224
:101B0000DA60154B00221A61134B00225A61124B06
:101B100020229A61104B0022DA610F4800F03CFA53
:101B20000346002B01D0FFF78BFE0D4A0C4B1B6DBB
:101B300043F0100313657B68074ADA63064A7B6843
:101B4000536200BF2037BD4680BD00BF0054004037
:101B50000004004800100240E0080020300002406D
:101B60000000014080B588B000AF78607B681B68DA
:101B7000384A934269D1384A374B9B6943F48043D2
:101B80009361354B9B6903F48043BB60BB684FF4A2
:101B9000C063FB6002233B6101237B610323BB61C4
:101BA0000723FB6107F10C0319464FF0904000F04A
:101BB0001BFD2A4B2A4A1A60284B00225A60274BE9
:101BC00000229A60254B8022DA60244B00221A61A1
:101BD000224B00225A61214B00229A611F4B0022A6
:101BE000DA611E4800F0D8F90346002B01D0FFF758
:101BF00027FE7B68194A5A66184A7B685362194B5C
:101C0000194A1A60174B10225A60164B00229A602C
:101C1000144B8022DA60134B00221A61114B002210
:101C20005A61104B20229A610E4B0022DA610D4856
:101C300000F0B2F90346002B01D0FFF701FE7B68EC
:101C4000084A1A66074A7B68536200BF2037BD46C0
:101C500080BD00BF00380140001002408C09002008
:101C600058000240C80900204400024080B500AF7F
:101C7000084A084B1B6843F010031360032000F070
:101C80001FF9002000F008F8FFF7C8FE00231846EF
:101C900080BD00BF0020024080B582B000AF7860F8
:101CA000094B1B68094AA2FB03239B09184600F055
:101CB0003DF9002279684FF0FF3000F00DF9002364
:101CC00018460837BD4680BD2C040020D34D621055
:101CD00080B400AF044B1B680133034A136000BF9C
:101CE000BD465DF8047B70470C0E002080B400AF49
:101CF000034B1B681846BD465DF8047B704700BF68
:101D00000C0E002080B584B000AF7860FFF7EEFFC6
:101D1000F86000BFFFF7EAFF0246FB68D21A7B6853
:101D20009A42F7D300BF1037BD4680BD80B485B05E
:101D300000AF78607B6803F00703FB600C4BDB6847
:101D4000BB60BA684FF6FF031340BB60FB681A0222
:101D5000BB68134343F0BF6343F40033BB60044AE2
:101D6000BB68D36000BF1437BD465DF8047B704785
:101D700000ED00E080B400AF044BDB6803F4E063E7
:101D80001B0A1846BD465DF8047B704700ED00E075
:101D900080B483B000AF0346FB71094997F907305F
:101DA0005B09FA7902F01F02012000FA02F241F801
:101DB000232000BF0C37BD465DF8047B704700BF91
:101DC00000E100E080B483B000AF03463960FB71EE
:101DD00097F90730002B0BDA0D49FB7903F00F035D
:101DE000043B3A68D2B21201D2B20B441A7609E02F
:101DF000084997F907303A68D2B21201D2B20B44BF
:101E000083F8002300BF0C37BD465DF8047B7047A4
:101E100000ED00E000E100E080B489B000AFF860C0
:101E2000B9607A60FB6803F00703FB61FB69C3F1EB
:101E30000703042B28BF0423BB61FB690433062B73
:101E400002D9FB69033B00E000237B610122BB69EF
:101E500002FA03F35A1EBB681A407B699A400121BB
:101E60007B6901FA03F3591E7B680B401343184644
:101E70002437BD465DF8047B704700BF80B582B053
:101E800000AF78607B68013BB3F1807F01D3012311
:101E90000FE00A4A7B68013B53600F214FF0FF308F
:101EA000FFF790FF054B00229A60044B07221A604F
:101EB000002318460837BD4680BD00BF10E000E093
:101EC00080B582B000AF78607868FFF72FFF00BF61
:101ED0000837BD4680BD00BF80B586B000AF034661
:101EE000B9607A60FB7300237B61FFF743FF786181
:101EF0007A68B9687869FFF78FFF024697F90F3063
:101F000011461846FFF75EFF00BF1837BD4680BD7B
:101F100080B582B000AF0346FB7197F907301846D1
:101F2000FFF736FF00BF0837BD4680BD80B582B0E1
:101F300000AF78607868FFF7A1FF034618460837BE
:101F4000BD4680BD80B483B000AF78607B68042B51
:101F500006D1094A084B1B6843F00403136005E0EF
:101F6000054A054B1B6823F00403136000BF0C37C0
:101F7000BD465DF8047B704710E000E080B500AF1F
:101F800000F002F800BF80BD80B400AF00BFBD46C6
:101F90005DF8047B704700BF80B485B000AF786007
:101FA0000023FB607B68002B01D1012339E07B68B3
:101FB00093F82130002B03D17B68002283F8202086
:101FC0007B68022283F821207B681B681B68FB600A
:101FD000FB6823F47F5323F03003FB607B685A686F
:101FE0007B689B681A437B68DB681A437B681B69C4
:101FF0001A437B685B691A437B689B691A437B6859
:10200000DB691343FA681343FB607B681B68FA685B
:102010001A607B6800229A637B68012283F8212082
:10202000002318461437BD465DF8047B704700BF97
:1020300080B584B000AFF860B9607A603B60FB683F
:1020400093F82030012B01D1022336E0FB680122F6
:1020500083F82020FB68022283F82120FB681B689C
:10206000FA681268126822F001021A603B687A6806
:10207000B968F86800F092FAFB681B68FA681268A1
:10208000126842F002021A60FB681B68FA68126864
:10209000126842F004021A60FB681B68FA68126852
:1020A000126842F008021A60FB681B68FA6812683E
:1020B000126842F001021A60002318461037BD462C
:1020C00080BD00BF80B584B000AF78600023FB7393
:1020D0007B6893F82130022B05D07B6804229A6339
:1020E0000123FB7357E07B681B687A6812681268EB
:1020F00022F00E021A607B681B687A681268126808
:1021000022F001021A60264A7B681B681946254B9B
:1021100099422ED07B681B681946234B994226D0E2
:102120007B681B681946214B99421DD07B681B6850
:1021300019461F4B994214D07B681B6819461D4BEA
:1021400099420BD07B681B6819461B4B994202D100
:102150004FF480130EE04FF080730BE04FF48033A8
:1021600008E04FF4805305E04FF4807302E0102341
:1021700000E0012353607B68012283F821207B6803
:10218000002283F820207B685B6B002B03D07B68E8
:102190005B6B78689847FB7B18461037BD4680BD5F
:1021A00000000240080002401C00024030000240D3
:1021B00044000240580002406C00024080B582B0EA
:1021C00000AF78608F4B1A687B681B6819468E4B8E
:1021D00099422ED07B681B6819468C4B994226D0B9
:1021E0007B681B6819468A4B99421DD07B681B6827
:1021F0001946884B994214D07B681B681946864B58
:1022000099420BD07B681B681946844B994202D1D6
:102210004FF400030EE04FF000630BE04FF4002397
:1022200008E04FF4004305E04FF4006302E0802330
:1022300000E008231340002B5CD07B681B681B6800
:1022400003F00803002B55D07B681B687A6812687E
:10225000126822F008021A606A4A7B681B681946F5
:10226000694B99422ED07B681B681946674B99428F
:1022700026D07B681B681946654B99421DD07B6848
:102280001B681946634B994214D07B681B6819463A
:10229000614B99420BD07B681B6819465F4B994292
:1022A00002D14FF400030EE04FF000630BE04FF457
:1022B000002308E04FF4004305E04FF4006302E020
:1022C000802300E0082353607B689B6B43F001028E
:1022D0007B689A637B68042283F821207B68002254
:1022E00083F820207B681B6B002B03D07B681B6B63
:1022F00078689847434B1A687B681B681946424BBD
:1023000099422ED07B681B681946404B994226D0D3
:102310007B681B6819463E4B99421DD07B681B6841
:1023200019463C4B994214D07B681B6819463A4BBE
:1023300099420BD07B681B681946384B994202D1F1
:102340004FF480030EE04FF080630BE04FF48023E6
:1023500008E04FF4804305E04FF4806302E040233F
:1023600000E004231340002B68D07B681B681B68C7
:1023700003F00403002B61D07B681B681B6803F02B
:102380002003002B07D17B681B687A6812681268EB
:1023900022F004021A601B4A7B681B6819461A4B1C
:1023A00099423DD07B681B681946184B994226D04C
:1023B0007B681B681946164B99421DD07B681B68C9
:1023C0001946144B994214D07B681B681946124B6E
:1023D00099420BD07B681B681946104B994202D179
:1023E0004FF480031DE04FF080631AE04FF4802328
:1023F00017E04FF4804314E04FF4806311E0402372
:102400000FE000BF00000240080002401C00024034
:102410003000024044000240580002406C0002407C
:10242000042353607B68112283F821207B68DB6AD8
:10243000002B03D07B68DB6A78689847504B1A689A
:102440007B681B6819464F4B99422ED07B681B68EE
:1024500019464D4B994226D07B681B6819464B4B59
:1024600099421DD07B681B681946494B994214D08C
:102470007B681B681946474B99420BD07B681B68E9
:102480001946454B994202D14FF400130EE04FF02C
:1024900000730BE04FF4003308E04FF4005305E005
:1024A0004FF4007302E0202300E002231340002BCE
:1024B00061D07B681B681B6803F00203002B5AD0B5
:1024C0007B681B681B6803F02003002B07D17B6827
:1024D0001B687A681268126822F002021A60284AA1
:1024E0007B681B681946274B99422ED07B681B6876
:1024F0001946254B994226D07B681B681946234B09
:1025000099421DD07B681B681946214B994214D013
:102510007B681B6819461F4B99420BD07B681B6870
:1025200019461D4B994202D14FF400130EE04FF0B3
:1025300000730BE04FF4003308E04FF4005305E064
:102540004FF4007302E0202300E0022353607B6815
:102550009A6B7B689A637B68012283F821207B68F1
:10256000002283F820207B689B6A002B03D07B68C5
:102570009B6A7868984700BF0837BD4680BD00BF9A
:1025800000000240080002401C00024030000240EF
:1025900044000240580002406C00024080B485B004
:1025A00000AFF860B9607A603B60FB681B683A680E
:1025B0005A60FB685B68102B08D1FB681B687A685F
:1025C0009A60FB681B68BA68DA6007E0FB681B6802
:1025D000BA689A60FB681B687A68DA6000BF1437D3
:1025E000BD465DF8047B704780B487B000AF78606B
:1025F000396000237B610023FB6000233B614EE1D7
:102600003B681A6801217B6901FA03F31340FB6000
:10261000FB68002B00F040813B685B68022B03D015
:102620003B685B68122B23D17B69DA087B68083230
:1026300053F822303B617B6903F007039B000F22B4
:1026400002FA03F3DB433A6913403B613B681A69C2
:102650007B6903F007039B0002FA03F33A69134313
:102660003B617B69DA087B680832396943F82210DC
:102670007B681B683B617B695B00032202FA03F302
:10268000DB433A6913403B613B685B6803F003023C
:102690007B695B0002FA03F33A6913433B617B6891
:1026A0003A691A603B685B68012B0BD03B685B683A
:1026B000022B07D03B685B68112B03D03B685B683B
:1026C000122B30D17B689B683B617B695B000322E6
:1026D00002FA03F3DB433A6913403B613B68DA6873
:1026E0007B695B0002FA03F33A6913433B617B6841
:1026F0003A699A607B685B683B6101227B6902FAF8
:1027000003F3DB433A6913403B613B685B681B0999
:1027100003F001027B6902FA03F33A6913433B6158
:102720007B683A695A607B68DB683B617B695B0068
:10273000032202FA03F3DB433A6913403B613B682F
:102740009A687B695B0002FA03F33A6913433B61C1
:102750007B683A69DA603B685B6803F08053002B62
:1027600000F09A80554A554B9B6943F001039361F1
:10277000524B9B6903F00103BB60BB68504A7B6905
:102780009B08023352F823303B617B6903F003035B
:102790009B000F2202FA03F3DB433A6913403B61CB
:1027A0007B68B3F1904F13D07B68464A93420DD0BB
:1027B0007B68454A934207D07B68444A934201D1E3
:1027C000032306E0052304E0022302E0012300E0E6
:1027D00000237A6902F00302920093403A6913439E
:1027E0003B6137497B699B0802333A6941F82320F2
:1027F000374B1B683B61FB68DB433A6913403B6125
:102800003B685B6803F48033002B03D03A69FB68B4
:1028100013433B612E4A3B6913602D4B5B683B6160
:10282000FB68DB433A6913403B613B685B6803F438
:102830000033002B03D03A69FB6813433B61244A01
:102840003B695360224B9B683B61FB68DB433A6901
:1028500013403B613B685B6803F48013002B03D09B
:102860003A69FB6813433B61194A3B699360184B13
:10287000DB683B61FB68DB433A6913403B613B68C3
:102880005B6803F40013002B03D03A69FB68134321
:102890003B610F4A3B69D3607B6901337B613B68D5
:1028A0001A687B6922FA03F3002B7FF4A9AE00BFFC
:1028B0001C37BD465DF8047B704700BF0010024026
:1028C000000001400004004800080048000C0048D7
:1028D0000004014080B483B000AF78600B467B8079
:1028E00013467B707B78002B03D07A887B689A61D3
:1028F00002E07A887B689A6200BF0C37BD465DF8BB
:10290000047B704780B483B000AF78600B467B8057
:102910007B685A697B885A407B685A6100BF0C37D4
:10292000BD465DF8047B704780B582B000AF78602B
:102930007B68002B01D101237CE07B6893F8413058
:10294000DBB2002B06D17B68002283F84020786838
:10295000FFF7A6F87B68242283F841207B681B6878
:102960007A681268126822F001021A607B681B689C
:102970007A68526822F070621A617B681B687A6814
:102980001268926822F400429A607B689B68002B70
:1029900012D07B68DB68012B07D17B681B687A68E3
:1029A000926842F400429A6006E07B681B687A688D
:1029B000926842F404429A607B68DB68022B04D17F
:1029C0007B681B684FF400625A607B681A687B68FA
:1029D0001B685B6843F0007343F4004353607B68FB
:1029E0001B687A6811697A68526911437A6892693A
:1029F00012020A43DA607B681B687A68D1697A68D8
:102A0000126A0A431A607B681B687A681268126847
:102A100042F001021A607B6800225A647B6820221F
:102A200083F841207B6800221A637B68002283F8C8
:102A30004220002318460837BD4680BD80B588B0C7
:102A400002AFF860084611461A4603467B810B46E2
:102A50003B811346FB8000237B61FB6893F8413088
:102A6000DBB2202B40F009813B6A002B02D0BB8CEB
:102A7000002B01D1012301E1FB6893F84030012BC9
:102A800001D10223FAE0FB68012283F84020FFF71E
:102A90002DF978617B690093192301224FF40041DD
:102AA000F86800F067FF0346002B01D00323E5E040
:102AB000FB68212283F84120FB68402283F84220F2
:102AC000FB6800225A64FB683A6A5A62FB68BA8C57
:102AD0005A85FB6800225A63F8883A8979897B69AC
:102AE0000193BB6A00930346F86800F093FB03462A
:102AF000002B0FD0FB685B6C042B05D1FB68002218
:102B000083F840200123B9E0FB68002283F84020CD
:102B10000323B3E0FB685B8D9BB2FF2B0ED9FB68F0
:102B2000FF221A85FB681B8DDAB279890023009396
:102B30004FF08073F86801F031F80FE0FB685B8DAF
:102B40009AB2FB681A85FB681B8DDAB2798900237B
:102B500000934FF00073F86801F020F87A69B96AC1
:102B6000F86800F041FF0346002B07D0FB685B6C60
:102B7000042B01D1012381E003237FE0FB681A6865
:102B8000FB685B6A581CF96848621B789362FB68B3
:102B90005B8D9BB2013B9AB2FB685A85FB681B8D2B
:102BA000013B9AB2FB681A85FB681B8D002B35D15F
:102BB000FB685B8D9BB2002B30D07B690093BB6AB6
:102BC00000228021F86800F0D5FE0346002B01D0DA
:102BD000032353E0FB685B8D9BB2FF2B0ED9FB6890
:102BE000FF221A85FB681B8DDAB2798900230093D6
:102BF0004FF08073F86800F0D1FF0FE0FB685B8D49
:102C00009AB2FB681A85FB681B8DDAB279890023BA
:102C100000934FF00073F86800F0C0FFFB685B8D15
:102C20009BB2002B9AD17A69B96AF86800F01CFF50
:102C30000346002B07D0FB685B6C042B01D10123FA
:102C40001CE003231AE0FB681B682022DA61FB68A2
:102C50001A68FB681B6859680A4B0B405360FB6895
:102C6000202283F84120FB68002283F84220FB6881
:102C7000002283F84020002300E002231846183782
:102C8000BD4680BD00E800FE80B588B002AFF860A8
:102C9000084611461A4603467B810B463B81134684
:102CA000FB8000237B61FB6893F84130DBB2202B73
:102CB00040F009813B6A002B02D0BB8C002B01D174
:102CC000012301E1FB6893F84030012B01D102237D
:102CD000FAE0FB68012283F84020FFF707F87861EB
:102CE0007B690093192301224FF40041F86800F03A
:102CF00041FE0346002B01D00323E5E0FB682222BE
:102D000083F84120FB68402283F84220FB680022C0
:102D10005A64FB683A6A5A62FB68BA8C5A85FB6847
:102D200000225A63F8883A8979897B690193BB6AE2
:102D300000930346F86800F0CDFA0346002B0FD04D
:102D4000FB685B6C042B05D1FB68002283F84020F4
:102D50000123B9E0FB68002283F840200323B3E09D
:102D6000FB685B8D9BB2FF2B0FD9FB68FF221A8596
:102D7000FB681B8DDAB279894FF4105300934FF042
:102D80008073F86800F00AFF10E0FB685B8D9AB270
:102D9000FB681A85FB681B8DDAB279894FF41053F2
:102DA00000934FF00073F86800F0F8FE7B69009321
:102DB000BB6A00220421F86800F0DCFD0346002B0A
:102DC00001D0032380E0FB685B6A591CFA685162FA
:102DD000FA681268526AD2B21A70FB681B8D013B06
:102DE0009AB2FB681A85FB685B8D9BB2013B9AB275
:102DF000FB685A85FB681B8D002B35D1FB685B8D0A
:102E00009BB2002B30D07B690093BB6A00228021EB
:102E1000F86800F0AFFD0346002B01D0032353E018
:102E2000FB685B8D9BB2FF2B0ED9FB68FF221A85D6
:102E3000FB681B8DDAB27989002300934FF0807311
:102E4000F86800F0ABFE0FE0FB685B8D9AB2FB68A0
:102E50001A85FB681B8DDAB27989002300934FF045
:102E60000073F86800F09AFEFB685B8D9BB2002B44
:102E70009CD17A69B96AF86800F0F6FD0346002B28
:102E800007D0FB685B6C042B01D101231CE00323FA
:102E90001AE0FB681B682022DA61FB681A68FB688D
:102EA0001B6859680A4B0B405360FB68202283F86B
:102EB0004120FB68002283F84220FB68002283F84F
:102EC0004020002300E0022318461837BD4680BD8D
:102ED00000E800FE80B584B000AF78607B681B68B6
:102EE0009B69FB607B681B681B68BB607B685B6BD6
:102EF000002B05D07B685B6BBA68F96878689847E7
:102F000000BF1037BD4680BD80B584B000AF78608B
:102F10007B681B689B69FB607B681B681B68BB60E8
:102F2000FB6803F48073002B0FD0BB6803F08003B1
:102F3000002B0AD07B685B6C43F001027B685A640B
:102F40007B681B684FF48072DA61FB6803F480636E
:102F5000002B0FD0BB6803F08003002B0AD07B68E6
:102F60005B6C43F008027B685A647B681B684FF413
:102F70008062DA61FB6803F40073002B0FD0BB683A
:102F800003F08003002B0AD07B685B6C43F00202E5
:102F90007B685A647B681B684FF40072DA617B6857
:102FA0005B6C03F00B03002B05D07B685B6C194650
:102FB000786800F0D3FB00BF1037BD4680BD00BF6E
:102FC00080B483B000AF786000BF0C37BD465DF8B9
:102FD000047B704780B483B000AF786000BF0C37CB
:102FE000BD465DF8047B704780B483B000AF786065
:102FF0000B46FB7013463B8000BF0C37BD465DF8A7
:10300000047B704780B483B000AF786000BF0C379A
:10301000BD465DF8047B704780B483B000AF786034
:1030200000BF0C37BD465DF8047B704780B483B0A9
:1030300000AF786000BF0C37BD465DF8047B704779
:1030400080B584B000AFF860B9607A60FB6893F82F
:103050004030012B01D10223D8E0FB68012283F824
:103060004020BB6803F01003002B45D07B6803F0C1
:103070001003002B40D0FB685B8D9BB2002B2FD13F
:10308000FB68DB6AB3F1007F04D0FB68DB6AB3F155
:10309000007F0AD1FB6893F84130DBB2282B04D1C2
:1030A000B968F86800F008FB25E0FB68DB6A13F5F7
:1030B000803F10D0FB6893F84130DBB2292B0AD156
:1030C000FB681B681022DA61F86800F003FCF868FE
:1030D00000F0E6F90FE0FB681B681022DA6182E07D
:1030E000FB681B681022DA61FB685B6C43F004022A
:1030F000FB685A6477E076E0BB6803F00403002BBA
:103100002ED07B6803F00403002B29D0FB685B8D75
:103110009BB2002B16D0FB685B6A591CFA6851629F
:10312000FA681268526AD2B21A70FB681B8D013BB2
:103130009AB2FB681A85FB685B8D9BB2013B9AB221
:10314000FB685A85FB685B8D9BB2002B4AD1FB68FC
:10315000DB6A13F5803F45D0F86800F0A1F941E043
:10316000BB6803F00803002B09D07B6803F0080359
:10317000002B04D0B968F86800F00AF933E0BB68A6
:1031800003F00203002B2ED07B6803F00203002B18
:1031900029D0FB685B8D9BB2002B16D0FB681A68A8
:1031A000FB685B6A581CF96848621B789362FB688D
:1031B0005B8D9BB2013B9AB2FB685A85FB681B8D05
:1031C000013B9AB2FB681A850DE0FB68DB6AB3F13C
:1031D000807F03D0FB68DB6A002B04D1F86800F025
:1031E0005FF900E000BFBB6803F02003002B08D0AC
:1031F0007B6803F02003002B03D0B968F86800F067
:103200008DF9FB68002283F8402000231846103710
:10321000BD4680BD80B586B002AFF8600846114655
:103220001A4603467B810B463B811346FB80FB8895
:10323000DAB279894FF4005300934FF08073F86845
:1032400000F0ACFCFA69B969F86800F0CDFB034600
:10325000002B07D0FB685B6C042B01D1012334E009
:10326000032332E0FB88012B05D1FB681B683A89F8
:10327000D2B29A621BE0FB681B683A89120A92B2CA
:10328000D2B29A62FA69B969F86800F0ADFB0346F8
:10329000002B07D0FB685B6C042B01D1012314E0E9
:1032A000032312E0FB681B683A89D2B29A62FB6979
:1032B0000093BB6900228021F86800F05BFB0346A5
:1032C000002B01D0032300E0002318461037BD4631
:1032D00080BD00BF80B586B002AFF86008461146D9
:1032E0001A4603467B810B463B811346FB80FB88D5
:1032F000DAB279894FF4005300930023F86800F0A4
:103300004DFCFA69B969F86800F06EFB0346002BC2
:1033100007D0FB685B6C042B01D1012334E003234D
:1033200032E0FB88012B05D1FB681B683A89D2B2D9
:103330009A621BE0FB681B683A89120A92B2D2B209
:103340009A62FA69B969F86800F04EFB0346002BEF
:1033500007D0FB685B6C042B01D1012314E003232D
:1033600012E0FB681B683A89D2B29A62FB6900934B
:10337000BB6900224021F86800F0FCFA0346002BEC
:1033800001D0032300E0002318461037BD4680BD5E
:1033900080B584B000AF786039600023FB730023F0
:1033A000BB8100237B8100233B817B6893F8413004
:1033B000DBB203F02803282B65D17B681B689B696F
:1033C00003F480331B0CFB737B681B689B6903F45D
:1033D0007E031B0CBB817B681B689B689BB2C3F39D
:1033E00009037B817B681B68DB689BB203F0FE03EB
:1033F0003B817B68DB68022B36D1BB897A89D20995
:1034000092B2534003F00603002B1CD17B89BB8191
:103410007B689B6C5A1C7B689A647B689B6C022B54
:1034200039D17B6800229A647B681B680822DA61C4
:103430007B68002283F84020BA89FB7B19467868B4
:10344000FFF7D2FD27E03B89BB810421786800F0BB
:10345000D3FB7B68002283F84020BA89FB7B1946A6
:103460007868FFF7C1FD16E00421786800F0C4FB1E
:103470007B68002283F84020BA89FB7B1946786874
:10348000FFF7B2FD07E07B681B680822DA617B6802
:10349000002283F8402000BF1037BD4680BD00BF2A
:1034A00080B582B000AF78607B68002283F842204C
:1034B0007B6893F84130DBB2292B12D17B6828223C
:1034C00083F841207B6821221A630121786800F08B
:1034D00093FB7B68002283F840207868FFF770FD3B
:1034E00017E07B6893F84130DBB22A2B11D17B685F
:1034F000282283F841207B6822221A6302217868FF
:1035000000F07AFB7B68002283F840207868FFF7A0
:1035100061FD00BF0837BD4680BD00BF80B582B0E9
:1035200000AF786039607B681B682022DA617B68B5
:103530001B680822DA610721786800F05DFB7B6870
:103540001B687A681268526842F400425A607B68CD
:103550001A687B681B685968554B0B405360786844
:1035600000F0B8F97B681B681B6803F48043002BEC
:1035700006D17B681B681B6803F40043002B12D044
:103580007B6893F84130DBB2212B05D17B689B6BC4
:103590001B685B689BB204E07B68DB6B1B685B6845
:1035A0009BB27A6853857B685B8D9BB2002B05D0FC
:1035B0007B685B6C43F004027B685A643B6803F0F1
:1035C0000403002B20D07B685B6A591C7A68516227
:1035D0007A681268526AD2B21A707B681B8D002B0F
:1035E00012D07B681B8D013B9AB27B681A857B6881
:1035F0005B8D9BB2013B9AB27B685A857B685B6CA2
:1036000043F004027B685A647B6800221A637B687B
:10361000002283F842207B6800225A637B685B6C3F
:10362000002B10D07B685B6C1946786800F096F828
:103630007B6893F84130DBB2282B35D13968786844
:1036400000F03AF830E07B68DB6A13F5803F0ED07B
:103650007B68184ADA627B68202283F841207B6805
:10366000002283F840207868FFF7CCFC1CE07B68E0
:1036700093F84130DBB2222B0BD17B68202283F8F8
:1036800041207B68002283F840207868FFF7A2FC85
:103690000AE07B68202283F841207B68002283F8BF
:1036A00040207868FFF78CFC00BF0837BD4680BD1E
:1036B00000E800FE0000FFFF80B582B000AF786038
:1036C00039607B68244ADA627B6800221A637B686F
:1036D000202283F841207B68002283F842207B6807
:1036E00000225A633B6803F00403002B20D07B6860
:1036F0005B6A591C7A6851627A681268526AD2B25F
:103700001A707B681B8D002B12D07B681B8D013BD0
:103710009AB27B681A857B685B8D9BB2013B9AB23B
:103720007B685A857B685B6C43F004027B685A6453
:103730000721786800F060FA7B681B681022DA6164
:103740007B68002283F840207868FFF75BFC00BFAD
:103750000837BD4680BD00BF0000FFFF80B582B0C6
:1037600000AF786039607B68002283F842207B6874
:10377000554ADA627B6800225A857B685A6C3B683E
:103780001A437B685A647B6893F84130DBB2282B7C
:103790000BD07B6893F84130DBB2292B05D07B68D6
:1037A00093F84130DBB22A2B0ED10321786800F068
:1037B00023FA7B68282283F841207B6800221A6361
:1037C0007B68424A5A6313E00721786800F014FAD4
:1037D0007B6893F84130DBB2602B03D07B682022FA
:1037E00083F841207B6800221A637B6800225A63B9
:1037F0007B681B681B6803F48043002B1FD07B6829
:103800001B687A681268126822F480421A607B682A
:103810009B6B2F4A5A637B68002283F840207B68A9
:103820009B6B1846FEF74EFC0346002B47D07B6887
:103830009B6B5B6B7A68926B104698473FE07B68A6
:103840001B681B6803F40043002B1FD07B681B68B8
:103850007A681268126822F400421A607B68DB6B97
:103860001B4A5A637B68002283F840207B68DB6B2D
:103870001846FEF727FC0346002B20D07B68DB6B45
:103880005B6B7A68D26B1046984718E07B6893F8B8
:103890004130DBB2602B0BD17B68202283F84120C2
:1038A0007B68002283F840207868FFF7BFFB06E0C2
:1038B0007B68002283F840207868FFF7ADFB00BFEB
:1038C0000837BD4680BD00BF0000FFFF4130000843
:1038D0001D39000880B483B000AF78607B681B6836
:1038E0009B6903F00203002B03D07B681B68002256
:1038F0009A627B681B689B6903F00103002B07D168
:103900007B681B687A681268926942F001029A61CA
:1039100000BF0C37BD465DF8047B704780B584B0AE
:1039200000AF78607B685B6AFB60FB681B68FA68C5
:103930001268526842F400425A60FB689B6B002296
:103940005A63FB68DB6B00225A63FB6893F84130D3
:10395000DBB2602B07D1FB68202283F84120F86896
:10396000FFF764FB02E0F868FFF756FB00BF103773
:10397000BD4680BD80B584B000AFF860B9603B60E3
:103980001346FB711CE03B68B3F1FF3F18D03B6866
:10399000002B07D0FEF7AAF90246BB69D21A3B6892
:1039A0009A420DD9FB68202283F84120FB6800224F
:1039B00083F84220FB68002283F8402003230FE0B5
:1039C000FB681B689A69BB681A40BB689A420CBFC7
:1039D00001230023DBB21A46FB799A42D3D000239D
:1039E00018461037BD4680BD80B584B000AFF86082
:1039F000B9607A602CE07A68B968F86800F070F80D
:103A00000346002B01D001232AE0BB68B3F1FF3F3E
:103A10001ED0BB68002B07D0FEF768F902467B6812
:103A2000D21ABB689A4213D9FB685B6C43F0200240
:103A3000FB685A64FB68202283F84120FB6800225F
:103A400083F84220FB68002283F84020032307E02C
:103A5000FB681B689B6903F00203002BCBD000239B
:103A600018461037BD4680BD80B584B000AFF86001
:103A7000B9607A6028E07A68B968F86800F030F8D0
:103A80000346002B01D0012326E0BB68002B07D0A2
:103A9000FEF72CF902467B68D21ABB689A4213D90A
:103AA000FB685B6C43F02002FB685A64FB682022D1
:103AB00083F84120FB68002283F84220FB68002243
:103AC00083F84020032307E0FB681B689B6903F031
:103AD0002003002BCFD0002318461037BD4680BDF1
:103AE00080B584B000AFF860B9607A60FB681B688D
:103AF0009B6903F01003002B48D01CE0BB68B3F1B6
:103B0000FF3F18D0BB68002B07D0FEF7EFF8024646
:103B10007B68D21ABB689A420DD9FB68202283F8D1
:103B20004120FB68002283F84220FB68002283F8D2
:103B3000402003232BE0FB681B689B6903F02003F4
:103B4000002BDBD0FB681B681022DA61FB681B6866
:103B50002022DA61F868FFF7BDFEFB681A68FB688F
:103B60001B6859680C4B0B405360FB6804225A6475
:103B7000FB68202283F84120FB68002283F8422062
:103B8000FB68002283F84020012300E00023184650
:103B90001037BD4680BD00BF00E800FE80B487B08E
:103BA00000AFF8607B600B467B8113467B7200237D
:103BB0007B61FB681B685B687B617A690D4B134016
:103BC0007B617B89C3F309027B7A1B0403F47F03C7
:103BD0001A437B681A433B6A13437A6913437B6138
:103BE000FB681B687A695A6000BF1C37BD465DF8E8
:103BF000047B7047009800FC80B485B000AF78600B
:103C00000B467B800023FB607B8803F00103002BC5
:103C10000FD0FB6843F04203FB607B6893F84130B0
:103C2000DBB203F02803282B03D0FB6843F0B0037A
:103C3000FB607B8803F00203002B0FD0FB6843F08E
:103C40004403FB607B6893F84130DBB203F0280348
:103C5000282B03D0FB6843F0B003FB607B8803F0A4
:103C60000403002B03D0FB6843F0B803FB607B88A0
:103C700003F01103112B03D1FB6843F09003FB60A9
:103C80007B8803F01203122B03D1FB6843F020035F
:103C9000FB607B8803F01203122B03D1FB6843F017
:103CA0004003FB607B681B687A6812681168FA68D9
:103CB000D2430A401A60002318461437BD465DF807
:103CC000047B704780B483B000AF786039607B6854
:103CD00093F84130DBB2202B38D17B6893F8403029
:103CE000012B01D1022332E07B68012283F84020BE
:103CF0007B68242283F841207B681B687A681268FD
:103D0000126822F001021A607B681B687A681268E8
:103D1000126822F480521A607B681B687A68126805
:103D200011683A680A431A607B681B687A681268EF
:103D3000126842F001021A607B68202283F8412059
:103D40007B68002283F84020002300E0022318460D
:103D50000C37BD465DF8047B704700BF90B5ADF5EC
:103D6000017D00AF3B1D18600023C7F8F8313B1DF3
:103D70001B681B6803F00103002B00F0E881B84BBF
:103D80005B6803F00C03042B0CD0B54B5B6803F0AD
:103D90000C03082B40F08280B14B5B6803F4803346
:103DA000002B7BD04FF40033C7F80431D7F804312F
:103DB00093FAA3F207F580731A6007F580731B6806
:103DC000B3FA83F3DBB243F02003DBB2DBB25B096F
:103DD000DBB2012B02D1A24B1B6839E04FF4003358
:103DE000C7F8D431D7F8D43193FAA3F207F1FC0322
:103DF0001A6007F1FC031B68B3FA83F3DBB243F0EC
:103E00002003DBB2DBB25B09DBB2022B02D1944BA5
:103E10001B6A1DE04FF40033C7F8D031D7F8D0311A
:103E200093FAA3F207F1F8031A6007F1F8031B688D
:103E3000B3FA83F3DBB243F02003DBB2DBB25B09FE
:103E4000DBB2042B02D1864B5B6801E0844B5B6ADA
:103E50004FF40032C7F8CC21D7F8CC2192FAA2F166
:103E600007F1F402116007F1F4021268B2FA82F26B
:103E7000D2B242F02002D2B2D2B202F01F02D3403C
:103E800003F00103002B00F061813B1D1B685B68A0
:103E9000002B40F05B81012301F01AB83B1D1B6829
:103EA0005B68B3F5803F06D16D4A6D4B1B6843F4E8
:103EB0008033136030E03B1D1B685B68002B0CD126
:103EC000674A674B1B6823F480331360644A644B72
:103ED0001B6823F4802313601EE03B1D1B685B6896
:103EE000B3F5A02F0CD15E4A5D4B1B6843F48023D1
:103EF00013605B4A5A4B1B6843F4803313600BE03A
:103F0000574A574B1B6823F480331360544A544B71
:103F10001B6823F4802313605149514BDB6A23F063
:103F20000F023B1D1B689B681343CB623B1D1B6844
:103F30005B68002B00F08380FDF7D8FEC7F8F8011E
:103F40000AE0FDF7D3FE0246D7F8F831D31A642B06
:103F500002D9032300F0BCBF4FF40033C7F8C831C7
:103F6000D7F8C83193FAA3F207F1F0031A6007F10A
:103F7000F0031B68B3FA83F3DBB243F02003DBB238
:103F8000DBB25B09DBB2012B02D1354B1B6839E098
:103F90004FF40033C7F8F431D7F8F43193FAA3F2B1
:103FA00007F1EC031A6007F1EC031B68B3FA83F323
:103FB000DBB243F02003DBB2DBB25B09DBB2022BE6
:103FC00002D1274B1B6A1DE04FF40033C7F8F031D4
:103FD000D7F8F03193FAA3F207F1E8031A6007F17A
:103FE000E8031B68B3FA83F3DBB243F02003DBB2D0
:103FF000DBB25B09DBB2042B02D1194B5B6801E039
:10400000174B5B6A4FF40032C7F8EC21D7F8EC216C
:1040100092FAA2F107F1E402116007F1E4021268DA
:10402000B2FA82F2D2B242F02002D2B2D2B202F09E
:104030001F02D34003F00103002B82D087E0FDF77D
:1040400055FEC7F8F8010DE0FDF750FE0246D7F81F
:10405000F831D31A642B05D9032300F039BF00BF10
:10406000001002404FF40033C7F8E831D7F8E831C8
:1040700093FAA3F207F1E0031A6007F1E0031B686B
:10408000B3FA83F3DBB243F02003DBB2DBB25B09AC
:10409000DBB2012B02D1B64B1B6839E04FF4003381
:1040A000C7F8E431D7F8E43193FAA3F207F1DC035F
:1040B0001A6007F1DC031B68B3FA83F3DBB243F049
:1040C0002003DBB2DBB25B09DBB2022B02D1A84BCF
:1040D0001B6A1DE04FF40033C7F8E031D7F8E03138
:1040E00093FAA3F207F1D8031A6007F1D8031B680B
:1040F000B3FA83F3DBB243F02003DBB2DBB25B093C
:10410000DBB2042B02D19A4B5B6801E0984B5B6AEF
:104110004FF40032C7F8DC21D7F8DC2192FAA2F183
:1041200007F1D402116007F1D4021268B2FA82F2E8
:10413000D2B242F02002D2B2D2B202F01F02D34079
:1041400003F00103002B7FF47FAF00E000BF3B1DB5
:104150001B681B6803F00203002B00F0F481844B02
:104160005B6803F00C03002B0DD0814B5B6803F000
:104170000C03082B40F099807D4B5B6803F480337F
:10418000002B40F092800223C7F8D831D7F8D831FD
:1041900093FAA3F207F1D0031A6007F1D0031B686A
:1041A000B3FA83F3DBB243F02003DBB2DBB25B098B
:1041B000DBB2012B02D16E4B1B6837E00223C7F83C
:1041C0009831D7F8983193FAA3F207F1CC031A602B
:1041D00007F1CC031B68B3FA83F3DBB243F020038F
:1041E000DBB2DBB25B09DBB2022B02D1604B1B6A94
:1041F0001CE00223C7F89431D7F8943193FAA3F264
:1042000007F1C8031A6007F1C8031B68B3FA83F308
:10421000DBB243F02003DBB2DBB25B09DBB2042B81
:1042200002D1534B5B6801E0514B5B6A0222C7F835
:104230009021D7F8902192FAA2F107F1C4021160FF
:1042400007F1C4021268B2FA82F2D2B242F020023E
:10425000D2B2D2B202F01F02D34003F00103002B0E
:1042600007D03B1D1B681B69012B02D0012300F006
:104270002FBE3F4C3E4B1B6823F0F8023B1D1B68D2
:104280005969F823C7F88C31D7F88C3193FAA3F029
:1042900007F1C003186007F1C0031B68B3FA83F38A
:1042A00001FA03F3134323604DE13B1D1B681B69B7
:1042B000002B00F0B3800123C7F88831D7F888318C
:1042C00093FAA3F207F1BC031A6007F1BC031B6861
:1042D000B3FA83F39B0003F1844303F584031A4686
:1042E00001231360FDF702FDC7F8F8010AE0FDF7AE
:1042F000FDFC0246D7F8F831D31A022B02D903236A
:1043000000F0E6BD0223C7F8C431D7F8C43193FAF0
:10431000A3F207F1B8031A6007F1B8031B68B3FAF8
:1043200083F3DBB243F02003DBB2DBB25B09DBB229
:10433000012B02D10E4B1B6839E00223C7F8C031B4
:10434000D7F8C03193FAA3F207F1B4031A6007F16A
:10435000B4031B68B3FA83F3DBB243F02003DBB290
:10436000DBB25B09DBB2022B04D1014B1B6A1EE0FE
:10437000001002400223C7F8BC31D7F8BC3193FAD1
:10438000A3F207F1B0031A6007F1B0031B68B3FA98
:1043900083F3DBB243F02003DBB2DBB25B09DBB2B9
:1043A000042B02D1B94B5B6801E0B84B5B6A022277
:1043B000C7F8B821D7F8B82192FAA2F107F1AC02F8
:1043C000116007F1AC021268B2FA82F2D2B242F086
:1043D0002002D2B2D2B202F01F02D34003F0010396
:1043E000002B84D0A94CA94B1B6823F0F8023B1D7D
:1043F0001B685969F823C7F8B431D7F8B43193FA78
:10440000A3F007F1A803186007F1A8031B68B3FA2B
:1044100083F301FA03F31343236094E00123C7F805
:10442000B031D7F8B03193FAA3F207F1A4031A60C0
:1044300007F1A4031B68B3FA83F39B0003F18443E1
:1044400003F584031A4600231360FDF74FFCC7F8F9
:10445000F8010AE0FDF74AFC0246D7F8F831D31A12
:10446000022B02D9032300F033BD0223C7F8AC317D
:10447000D7F8AC3193FAA3F207F1A0031A6007F161
:10448000A0031B68B3FA83F3DBB243F02003DBB273
:10449000DBB25B09DBB2012B02D17C4B1B6837E03E
:1044A0000223C7F8A831D7F8A83193FAA3F207F18D
:1044B0009C031A6007F19C031B68B3FA83F3DBB219
:1044C00043F02003DBB2DBB25B09DBB2022B02D18B
:1044D0006E4B1B6A1CE00223C7F8A431D7F8A43145
:1044E00093FAA3F207F198031A6007F198031B6887
:1044F000B3FA83F3DBB243F02003DBB2DBB25B0938
:10450000DBB2042B02D1614B5B6801E05F4B5B6A5D
:104510000222C7F8A021D7F8A02192FAA2F107F150
:104520009402116007F194021268B2FA82F2D2B2D8
:1045300042F02002D2B2D2B202F01F02D34003F006
:104540000103002B86D13B1D1B681B6803F0080389
:10455000002B00F032813B1D1B689B69002B00F093
:1045600099800123C7F89C31D7F89C3193FAA3F2C4
:1045700007F190031A6007F190031B68B3FA83F305
:104580009B001A46424B13441A4601231360FDF761
:10459000ADFBC7F8F8010AE0FDF7A8FB0246D7F823
:1045A000F831D31A022B02D9032300F091BC022365
:1045B000C7F88431D7F8843193FAA3F207F18C035A
:1045C0001A6007F18C031B68B3FA83F3DBB243F084
:1045D0006003DBB2DBB25B09DBB2012B02D12B4BF8
:1045E0001B6837E00223C7F88031D7F8803193FA8F
:1045F000A3F207F188031A6007F188031B68B3FA76
:1046000083F3DBB243F06003DBB2DBB25B09DBB206
:10461000022B02D11D4B1B6A1CE00223C7F87C3120
:10462000D7F87C3193FAA3F207F184031A6007F1FB
:1046300084031B68B3FA83F3DBB243F06003DBB29D
:10464000DBB25B09DBB2042B02D1104B5B6801E0EB
:104650000E4B5B6A0222C7F87821D7F8782192FACC
:10466000A2F107F18002116007F180021268B2FA2C
:1046700082F2D2B242F06002D2B2D2B202F01F0293
:10468000D34003F00103002B86D096E000100240D7
:10469000800442420123C7F87431D7F8743193FA89
:1046A000A3F207F17C031A6007F17C031B68B3FADD
:1046B00083F39B001A46B54B13441A46002313603C
:1046C000FDF714FBC7F8F80109E0FDF70FFB024600
:1046D000D7F8F831D31A022B01D90323F8E30223C8
:1046E000C7F87031D7F8703193FAA3F207F1780365
:1046F0001A6007F178031B68B3FA83F3DBB243F067
:104700006003DBB2DBB25B09DBB2012B02D1A04B51
:104710001B6837E00223C7F86C31D7F86C3193FA85
:10472000A3F207F174031A6007F174031B68B3FA6C
:1047300083F3DBB243F06003DBB2DBB25B09DBB2D5
:10474000022B02D1924B1B6A1CE00223C7F868318E
:10475000D7F8683193FAA3F207F170031A6007F1F2
:1047600070031B68B3FA83F3DBB243F06003DBB280
:10477000DBB25B09DBB2042B02D1854B5B6801E045
:10478000834B5B6A0222C7F86421D7F8642192FA4E
:10479000A2F107F16C02116007F16C021268B2FA23
:1047A00082F2D2B242F06002D2B2D2B202F01F0262
:1047B000D34003F00103002B87D13B1D1B681B680E
:1047C00003F00403002B00F08F81002387F8FF31F2
:1047D0006F4BDB6903F08053002B12D16C4A6C4B9A
:1047E000DB6943F08053D361694BDB6903F080528E
:1047F00007F10C031A6007F10C031B68012387F80B
:10480000FF31644B1B6803F48073002B1AD1614A9B
:10481000604B1B6843F480731360FDF767FAC7F8B9
:10482000F80109E0FDF762FA0246D7F8F831D31A29
:10483000642B01D903234BE3564B1B6803F48073AD
:10484000002BEFD03B1D1B68DB68012B06D1504AC3
:104850004F4B1B6A43F0010313622FE03B1D1B68A3
:10486000DB68002B0CD14A4A494B1B6A23F0010339
:104870001362474A464B1B6A23F0040313621DE090
:104880003B1D1B68DB68052B0CD1414A404B1B6A62
:1048900043F0040313623E4A3D4B1B6A43F001039D
:1048A00013620BE03A4A3A4B1B6A23F0010313628E
:1048B000374A374B1B6A23F0040313623B1D1B6806
:1048C000DB68002B00F08780FDF710FAC7F8F801CD
:1048D0000BE0FDF70BFA0246D7F8F831D31A41F294
:1048E0008832934201D90323F2E20223C7F86031F0
:1048F000D7F8603193FAA3F207F168031A6007F161
:1049000068031B68B3FA83F3DBB243F04003DBB206
:10491000DBB25B09DBB2012B02D11D4B1B683DE012
:104920000223C7F85C31D7F85C3193FAA3F207F1A0
:1049300064031A6007F164031B68B3FA83F3DBB204
:1049400043F04003DBB2DBB25B09DBB2022B02D1E6
:104950000F4B1B6A22E00223C7F85831D7F85831B1
:1049600093FAA3F207F160031A6007F160031B6872
:10497000B3FA83F3DBB243F04003DBB2DBB25B0993
:10498000DBB2042B08D1024B5B6807E08004424293
:104990000010024000700040BF4B5B6A0222C7F863
:1049A0005421D7F8542192FAA2F107F15C02116068
:1049B00007F15C021268B2FA82F2D2B242F040020F
:1049C000D2B2D2B202F01F02D34003F00103002B97
:1049D0003FF47FAF7EE0FDF789F9C7F8F8010BE0FF
:1049E000FDF784F90246D7F8F831D31A41F288323C
:1049F000934201D903236BE20223C7F85031D7F861
:104A0000503193FAA3F207F158031A6007F15803E3
:104A10001B68B3FA83F3DBB243F04003DBB2DBB2D3
:104A20005B09DBB2012B02D19B4B1B6837E00223F1
:104A3000C7F84C31D7F84C3193FAA3F207F154037D
:104A40001A6007F154031B68B3FA83F3DBB243F037
:104A50004003DBB2DBB25B09DBB2022B02D18E4B2F
:104A60001B6A1CE00223C7F84831D7F8483193FA93
:104A7000A3F207F150031A6007F150031B68B3FA61
:104A800083F3DBB243F04003DBB2DBB25B09DBB2A2
:104A9000042B02D1804B5B6801E07F4B5B6A0222F2
:104AA000C7F84421D7F8442192FAA2F107F14C0249
:104AB000116007F14C021268B2FA82F2D2B242F0EF
:104AC0004002D2B2D2B202F01F02D34003F001037F
:104AD000002B85D197F8FF31012B05D16E4A6E4B23
:104AE000DB6923F08053D3613B1D1B68DB69002B1E
:104AF00000F0ED81684B5B6803F00C03082B00F0BD
:104B0000E4813B1D1B68DB69022B40F044814FF0C0
:104B10008073C7F84031D7F8403193FAA3F207F118
:104B200048031A6007F148031B68B3FA83F39B003C
:104B300003F1844303F584031A4600231360FDF751
:104B4000D5F8C7F8F80109E0FDF7D0F80246D7F824
:104B5000F831D31A022B01D90323B9E14FF00073C6
:104B6000C7F83C31D7F83C3193FAA3F207F144037C
:104B70001A6007F144031B68B3FA83F3DBB243F016
:104B80002003DBB2DBB25B09DBB2012B02D1424B6B
:104B90001B6839E04FF00073C7F83831D7F8383167
:104BA00093FAA3F207F140031A6007F140031B6870
:104BB000B3FA83F3DBB243F02003DBB2DBB25B0971
:104BC000DBB2022B02D1344B1B6A1DE04FF00073A5
:104BD000C7F83431D7F8343193FAA3F207F13C0324
:104BE0001A6007F13C031B68B3FA83F3DBB243F0AE
:104BF0002003DBB2DBB25B09DBB2042B02D1264B14
:104C00005B6801E0244B5B6A4FF00072C7F830210B
:104C1000D7F8302192FAA2F107F13802116007F1BA
:104C200038021268B2FA82F2D2B242F02002D2B254
:104C3000D2B202F01F02D34003F00103002B83D154
:104C40001548154B5B6823F474123B1D1B68596AA9
:104C50003B1D1B681B6A0B43134343604FF080737B
:104C6000C7F82C31D7F82C3193FAA3F207F13403AB
:104C70001A6007F134031B68B3FA83F39B0003F156
:104C8000844303F584031A4601231360FDF72EF8CD
:104C9000C7F8F8010CE000BF00100240FDF726F84D
:104CA0000246D7F8F831D31A022B01D903230FE1BA
:104CB0004FF00073C7F82831D7F8283193FAA3F2E0
:104CC00007F130031A6007F130031B68B3FA83F36E
:104CD000DBB243F02003DBB2DBB25B09DBB2012BBA
:104CE00002D17E4B1B6839E04FF00073C7F82431C6
:104CF000D7F8243193FAA3F207F12C031A6007F1D5
:104D00002C031B68B3FA83F3DBB243F02003DBB25E
:104D1000DBB25B09DBB2022B02D1704B1B6A1DE0D8
:104D20004FF00073C7F82031D7F8203193FAA3F27F
:104D300007F128031A6007F128031B68B3FA83F30D
:104D4000DBB243F02003DBB2DBB25B09DBB2042B46
:104D500002D1624B5B6801E0604B5B6A4FF000720E
:104D6000C7F81C21D7F81C2192FAA2F107F12402FE
:104D7000116007F124021268B2FA82F2D2B242F054
:104D80002002D2B2D2B202F01F02D34003F00103DC
:104D9000002B83D09BE04FF08073C7F81831D7F811
:104DA000183193FAA3F207F120031A6007F12003E8
:104DB0001B68B3FA83F39B0003F1844303F5840378
:104DC0001A4600231360FCF791FFC7F8F80109E0C9
:104DD000FCF78CFF0246D7F8F831D31A022B01D921
:104DE000032375E04FF00073C7F81431D7F814317E
:104DF00093FAA3F207F11C031A6007F11C031B6866
:104E0000B3FA83F3DBB243F02003DBB2DBB25B091E
:104E1000DBB2012B02D1314B1B6839E04FF000733C
:104E2000C7F81031D7F8103193FAA3F207F118033D
:104E30001A6007F118031B68B3FA83F3DBB243F07F
:104E40002003DBB2DBB25B09DBB2022B02D1234BC6
:104E50001B6A1DE04FF00073C7F80C31D7F80C3116
:104E600093FAA3F207F114031A6007F114031B6805
:104E7000B3FA83F3DBB243F02003DBB2DBB25B09AE
:104E8000DBB2042B02D1154B5B6801E0134B5B6A6C
:104E90004FF00072C7F80821D7F8082192FAA2F162
:104EA00007F11002116007F110021268B2FA82F2E3
:104EB000D2B242F02002D2B2D2B202F01F02D340EC
:104EC00003F00103002B83D101E0012300E0002364
:104ED000184607F50177BD4690BD00BF001002409F
:104EE00080B59EB000AF7860396000237B67A34B2C
:104EF0001B6803F007023B689A4210D29F499F4B00
:104F00001B6823F007023B6813430B609B4B1B6835
:104F100003F007023B689A4201D00123D0E17B688D
:104F20001B6803F00203002B08D09549944B5B6883
:104F300023F0F0027B689B6813434B607B681B681F
:104F400003F00103002B00F068817B685B68012B94
:104F50005CD14FF400333B643B6C93FAA3F3FB63E7
:104F6000FB6BB3FA83F3DBB243F02003DBB2DBB2BB
:104F70005B09DBB2012B02D1814B1B682DE04FF4A2
:104F800000333B673B6F93FAA3F3BB63BB6BB3FA8E
:104F900083F3DBB243F02003DBB2DBB25B09DBB2AD
:104FA000022B02D1764B1B6A17E04FF40033FB66ED
:104FB000FB6E93FAA3F37B637B6BB3FA83F3DBB2F1
:104FC00043F02003DBB2DBB25B09DBB2042B02D17E
:104FD0006B4B5B6801E06A4B5B6A4FF40032BA6668
:104FE000BA6E92FAA2F23A633A6BB2FA82F2D2B293
:104FF00042F02002D2B2D2B202F01F02D34003F03C
:105000000103002B40F0BE80012359E17B685B68FF
:10501000022B5BD14FF000737B667B6E93FAA3F398
:10502000FB62FB6AB3FA83F3DBB243F02003DBB22B
:10503000DBB25B09DBB2012B02D1514B1B682DE0C7
:105040004FF000733B663B6E93FAA3F3BB62BB6AFF
:10505000B3FA83F3DBB243F02003DBB2DBB25B09CC
:10506000DBB2022B02D1464B1B6A17E04FF00073F4
:10507000FB65FB6D93FAA3F37B627B6AB3FA83F360
:10508000DBB243F02003DBB2DBB25B09DBB2042B03
:1050900002D13B4B5B6801E0394B5B6A4FF0007219
:1050A000BA65BA6D92FAA2F23A623A6AB2FA82F23A
:1050B000D2B242F02002D2B2D2B202F01F02D340EA
:1050C00003F00103002B5DD10123F9E002237B658E
:1050D0007B6D93FAA3F3FB61FB69B3FA83F3DBB255
:1050E00043F02003DBB2DBB25B09DBB2012B02D160
:1050F000234B1B682BE002233B653B6D93FAA3F324
:10510000BB61BB69B3FA83F3DBB243F02003DBB2CC
:10511000DBB25B09DBB2022B02D1194B1B6A16E032
:105120000223FB64FB6C93FAA3F37B617B69B3FA04
:1051300083F3DBB243F02003DBB2DBB25B09DBB20B
:10514000042B02D10E4B5B6801E00D4B5B6A02221F
:10515000BA64BA6C92FAA2F23A613A69B2FA82F28D
:10516000D2B242F02002D2B2D2B202F01F02D34039
:1051700003F00103002B05D10123A1E00020024030
:10518000001002405049504B5B6823F003027B68DB
:105190005B6813434B60FCF7A9FD78677B685B682D
:1051A000012B12D10AE0FCF7A1FD02467B6FD31A56
:1051B00041F28832934201D9032381E0424B5B687C
:1051C00003F00C03042BEED127E07B685B68022B15
:1051D0001DD10AE0FCF78AFD02467B6FD31A41F22B
:1051E0008832934201D903236AE0374B5B6803F0AE
:1051F0000C03082BEED110E0FCF778FD02467B6F24
:10520000D31A41F28832934201D9032358E02E4B3E
:105210005B6803F00C03002BEED12C4B1B6803F0F2
:1052200007023B689A4210D92849284B1B6823F093
:1052300007023B6813430B60244B1B6803F0070213
:105240003B689A4201D001233AE07B681B6803F077
:105250000403002B08D01C491B4B5B6823F4E0625D
:105260007B68DB6813434B607B681B6803F00803B3
:10527000002B09D01449144B5B6823F460527B68FF
:105280001B69DB0013434B6000F026F801460E4B10
:105290005B6803F0F002F0237B647B6C93FAA3F36A
:1052A000FB60FB68B3FA83F322FA03F3084AD35C8A
:1052B00021FA03F3074A13600020FCF7EDFC0023FA
:1052C00018467837BD4680BD0010024000200240DD
:1052D000209A00082C04002080B48BB000AF00237B
:1052E000FB610023BB6100237B6200237B61002301
:1052F0003B62294B5B68FB61FB6903F00C03042BE9
:1053000002D0082B03D03CE0244B3B623CE0FB691D
:1053100003F470124FF470133B613B6993FAA3F3EB
:105320007B607B68B3FA83F322FA03F31C4AD35CF5
:105330007B61194BDB6A03F00F020F23FB60FB68F4
:1053400093FAA3F3BB60BB68B3FA83F322FA03F3C7
:10535000144AD35CBB61FB6903F48033002B08D093
:105360000E4ABB69B2FBF3F37A6902FB03F37B627B
:1053700004E07B690C4A02FB03F37B627B6A3B62BD
:1053800002E0064B3B6200BF3B6A18462C37BD4625
:105390005DF8047B704700BF0010024000127A00E5
:1053A000389A0008489A000800093D0080B400AF10
:1053B000034B1B681846BD465DF8047B704700BF71
:1053C0002C04002080B582B000AFFFF7EFFF01464C
:1053D0000B4B5B6803F4E0624FF4E0637B607B6837
:1053E00093FAA3F33B603B68B3FA83F322FA03F327
:1053F000044AD35C21FA03F318460837BD4680BD42
:1054000000100240309A000880B582B000AFFFF76C
:10541000CDFF01460B4B5B6803F460524FF46053C1
:105420007B607B6893FAA3F33B603B68B3FA83F33A
:1054300022FA03F3044AD35C21FA03F3184608372F
:10544000BD4680BD00100240309A000880B592B081
:1054500000AF786000233B640023FB637B681B681C
:1054600003F48033002B00F0EF80002387F84730EF
:10547000964BDB6903F08053002B0ED1934A934B7C
:10548000DB6943F08053D361904BDB6903F08053B9
:10549000BB60BB68012387F847308D4B1B6803F462
:1054A0008073002B18D18A4A894B1B6843F48073A0
:1054B0001360FCF71BFC386408E0FCF717FC02469D
:1054C0003B6CD31A642B01D90323FAE0804B1B6891
:1054D00003F48073002BF0D07C4B1B6A03F4407301
:1054E000FB63FB6B002B00F09C807B685B6803F424
:1054F0004072FB6B9A4200F09480744B1B6A23F459
:105500004073FB634FF480337B637B6B93FAA3F3AD
:10551000FB61FB69B3FA83F39B001A466D4B13449E
:105520001A46012313604FF480337B627B6A93FA3F
:10553000A3F33B623B6AB3FA83F39B001A46654BC5
:1055400013441A4600231360604AFB6B1362FB6B23
:1055500003F00103002B64D0FCF7C8FB38640AE0B9
:10556000FCF7C4FB02463B6CD31A41F288329342EB
:1055700001D90323A5E00223BB63BB6B93FAA3F31A
:10558000BB61BB69B3FA83F3DBB243F04003DBB228
:10559000DBB25B09DBB2012B02D14C4B1B682BE069
:1055A00002233B633B6B93FAA3F37B617B69B3FA02
:1055B00083F3DBB243F04003DBB2DBB25B09DBB267
:1055C000022B02D1414B1B6A16E00223FB62FB6AED
:1055D00093FAA3F33B613B69B3FA83F3DBB243F085
:1055E0004003DBB2DBB25B09DBB2042B02D1374BE9
:1055F0005B6801E0354B5B6A0222BA62BA6A92FAD2
:10560000A2F2FA60FA68B2FA82F2D2B242F0400232
:10561000D2B2D2B202F01F02D34003F00103002B3A
:105620009ED02A49294B1B6A23F440727B685B6831
:1056300013430B6297F84730012B05D1234A234BC4
:10564000DB6923F08053D3617B681B6803F001039F
:10565000002B08D01D491D4B1B6B23F003027B68F8
:105660009B6813430B637B681B6803F02003002BCC
:1056700008D01649154B1B6B23F010027B68DB68C2
:1056800013430B637B681B6803F08003002B08D077
:105690000E490E4BDB6A23F4F8727B681B691343D7
:1056A000CB627B681B6803F48053002B08D007494A
:1056B000064B1B6B23F480727B685B6913430B639F
:1056C000002318464837BD4680BD00BF0010024089
:1056D000007000400004424280B582B000AF7860A4
:1056E0007B68002B01D1012343E07B6893F869308C
:1056F000DBB2002B06D17B68002283F86820786833
:10570000FCF730FA7B68242283F869207B681B68E9
:105710007A681268126822F001021A60786800F054
:10572000A1F80346012B01D1012322E07B685B6ACB
:10573000002B02D0786800F0FBF97B681B687A6860
:105740001268526822F490425A607B681B687A683B
:105750001268926822F02A029A607B681B687A6855
:105760001268126842F001021A60786800F082FA4A
:10577000034618460837BD4680BD00BF80B586B0D9
:1057800000AFF860B9601346FB80FB6893F869309E
:10579000DBB2202B50D1BB68002B02D0FB88002B42
:1057A00001D1012349E0FB6893F86830012B01D156
:1057B000022342E0FB68012283F86820BA68FB6894
:1057C000DA64FB68FA88A3F85020FB68FA88A3F82B
:1057D0005220FB680022DA66FB68212283F86920E8
:1057E000FB681B6E174A9A62FB681B6E164ADA62E8
:1057F000FB681B6E154A1A6307F108037B61FB689F
:10580000186E7B691968FB681B6828331A46FB8889
:10581000FCF70EFCFB681B6840221A62FB681B68E1
:10582000FA681268926842F080029A60FB6800226F
:1058300083F86820002300E0022318461837BD468D
:1058400080BD00BF355E0008895E0008A55E0008C7
:1058500080B483B000AF786000BF0C37BD465DF800
:10586000047B704790B587B000AF78600023FB6081
:105870001023FB7500237B810023BB820023FB7474
:105880007B689A687B681B691A437B685B691A436B
:105890007B68DB691343FB607B681A687B681B6865
:1058A00019689E4B0B40F9680B4313607B681B68BB
:1058B0007A681268526822F440517A68D2680A43C2
:1058C0005A607B689A697B681B6A1343FB607B683C
:1058D0001B687A681268926822F43061FA680A4399
:1058E0009A607B681B688E4A934221D18D4B1B6B5B
:1058F00003F00303032B17D801A252F823F000BFD3
:10590000115900081D5900082359000817590008AB
:105910000023FB751EE00223FB751BE00423FB75CF
:1059200018E00823FB7515E01023FB7500BF11E09C
:105930007B681B687C4A934202D10023FB7509E017
:105940007B681B68794A934202D10023FB7501E012
:105950001023FB757B68DB69B3F5004F70D1FB7DCD
:10596000082B57D801A252F823F000BF9159000824
:10597000AD590008C9590008155A0008E359000834
:10598000155A0008155A0008155A0008FF59000852
:10599000FFF718FD03465A007B685B685B081A44F2
:1059A0007B685B68B2FBF3F3BB8236E0FFF72CFD4C
:1059B00003465A007B685B685B081A447B685B6837
:1059C000B2FBF3F3BB8228E07B685B685B0803F5FE
:1059D000740303F510537A685268B3FBF2F3BB8289
:1059E0001BE0FFF779FC03465A007B685B685B08A5
:1059F0001A447B685B68B2FBF3F3BB820DE07B6803
:105A00005B685B0803F580327B685B68B2FBF3F38D
:105A1000BB8202E00123FB7400BFBB8A23F00F03AB
:105A20007B81BB8A5B109BB203F007039AB27B8930
:105A300013439BB27B817B681B687A89DA6068E0DC
:105A4000FB7D082B62D801A252F823F0715A00089E
:105A5000915A0008B15A00080D5B0008D15A00089D
:105A60000D5B00080D5B00080D5B0008F15A000893
:105A70007B681C68FFF7A6FC02467B685B685B08D6
:105A80001A447B685B68B2FBF3F39BB2E36040E0CF
:105A90007B681C68FFF7B8FC02467B685B685B08A4
:105AA0001A447B685B68B2FBF3F39BB2E36030E0BF
:105AB0007B681A687B685B685B0803F5F40303F591
:105AC000905379684968B3FBF1F39BB2D36020E04F
:105AD0007B681C68FFF700FC02467B685B685B081C
:105AE0001A447B685B68B2FBF3F39BB2E36010E09F
:105AF0007B681B687A685268520802F500417A6830
:105B00005268B1FBF2F292B2DA6002E00123FB7458
