:020000040800F2
:100000000030002069030008CD050008DD05000868
:10001000E5050008ED050008F505000800000000F2
:10002000000000000000000000000000FD050008C6
:100030000D060008000000001D0600082D0600083F
:10004000B9030008B9030008B9030008B9030008A0
:10005000B9030008B9030008B9030008B903000890
:10006000B9030008B9030008B9030008B903000880
:10007000B9030008B9030008B9030008B903000870
:10008000B9030008B9030008B9030008B903000860
:10009000B9030008B9030008B9030008B903000850
:1000A000B9030008B9030008B9030008B903000840
:1000B000B9030008B903000800000000B9030008F4
:1000C000B90300080000000000000000B9030008A8
:1000D00000000000B9030008B9030008B9030008D4
:1000E000B9030008B9030008000000000000000088
:1000F0000000000000000000000000000000000000
:1001000000000000000000000000000000000000EF
:100110000000000000000000B9030008B903000857
:1001200000000000000000000000000000000000CF
:1001300000000000000000000000000000000000BF
:10014000B9030008B9030008000000000000000027
:10015000000000000000000000000000000000009F
:10016000000000000000000000000000000000008F
:10017000000000000000000000000000000000007F
:0801800000000000B9030008B3
:10018800044B05481B1A062B02D9044B03B1184728
:10019800704700BF2F0400202C040020000000003E
:1001A80005490648091A891001EBD171491002D096
:1001B800034B03B1184770472C0400202C0400207F
:1001C8000000000010B5064C237843B9FFF7D8FFAC
:1001D800044B13B10448AFF300800123237010BD12
:1001E8002C040020000000007C27000808B5084BFC
:1001F8001BB108490848AFF300800848036813B9E1
:10020800BDE80840CCE7064B002BF9D09847F7E744
:1002180000000000300400207C2700082C04002087
:100228000000000070B50F4E0F4D761BB61018BFBA
:10023800002405D0013455F8043B9847A642F9D16B
:100248000A4E0B4D761B02F095FAB61018BF002423
:1002580006D0013455F8043B9847A642F9D170BD41
:1002680070BD00BFCC270008CC270008D4270008A1
:10027800CC270008024B13B1024800F005B87047BC
:10028800000000009D020008002301461A46184697
:1002980000F014B838B5074D074C2C1BA41005D036
:1002A800013C55F8043D9847002CF9D1BDE8384089
:1002B80002F066BAD8270008D42700082DE9F047CD
:1002C800254C2568D5F84841064688469246994601
:1002D800C4B360681F2817DC431C76B104EB8005A3
:1002E8000122C5F888A0D4F8881182401143022E53
:1002F800C4F88811C5F808911ED00230636044F82C
:1003080020800020BDE8F087144B03B34FF4C87079
:10031800AFF300800446D0B1D5F84831002780E813
:100328008800C5F8484138460123C4F88871C4F8E4
:100338008C71002EE1D0D1E7D4F88C110A43C4F8AF
:100348008C21DAE705F5A674C5F84841C1E74FF0F6
:10035800FF30BDE8F08700BF9827000800000000C4
:10036800DFF834D0002103E00C4B5B5843500431D4
:100378000B480C4B42189A42F6D30B4A02E0002372
:1003880042F8043B094B9A42F9D300F053F9FFF7BE
:1003980049FF00F00FF8FEE700300020D8270008DA
:1003A800000000202C0400202C04002088040020D9
:1003B800FEE7000080B582B000AF0023BB710023C8
:1003C800FB7100F0F3F900F035F800F0BBF800F02D
:1003D80073F83C21144802F0B1F8144B5B6ABB7106
:1003E800BA79FB79D31A002B05DD012208211048C0
:1003F80000F0C0FC04E0002208210D4800F0BAFC1F
:10040800BA79FB79D31A002B05DA012208210848AA
:1004180000F0B0FC04E000220821054800F0AAFC26
:10042800BB79FB71D9E700BF4804002000040040F5
:100438000004004880B590B000AF0223BB610123DF
:10044800BB621023FB6200237B6307F11803184685
:1004580000F0A8FC0346002B01D000F09DF80F2304
:100468007B600023BB600023FB6000233B6100230B
:100478007B613B1D0021184601F056FD0346002B09
:1004880001D000F089F801F0B5FF0246094BA3FB43
:1004980002239B09184600F0C1FA042000F0CAFAAA
:1004A800002200214FF0FF3000F09CFA00BF4037D7
:1004B800BD4680BDD34D621080B58CB000AF1F4BD8
:1004C8001F4A1A601D4B00225A601C4B00229A607A
:1004D8001A4B4FF6FF72DA60184B00221A61032399
:1004E800FB6000233B6101237B610023BB61002388
:1004F800FB6100233B6201237B620023BB62002374
:10050800FB6207F10C0319460C4801F07FFF034614
:10051800002B01D000F040F800233B600023BB60B3
:100528003B461946054802F0D7F80346002B01D090
:1005380000F032F800BF3037BD4680BD48040020C7
:100548000004004080B586B000AF114A104B5B69CB
:1005580043F4802353610E4B5B6903F480233B60B3
:100568003B68002208210B4800F004FC08237B604C
:100578000123BB600023FB6000233B613B1D194640
:10058800044800F081FA00BF1837BD4680BD00BF9F
:10059800001002400004004880B500AF0122082185
:1005A800074800F0E7FBC82000F04CF900220821BA
:1005B800034800F0DFFB322000F044F9EEE700BF0B
:1005C8000004004880B400AF00BFBD465DF8047B5E
:1005D800704700BF80B400AFFEE700BF80B400AF33
:1005E800FEE700BF80B400AFFEE700BF80B400AFF5
:1005F800FEE700BF80B400AF00BFBD465DF8047BD6
:10060800704700BF80B400AF00BFBD465DF8047BF3
:10061800704700BF80B400AF00BFBD465DF8047BE3
:10062800704700BF80B500AF00F0F2F800F01EFA86
:1006380000BF80BD80B400AF1F4A1F4BD3F888307D
:1006480043F47003C2F888301C4A1C4B1B6843F003
:10065800010313601949194B5A68194B13404B6031
:10066800164A164B1B6823F0847323F480331360F7
:10067800124A124B1B6823F4802313600F4A0F4B56
:100688005B6823F4FE0353600C4A0C4BDB6A23F0CF
:100698000F03D3620949094B1A6B0A4B13400B63CA
:1006A800064B00229A60044B4FF000629A6000BF2C
:1006B800BD465DF8047B704700ED00E00010024085
:1006C8000CC07FF8CCFC00FF80B582B000AF1E4A9A
:1006D8001D4B9B6943F0010393611B4B9B6903F01E
:1006E80001037B607B68032000F070F90022002181
:1006F8006FF00B0000F076F9002200216FF00A007D
:1007080000F070F9002200216FF0090000F06AF98A
:10071800002200216FF0040000F064F9002200219B
:100728006FF0030000F05EF9002200216FF0010075
:1007380000F058F9002200214FF0FF3000F052F984
:1007480000BF0837BD4680BD0010024080B588B0A4
:1007580000AF78607B681B68114A93421BD1114A2D
:10076800104BDB6943F00203D3610E4BDB6903F0E6
:100778000203BB60BB683023FB6002233B6100239C
:100788007B610023BB610223FB6107F10C0319465F
:10079800054800F079F900BF2037BD4680BD00BF8D
:1007A80000040040001002400004004880B500AF7B
:1007B800084A084B1B6843F010031360032000F03D
:1007C80005F9002000F008F8FFF77EFF002318461F
:1007D80080BD00BF0020024080B582B000AF7860C5
:1007E800094B1B68094AA2FB03239B09184600F022
:1007F80015F9002279684FF0FF3000F0F3F8002374
:1008080018460837BD4680BD28040020D34D621025
:1008180080B400AF044B1B680133034A136000BF68
:10082800BD465DF8047B70478404002080B400AFA7
:10083800034B1B681846BD465DF8047B704700BF34
:100848008404002080B584B000AF7860FFF7EEFF25
:10085800F86000BFFFF7EAFF0246FB68D21A7B6820
:100868009A42F7D300BF1037BD4680BD80B485B02B
:1008780000AF78607B6803F00703FB600C4BDB6814
:10088800BB60BA684FF6FF031340BB60FB681A02EF
:10089800BB68134343F0BF6343F40033BB60044AAF
:1008A800BB68D36000BF1437BD465DF8047B704752
:1008B80000ED00E080B400AF044BDB6803F4E063B4
:1008C8001B0A1846BD465DF8047B704700ED00E042
:1008D80080B483B000AF03463960FB7197F90730E5
:1008E800002B0BDA0D49FB7903F00F03043B3A6840
:1008F800D2B21201D2B20B441A7609E0084997F92C
:1009080007303A68D2B21201D2B20B4483F80023FE
:1009180000BF0C37BD465DF8047B704700ED00E072
:1009280000E100E080B489B000AFF860B9607A6097
:10093800FB6803F00703FB61FB69C3F10703042BA2
:1009480028BF0423BB61FB690433062B02D9FB696A
:10095800033B00E000237B610122BB6902FA03F339
:100968005A1EBB681A407B699A4001217B6901FACB
:1009780003F3591E7B680B40134318462437BD46C2
:100988005DF8047B704700BF80B582B000AF786027
:100998007B68013BB3F1807F01D301230FE00A4A52
:1009A8007B68013B53600F214FF0FF30FFF790FF4A
:1009B800054B00229A60044B07221A600023184650
:1009C8000837BD4680BD00BF10E000E080B582B0AA
:1009D80000AF78607868FFF749FF00BF0837BD4669
:1009E80080BD00BF80B586B000AF0346B9607A60AD
:1009F800FB7300237B61FFF75DFF78617A68B96854
:100A08007869FFF78FFF024697F90F3011461846AD
:100A1800FFF75EFF00BF1837BD4680BD80B582B0C6
:100A280000AF78607868FFF7AFFF034618460837CD
:100A3800BD4680BD80B483B000AF78607B68042B6E
:100A480006D1094A084B1B6843F00403136005E00C
:100A5800054A054B1B6823F00403136000BF0C37DD
:100A6800BD465DF8047B704710E000E080B500AF3C
:100A780000F002F800BF80BD80B400AF00BFBD46E3
:100A88005DF8047B704700BF80B487B000AF786022
:100A9800396000237B610023FB6000233B614EE14A
:100AA8003B681A6801217B6901FA03F31340FB6074
:100AB800FB68002B00F040813B685B68022B03D089
:100AC8003B685B68122B23D17B69DA087B680832A4
:100AD80053F822303B617B6903F007039B000F2228
:100AE80002FA03F3DB433A6913403B613B681A6936
:100AF8007B6903F007039B0002FA03F33A69134387
:100B08003B617B69DA087B680832396943F822104F
:100B18007B681B683B617B695B00032202FA03F375
:100B2800DB433A6913403B613B685B6803F00302AF
:100B38007B695B0002FA03F33A6913433B617B6804
:100B48003A691A603B685B68012B0BD03B685B68AD
:100B5800022B07D03B685B68112B03D03B685B68AE
:100B6800122B30D17B689B683B617B695B00032259
:100B780002FA03F3DB433A6913403B613B68DA68E6
:100B88007B695B0002FA03F33A6913433B617B68B4
:100B98003A699A607B685B683B6101227B6902FA6B
:100BA80003F3DB433A6913403B613B685B681B090D
:100BB80003F001027B6902FA03F33A6913433B61CC
:100BC8007B683A695A607B68DB683B617B695B00DC
:100BD800032202FA03F3DB433A6913403B613B68A3
:100BE8009A687B695B0002FA03F33A6913433B6135
:100BF8007B683A69DA603B685B6803F08053002BD6
:100C080000F09A80554A554B9B6943F00103936164
:100C1800524B9B6903F00103BB60BB68504A7B6978
:100C28009B08023352F823303B617B6903F00303CE
:100C38009B000F2202FA03F3DB433A6913403B613E
:100C48007B68B3F1904F13D07B68464A93420DD02E
:100C58007B68454A934207D07B68444A934201D156
:100C6800032306E0052304E0022302E0012300E059
:100C780000237A6902F00302920093403A69134311
:100C88003B6137497B699B0802333A6941F8232065
:100C9800374B1B683B61FB68DB433A6913403B6198
:100CA8003B685B6803F48033002B03D03A69FB6828
:100CB80013433B612E4A3B6913602D4B5B683B61D4
:100CC800FB68DB433A6913403B613B685B6803F4AC
:100CD8000033002B03D03A69FB6813433B61244A75
:100CE8003B695360224B9B683B61FB68DB433A6975
:100CF80013403B613B685B6803F48013002B03D00F
:100D08003A69FB6813433B61194A3B699360184B86
:100D1800DB683B61FB68DB433A6913403B613B6836
:100D28005B6803F40013002B03D03A69FB68134394
:100D38003B610F4A3B69D3607B6901337B613B6848
:100D48001A687B6922FA03F3002B7FF4A9AE00BF6F
:100D58001C37BD465DF8047B704700BF0010024099
:100D6800000001400004004800080048000C00484A
:100D78000004014080B483B000AF78600B467B80EC
:100D880013467B707B78002B03D07A887B689A6146
:100D980002E07A887B689A6200BF0C37BD465DF82E
:100DA800047B704790B5ADF5017D00AF3B1D186021
:100DB8000023C7F8F8313B1D1B681B6803F00103CB
:100DC800002B00F0E881B84B5B6803F00C03042BA0
:100DD8000CD0B54B5B6803F00C03082B40F0828005
:100DE800B14B5B6803F48033002B7BD04FF40033A6
:100DF800C7F80431D7F8043193FAA3F207F58073E2
:100E08001A6007F580731B68B3FA83F3DBB243F00B
:100E18002003DBB2DBB25B09DBB2012B02D1A24BB0
:100E28001B6839E04FF40033C7F8D431D7F8D43110
:100E380093FAA3F207F1FC031A6007F1FC031B689D
:100E4800B3FA83F3DBB243F02003DBB2DBB25B0916
:100E5800DBB2022B02D1944B1B6A1DE04FF4003326
:100E6800C7F8D031D7F8D03193FAA3F207F1F803D5
:100E78001A6007F1F8031B68B3FA83F3DBB243F097
:100E88002003DBB2DBB25B09DBB2042B02D1864B59
:100E98005B6801E0844B5B6A4FF40032C7F8CC21F1
:100EA800D7F8CC2192FAA2F107F1F402116007F108
:100EB800F4021268B2FA82F2D2B242F02002D2B23E
:100EC800D2B202F01F02D34003F00103002B00F05E
:100ED80061813B1D1B685B68002B40F05B8101232F
:100EE80001F01AB83B1D1B685B68B3F5803F06D15B
:100EF8006D4A6D4B1B6843F48033136030E03B1D33
:100F08001B685B68002B0CD1674A674B1B6823F48E
:100F180080331360644A644B1B6823F48023136096
:100F28001EE03B1D1B685B68B3F5A02F0CD15E4A21
:100F38005D4B1B6843F4802313605B4A5A4B1B6864
:100F480043F4803313600BE0574A574B1B6823F474
:100F580080331360544A544B1B6823F48023136076
:100F68005149514BDB6A23F00F023B1D1B689B68FC
:100F78001343CB623B1D1B685B68002B00F083802A
:100F8800FFF754FCC7F8F8010AE0FFF74FFC0246E8
:100F9800D7F8F831D31A642B02D9032300F0BCBF69
:100FA8004FF40033C7F8C831D7F8C83193FAA3F221
:100FB80007F1F0031A6007F1F0031B68B3FA83F333
:100FC800DBB243F02003DBB2DBB25B09DBB2012BFF
:100FD80002D1354B1B6839E04FF40033C7F8F431C0
:100FE800D7F8F43193FAA3F207F1EC031A6007F18A
:100FF800EC031B68B3FA83F3DBB243F02003DBB2E4
:10100800DBB25B09DBB2022B02D1274B1B6A1DE066
:101018004FF40033C7F8F031D7F8F03193FAA3F260
:1010280007F1E8031A6007F1E8031B68B3FA83F3D2
:10103800DBB243F02003DBB2DBB25B09DBB2042B8B
:1010480002D1194B5B6801E0174B5B6A4FF4003221
:10105800C7F8EC21D7F8EC2192FAA2F107F1E402E3
:10106800116007F1E4021268B2FA82F2D2B242F0D9
:101078002002D2B2D2B202F01F02D34003F0010321
:10108800002B82D087E0FFF7D1FBC7F8F8010DE00D
:10109800FFF7CCFB0246D7F8F831D31A642B05D9F1
:1010A800032300F039BF00BF001002404FF40033A3
:1010B800C7F8E831D7F8E83193FAA3F207F1E0036B
:1010C8001A6007F1E0031B68B3FA83F3DBB243F05D
:1010D8002003DBB2DBB25B09DBB2012B02D1B64BDA
:1010E8001B6839E04FF40033C7F8E431D7F8E4312E
:1010F80093FAA3F207F1DC031A6007F1DC031B681B
:10110800B3FA83F3DBB243F02003DBB2DBB25B0953
:10111800DBB2022B02D1A84B1B6A1DE04FF400334F
:10112800C7F8E031D7F8E03193FAA3F207F1D80312
:101138001A6007F1D8031B68B3FA83F3DBB243F0F4
:101148002003DBB2DBB25B09DBB2042B02D19A4B82
:101158005B6801E0984B5B6A4FF40032C7F8DC210A
:10116800D7F8DC2192FAA2F107F1D402116007F155
:10117800D4021268B2FA82F2D2B242F02002D2B29B
:10118800D2B202F01F02D34003F00103002B7FF418
:101198007FAF00E000BF3B1D1B681B6803F0020324
:1011A800002B00F0F481844B5B6803F00C03002BE8
:1011B8000DD0814B5B6803F00C03082B40F099803D
:1011C8007D4B5B6803F48033002B40F09280022350
:1011D800C7F8D831D7F8D83193FAA3F207F1D0037A
:1011E8001A6007F1D0031B68B3FA83F3DBB243F04C
:1011F8002003DBB2DBB25B09DBB2012B02D16E4B01
:101208001B6837E00223C7F89831D7F8983193FA6A
:10121800A3F207F1CC031A6007F1CC031B68B3FAF9
:1012280083F3DBB243F02003DBB2DBB25B09DBB252
:10123800022B02D1604B1B6A1CE00223C7F89431D1
:10124800D7F8943193FAA3F207F1C8031A6007F1AB
:10125800C8031B68B3FA83F3DBB243F02003DBB2A5
:10126800DBB25B09DBB2042B02D1534B5B6801E0B4
:10127800514B5B6A0222C7F89021D7F8902192FA65
:10128800A2F107F1C402116007F1C4021268B2FAB0
:1012980082F2D2B242F02002D2B2D2B202F01F02DF
:1012A800D34003F00103002B07D03B1D1B681B69CB
:1012B800012B02D0012300F02FBE3F4C3E4B1B6890
:1012C80023F0F8023B1D1B685969F823C7F88C31D5
:1012D800D7F88C3193FAA3F007F1C003186007F12F
:1012E800C0031B68B3FA83F301FA03F313432360C3
:1012F8004DE13B1D1B681B69002B00F0B3800123E7
:10130800C7F88831D7F8883193FAA3F207F1BC03FC
:101318001A6007F1BC031B68B3FA83F39B0003F15F
:10132800844303F584031A4601231360FFF77EFA0A
:10133800C7F8F8010AE0FFF779FA0246D7F8F8315A
:10134800D31A022B02D9032300F0E6BD0223C7F803
:10135800C431D7F8C43193FAA3F207F1B8031A607D
:1013680007F1B8031B68B3FA83F3DBB243F0200339
:10137800DBB2DBB25B09DBB2012B02D10E4B1B687F
:1013880039E00223C7F8C031D7F8C03193FAA3F285
:1013980007F1B4031A6007F1B4031B68B3FA83F3C7
:1013A800DBB243F02003DBB2DBB25B09DBB2022B1A
:1013B80004D1014B1B6A1EE0001002400223C7F84B
:1013C800BC31D7F8BC3193FAA3F207F1B0031A6025
:1013D80007F1B0031B68B3FA83F3DBB243F02003D1
:1013E800DBB2DBB25B09DBB2042B02D1B94B5B6821
:1013F80001E0B84B5B6A0222C7F8B821D7F8B821D8
:1014080092FAA2F107F1AC02116007F1AC0212687E
:10141800B2FA82F2D2B242F02002D2B2D2B202F0D2
:101428001F02D34003F00103002B84D0A94CA94B21
:101438001B6823F0F8023B1D1B685969F823C7F89D
:10144800B431D7F8B43193FAA3F007F1A8031860C0
:1014580007F1A8031B68B3FA83F301FA03F31343F4
:10146800236094E00123C7F8B031D7F8B03193FA7C
:10147800A3F207F1A4031A6007F1A4031B68B3FAE7
:1014880083F39B0003F1844303F584031A46002386
:101498001360FFF7CBF9C7F8F8010AE0FFF7C6F9C0
:1014A8000246D7F8F831D31A022B02D9032300F0E9
:1014B80033BD0223C7F8AC31D7F8AC3193FAA3F2A5
:1014C80007F1A0031A6007F1A0031B68B3FA83F3BE
:1014D800DBB243F02003DBB2DBB25B09DBB2012BEA
:1014E80002D17C4B1B6837E00223C7F8A831D7F834
:1014F800A83193FAA3F207F19C031A6007F19C0341
:101508001B68B3FA83F3DBB243F02003DBB2DBB230
:101518005B09DBB2022B02D16E4B1B6A1CE0022373
:10152800C7F8A431D7F8A43193FAA3F207F19803C6
:101538001A6007F198031B68B3FA83F3DBB243F030
:101548002003DBB2DBB25B09DBB2042B02D1614BB7
:101558005B6801E05F4B5B6A0222C7F8A021D7F8FD
:10156800A02192FAA2F107F19402116007F1940206
:101578001268B2FA82F2D2B242F02002D2B2D2B2E9
:1015880002F01F02D34003F00103002B86D13B1D5C
:101598001B681B6803F00803002B00F032813B1D19
:1015A8001B689B69002B00F099800123C7F89C31C8
:1015B800D7F89C3193FAA3F207F190031A6007F168
:1015C80090031B68B3FA83F39B001A46424B1344FB
:1015D8001A4601231360FFF729F9C7F8F8010AE052
:1015E800FFF724F90246D7F8F831D31A022B02D9AB
:1015F800032300F091BC0223C7F88431D7F8843163
:1016080093FAA3F207F18C031A6007F18C031B68A5
:10161800B3FA83F3DBB243F06003DBB2DBB25B09FE
:10162800DBB2012B02D12B4B1B6837E00223C7F832
:101638008031D7F8803193FAA3F207F188031A6052
:1016480007F188031B68B3FA83F3DBB243F0600346
:10165800DBB2DBB25B09DBB2022B02D11D4B1B6A8A
:101668001CE00223C7F87C31D7F87C3193FAA3F247
:1016780007F184031A6007F184031B68B3FA83F344
:10168800DBB243F06003DBB2DBB25B09DBB2042BF5
:1016980002D1104B5B6801E00E4B5B6A0222C7F86F
:1016A8007821D7F8782192FAA2F107F18002116027
:1016B80007F180021268B2FA82F2D2B242F06002F6
:1016C800D2B2D2B202F01F02D34003F00103002BC2
:1016D80086D096E000100240800442420123C7F8F9
:1016E8007431D7F8743193FAA3F207F17C031A60C6
:1016F80007F17C031B68B3FA83F39B001A46B54BCA
:1017080013441A4600231360FFF790F8C7F8F8014E
:1017180009E0FFF78BF80246D7F8F831D31A022B05
:1017280001D90323F8E30223C7F87031D7F87031E1
:1017380093FAA3F207F178031A6007F178031B689C
:10174800B3FA83F3DBB243F06003DBB2DBB25B09CD
:10175800DBB2012B02D1A04B1B6837E00223C7F88C
:101768006C31D7F86C3193FAA3F207F174031A605D
:1017780007F174031B68B3FA83F3DBB243F0600329
:10178800DBB2DBB25B09DBB2022B02D1924B1B6AE4
:101798001CE00223C7F86831D7F8683193FAA3F23E
:1017A80007F170031A6007F170031B68B3FA83F33B
:1017B800DBB243F06003DBB2DBB25B09DBB2042BC4
:1017C80002D1854B5B6801E0834B5B6A0222C7F854
:1017D8006421D7F8642192FAA2F107F16C02116032
:1017E80007F16C021268B2FA82F2D2B242F06002D9
:1017F800D2B2D2B202F01F02D34003F00103002B91
:1018080087D13B1D1B681B6803F00403002B00F005
:101818008F81002387F8FF316F4BDB6903F080531A
:10182800002B12D16C4A6C4BDB6943F08053D361B7
:10183800694BDB6903F0805207F10C031A6007F16A
:101848000C031B68012387F8FF31644B1B6803F402
:101858008073002B1AD1614A604B1B6843F4807374
:101868001360FEF7E3FFC7F8F80109E0FEF7DEFFB3
:101878000246D7F8F831D31A642B01D903234BE376
:10188800564B1B6803F48073002BEFD03B1D1B687D
:10189800DB68012B06D1504A4F4B1B6A43F001030A
:1018A80013622FE03B1D1B68DB68002B0CD14A4AF2
:1018B800494B1B6A23F001031362474A464B1B6AD4
:1018C80023F0040313621DE03B1D1B68DB68052B36
:1018D8000CD1414A404B1B6A43F0040313623E4A51
:1018E8003D4B1B6A43F0010313620BE03A4A3A4B43
:1018F8001B6A23F001031362374A374B1B6A23F034
:10190800040313623B1D1B68DB68002B00F0878013
:10191800FEF78CFFC7F8F8010BE0FEF787FF0246D9
:10192800D7F8F831D31A41F28832934201D9032308
:10193800F2E20223C7F86031D7F8603193FAA3F2D4
:1019480007F168031A6007F168031B68B3FA83F3A9
:10195800DBB243F04003DBB2DBB25B09DBB2012B45
:1019680002D11D4B1B683DE00223C7F85C31D7F854
:101978005C3193FAA3F207F164031A6007F1640378
:101988001B68B3FA83F3DBB243F04003DBB2DBB28C
:101998005B09DBB2022B02D10F4B1B6A22E0022348
:1019A800C7F85831D7F8583193FAA3F207F1600312
:1019B8001A6007F160031B68B3FA83F3DBB243F0E4
:1019C8004003DBB2DBB25B09DBB2042B08D1024B6C
:1019D8005B6807E08004424200100240007000404B
:1019E800BF4B5B6A0222C7F85421D7F8542192FAF8
:1019F800A2F107F15C02116007F15C021268B2FA09
:101A080082F2D2B242F04002D2B2D2B202F01F0247
:101A1800D34003F00103002B3FF47FAF7EE0FEF7D5
:101A280005FFC7F8F8010BE0FEF700FF0246D7F8FC
:101A3800F831D31A41F28832934201D903236BE279
:101A48000223C7F85031D7F8503193FAA3F207F1BF
:101A580058031A6007F158031B68B3FA83F3DBB223
:101A680043F04003DBB2DBB25B09DBB2012B02D1EE
:101A78009B4B1B6837E00223C7F84C31D7F84C3131
:101A880093FAA3F207F154031A6007F154031B6891
:101A9800B3FA83F3DBB243F04003DBB2DBB25B099A
:101AA800DBB2022B02D18E4B1B6A1CE00223C7F863
:101AB8004831D7F8483193FAA3F207F150031A6076
:101AC80007F150031B68B3FA83F3DBB243F040031A
:101AD800DBB2DBB25B09DBB2042B02D1804B5B6863
:101AE80001E07F4B5B6A0222C7F84421D7F8442102
:101AF80092FAA2F107F14C02116007F14C02126848
:101B0800B2FA82F2D2B242F04002D2B2D2B202F0BB
:101B18001F02D34003F00103002B85D197F8FF3152
:101B2800012B05D16E4A6E4BDB6923F08053D361DC
:101B38003B1D1B68DB69002B00F0ED81684B5B687F
:101B480003F00C03082B00F0E4813B1D1B68DB69E4
:101B5800022B40F044814FF08073C7F84031D7F82A
:101B6800403193FAA3F207F148031A6007F14803DA
:101B78001B68B3FA83F39B0003F1844303F58403E2
:101B88001A4600231360FEF751FEC7F8F80109E072
:101B9800FEF74CFE0246D7F8F831D31A022B01D9CA
:101BA8000323B9E14FF00073C7F83C31D7F83C3153
:101BB80093FAA3F207F144031A6007F144031B6880
:101BC800B3FA83F3DBB243F02003DBB2DBB25B0989
:101BD800DBB2012B02D1424B1B6839E04FF0007396
:101BE800C7F83831D7F8383193FAA3F207F1400330
:101BF8001A6007F140031B68B3FA83F3DBB243F0C2
:101C08002003DBB2DBB25B09DBB2022B02D1344B1F
:101C18001B6A1DE04FF00073C7F83431D7F8343130
:101C280093FAA3F207F13C031A6007F13C031B681F
:101C3800B3FA83F3DBB243F02003DBB2DBB25B0918
:101C4800DBB2042B02D1264B5B6801E0244B5B6AB4
:101C58004FF00072C7F83021D7F8302192FAA2F17C
:101C680007F13802116007F138021268B2FA82F2FD
:101C7800D2B242F02002D2B2D2B202F01F02D34056
:101C880003F00103002B83D11548154B5B6823F43F
:101C980074123B1D1B68596A3B1D1B681B6A0B436A
:101CA800134343604FF08073C7F82C31D7F82C31B9
:101CB80093FAA3F207F134031A6007F134031B689F
:101CC800B3FA83F39B0003F1844303F584031A46B4
:101CD80001231360FEF7AAFDC7F8F8010CE000BF66
:101CE80000100240FEF7A2FD0246D7F8F831D31AD9
:101CF800022B01D903230FE14FF00073C7F82831F5
:101D0800D7F8283193FAA3F207F130031A6007F1E4
:101D180030031B68B3FA83F3DBB243F02003DBB272
:101D2800DBB25B09DBB2012B02D17E4B1B6839E0C9
:101D38004FF00073C7F82431D7F8243193FAA3F28F
:101D480007F12C031A6007F12C031B68B3FA83F31D
:101D5800DBB243F02003DBB2DBB25B09DBB2022B60
:101D680002D1704B1B6A1DE04FF00073C7F8203199
:101D7800D7F8203193FAA3F207F128031A6007F184
:101D880028031B68B3FA83F3DBB243F02003DBB20A
:101D9800DBB25B09DBB2042B02D1624B5B6801E06A
:101DA800604B5B6A4FF00072C7F81C21D7F81C2102
:101DB80092FAA2F107F12402116007F124021268D5
:101DC800B2FA82F2D2B242F02002D2B2D2B202F019
:101DD8001F02D34003F00103002B83D09BE04FF098
:101DE8008073C7F81831D7F8183193FAA3F207F1BE
:101DF80020031A6007F120031B68B3FA83F39B00E2
:101E080003F1844303F584031A4600231360FEF7A5
:101E18000DFDC7F8F80109E0FEF708FD0246D7F8FE
:101E2800F831D31A022B01D9032375E04FF0007360
:101E3800C7F81431D7F8143193FAA3F207F11C0349
:101E48001A6007F11C031B68B3FA83F3DBB243F093
:101E58002003DBB2DBB25B09DBB2012B02D1314BD1
:101E68001B6839E04FF00073C7F81031D7F810310C
:101E780093FAA3F207F118031A6007F118031B6815
:101E8800B3FA83F3DBB243F02003DBB2DBB25B09C6
:101E9800DBB2022B02D1234B1B6A1DE04FF000730B
:101EA800C7F80C31D7F80C3193FAA3F207F11403F1
:101EB8001A6007F114031B68B3FA83F3DBB243F02B
:101EC8002003DBB2DBB25B09DBB2042B02D1154B7A
:101ED8005B6801E0134B5B6A4FF00072C7F808219A
:101EE800D7F8082192FAA2F107F11002116007F160
:101EF80010021268B2FA82F2D2B242F02002D2B2D2
:101F0800D2B202F01F02D34003F00103002B83D1A9
:101F180001E0012300E00023184607F50177BD46DC
:101F280090BD00BF0010024080B59EB000AF786041
:101F3800396000237B67A34B1B6803F007023B68EB
:101F48009A4210D29F499F4B1B6823F007023B68B7
:101F580013430B609B4B1B6803F007023B689A42D4
:101F680001D00123D0E17B681B6803F00203002B3A
:101F780008D09549944B5B6823F0F0027B689B6816
:101F880013434B607B681B6803F00103002B00F0D0
:101F980068817B685B68012B5CD14FF400333B643C
:101FA8003B6C93FAA3F3FB63FB6BB3FA83F3DBB2EB
:101FB80043F02003DBB2DBB25B09DBB2012B02D1B9
:101FC800814B1B682DE04FF400333B673B6F93FA5E
:101FD800A3F3BB63BB6BB3FA83F3DBB243F0200319
:101FE800DBB2DBB25B09DBB2022B02D1764B1B6A98
:101FF80017E04FF40033FB66FB6E93FAA3F37B63A1
:102008007B6BB3FA83F3DBB243F02003DBB2DBB2C2
:102018005B09DBB2042B02D16B4B5B6801E06A4BB6
:102028005B6A4FF40032BA66BA6E92FAA2F23A6369
:102038003A6BB2FA82F2D2B242F02002D2B2D2B2F3
:1020480002F01F02D34003F00103002B40F0BE80D2
:10205800012359E17B685B68022B5BD14FF0007369
:102068007B667B6E93FAA3F3FB62FB6AB3FA83F396
:10207800DBB243F02003DBB2DBB25B09DBB2012B3E
:1020880002D1514B1B682DE04FF000733B663B6E4D
:1020980093FAA3F3BB62BB6AB3FA83F3DBB243F0F0
:1020A8002003DBB2DBB25B09DBB2022B02D1464B69
:1020B8001B6A17E04FF00073FB65FB6D93FAA3F3FF
:1020C8007B627B6AB3FA83F3DBB243F02003DBB2B3
:1020D800DBB25B09DBB2042B02D13B4B5B6801E04E
:1020E800394B5B6A4FF00072BA65BA6D92FAA2F288
:1020F8003A623A6AB2FA82F2D2B242F02002D2B21C
:10210800D2B202F01F02D34003F00103002B5DD1CD
:102118000123F9E002237B657B6D93FAA3F3FB614E
:10212800FB69B3FA83F3DBB243F02003DBB2DBB223
:102138005B09DBB2012B02D1234B1B682BE0022386
:102148003B653B6D93FAA3F3BB61BB69B3FA83F3B9
:10215800DBB243F02003DBB2DBB25B09DBB2022B5C
:1021680002D1194B1B6A16E00223FB64FB6C93FA3D
:10217800A3F37B617B69B3FA83F3DBB243F02003FB
:10218800DBB2DBB25B09DBB2042B02D10E4B5B681E
:1021980001E00D4B5B6A0222BA64BA6C92FAA2F2B1
:1021A8003A613A69B2FA82F2D2B242F02002D2B26D
:1021B800D2B202F01F02D34003F00103002B05D175
:1021C8000123A1E000200240001002405049504B7A
:1021D8005B6823F003027B685B6813434B60FEF780
:1021E80025FB78677B685B68012B12D10AE0FEF754
:1021F8001DFB02467B6FD31A41F28832934201D904
:10220800032381E0424B5B6803F00C03042BEED1FF
:1022180027E07B685B68022B1DD10AE0FEF706FB0E
:1022280002467B6FD31A41F28832934201D90323C5
:102238006AE0374B5B6803F00C03082BEED110E023
:10224800FEF7F4FA02467B6FD31A41F288329342C2
:1022580001D9032358E02E4B5B6803F00C03002BD5
:10226800EED12C4B1B6803F007023B689A4210D949
:102278002849284B1B6823F007023B6813430B606F
:10228800244B1B6803F007023B689A4201D00123E4
:102298003AE07B681B6803F00403002B08D01C4954
:1022A8001B4B5B6823F4E0627B68DB6813434B607D
:1022B8007B681B6803F00803002B09D01449144BF2
:1022C8005B6823F460527B681B69DB0013434B6037
:1022D80000F026F801460E4B5B6803F0F002F0238D
:1022E8007B647B6C93FAA3F3FB60FB68B3FA83F31C
:1022F80022FA03F3084AD35C21FA03F3074A13606E
:102308000020FEF769FA002318467837BD4680BDDD
:1023180000100240002002409C27000828040020EA
:1023280080B48BB000AF0023FB610023BB610023A6
:102338007B6200237B6100233B62294B5B68FB6166
:10234800FB6903F00C03042B02D0082B03D03CE0FC
:10235800244B3B623CE0FB6903F470124FF47013AA
:102368003B613B6993FAA3F37B607B68B3FA83F321
:1023780022FA03F31C4AD35C7B61194BDB6A03F036
:102388000F020F23FB60FB6893FAA3F3BB60BB68E3
:10239800B3FA83F322FA03F3144AD35CBB61FB69F3
:1023A80003F48033002B08D00E4ABB69B2FBF3F369
:1023B8007A6902FB03F37B6204E07B690C4A02FB47
:1023C80003F37B627B6A3B6202E0064B3B6200BF21
:1023D8003B6A18462C37BD465DF8047B704700BF42
:1023E8000010024000127A00AC270008BC27000841
:1023F80000093D0080B400AF034B1B681846BD467A
:102408005DF8047B704700BF2804002080B586B0C3
:1024180000AF7860396000237B6100233B610023B3
:10242800FB607B68002B01D1012383E07B6893F874
:102438003930DBB2002B06D17B68002283F83820C4
:102448007868FEF783F97B68022283F839207B6875
:102458001A687B681B689B6823F4803323F00703A2
:1024680093607B681A687B6804331946104600F04D
:102478009DF87B681B689B687B617B681B689B6910
:102488003B617B681B681B6AFB603B681B687A6959
:1024980013437B613B6923F4407323F003033B61DF
:1024A8003B689A683B689B691B0213433A6913436C
:1024B8003B613B6923F4406323F00C033B613B69B8
:1024C80023F4704323F0F0033B613B68DA683B6810
:1024D800DB691B0213433A6913433B613B681B6981
:1024E8001A013B681B6A1B0313433A6913433B6198
:1024F800FB6823F02203FB60FB6823F08803FB6082
:102508003B685A683B685B691B011343FA681343CD
:10251800FB607B681B687A699A607B681B683A690C
:102528009A617B681B68FA681A627B68012283F8E3
:102538003920002318461837BD4680BD80B582B0C3
:1025480000AF786039603B68002B02D0042B08D0BC
:102558000FE07B681B6801220021184600F098F8FC
:1025680016E07B681B6801220421184600F090F8E9
:102578000EE07B681B6801220021184600F088F8ED
:102588007B681B6801220421184600F081F800BF0F
:102598007B681B687A681268126842F001021A6048
:1025A800002318460837BD4680BD00BF80B485B0FB
:1025B80000AF786039600023FB607B681B68FB60B4
:1025C8007B682E4A934207D07B68B3F1804F03D0D3
:1025D8007B682B4A934208D1FB6823F07003FB60A9
:1025E8003B685B68FA681343FB607B68234A934245
:1025F80013D07B68B3F1804F0FD07B68204A934299
:102608000BD07B681F4A934207D07B681E4A9342CF
:1026180003D07B681D4A934208D1FB6823F44073BA
:10262800FB603B68DB68FA681343FB607B68FA6809
:102638001A603B689A687B68DA623B681A687B684C
:102648009A627B680D4A93420BD07B680D4A93428D
:1026580007D07B680C4A934203D07B680B4A9342AD
:1026680003D13B681A697B681A637B6801225A6147
:1026780000BF1437BD465DF8047B7047002C01404D
:10268800000400400040014000440140004801406F
:1026980080B487B000AFF860B9607A6000237B61CE
:1026A8000122BB6802FA03F37B61FB681A6A7B6943
:1026B800DB431A40FB681A62FB681A6A7968BB68D0
:1026C80001FA03F31A43FB681A6200BF1C37BD46C0
:1026D8005DF8047B704700BF80B485B000AF7860B8
:1026E80039607B6893F83830012B01D1022338E038
:1026F8007B68012283F838207B681B685B68FB6075
:102708007B681B689B68BB607B681B68184A9342A0
:1027180008D1FB6823F47003FB603B685B68FA68C8
:102728001343FB60FB6823F07003FB603B681B6886
:10273800FA681343FB60BB6823F08003BB603B6807
:102748009B68BA681343BB607B681B68FA685A6069
:102758007B681B68BA689A607B68002283F8382017
:10276800002318461437BD465DF8047B704700BF48
:10277800002C0140F8B500BFF8BC08BC9E46704765
:0C278800F8B500BFF8BC08BC9E467047C6
:1027940043000000000000200000000000000000D2
:1027A40001020304060708090203040506070809D1
:1027B4000A0B0C0D0E0F1010010203040506070886
:0827C400090A0B0C0D0E0F10A9
:0827CC007D020008F501000880
:0427D400CD0100082B
:1027D80000000000EC02002054030020BC0300208D
:1027E80000000000000000000000000000000000E1
:1027F80000000000000000000000000000000000D1
:1028080000000000942700080000000000000000FD
:1028180000000000000000000000000000000000B0
:1028280000000000000000000000000000000000A0
:102838000000000000000000000000000000000090
:102848000000000000000000000000000000000080
:102858000000000000000000000000000000000070
:102868000000000000000000000000000000000060
:10287800000000000000000001000000000000004F
:102888000E33CDAB34126DE6ECDE05000B00000014
:102898000000000000000000000000000000000030
:1028A8000000000000000000000000000000000020
:1028B8000000000000000000000000000000000010
:1028C8000000000000000000000000000000000000
:0C2BF800000000000000000000127A0045
:040000050800036983
:00000001FF
