:020000040800F2
:100000000030002069030008F1090008010A000817
:10001000090A0008110A0008190A00080000000077
:10002000000000000000000000000000210A00089D
:10003000310A000800000000410A0008510A0008C7
:10004000B9030008B9030008B9030008B9030008A0
:10005000B9030008B9030008B9030008B903000890
:10006000B9030008B9030008B9030008B903000880
:10007000B9030008B9030008B9030008B903000870
:10008000B9030008B9030008B9030008B903000860
:10009000B9030008B9030008B9030008B903000850
:1000A000B9030008B9030008B9030008B903000840
:1000B000B9030008B903000800000000B9030008F4
:1000C000B90300080000000000000000B9030008A8
:1000D00000000000B9030008610A0008B903000825
:1000E000B9030008B9030008000000000000000088
:1000F0000000000000000000000000000000000000
:1001000000000000000000000000000000000000EF
:100110000000000000000000B9030008B903000857
:1001200000000000000000000000000000000000CF
:1001300000000000000000000000000000000000BF
:10014000B9030008B9030008000000000000000027
:10015000000000000000000000000000000000009F
:10016000000000000000000000000000000000008F
:10017000000000000000000000000000000000007F
:0801800000000000B9030008B3
:10018800044B05481B1A062B02D9044B03B1184728
:10019800704700BF2F0400202C040020000000003E
:1001A80005490648091A891001EBD171491002D096
:1001B800034B03B1184770472C0400202C0400207F
:1001C8000000000010B5064C237843B9FFF7D8FFAC
:1001D800044B13B10448AFF300800123237010BD12
:1001E8002C04002000000000DC3B000808B5084B88
:1001F8001BB108490848AFF300800848036813B9E1
:10020800BDE80840CCE7064B002BF9D09847F7E744
:100218000000000030040020DC3B00082C04002013
:100228000000000070B50F4E0F4D761BB61018BFBA
:10023800002405D0013455F8043B9847A642F9D16B
:100248000A4E0B4D761B03F0C5FCB61018BF0024F0
:1002580006D0013455F8043B9847A642F9D170BD41
:1002680070BD00BF343C0008343C00083C3C00082A
:10027800343C0008024B13B1024800F005B870473F
:10028800000000009D020008002301461A46184697
:1002980000F014B838B5074D074C2C1BA41005D036
:1002A800013C55F8043D9847002CF9D1BDE8384089
:1002B80003F096BC403C00083C3C00082DE9F047A0
:1002C800254C2568D5F84841064688469246994601
:1002D800C4B360681F2817DC431C76B104EB8005A3
:1002E8000122C5F888A0D4F8881182401143022E53
:1002F800C4F88811C5F808911ED00230636044F82C
:1003080020800020BDE8F087144B03B34FF4C87079
:10031800AFF300800446D0B1D5F84831002780E813
:100328008800C5F8484138460123C4F88871C4F8E4
:100338008C71002EE1D0D1E7D4F88C110A43C4F8AF
:100348008C21DAE705F5A674C5F84841C1E74FF0F6
:10035800FF30BDE8F08700BFF83B00080000000050
:10036800DFF834D0002103E00C4B5B5843500431D4
:100378000B480C4B42189A42F6D30B4A02E0002372
:1003880042F8043B094B9A42F9D300F06FFBFFF7A0
:1003980049FF00F00FF8FEE700300020403C00085D
:1003A800000000202C0400202C04002088050020D8
:1003B800FEE7000080B584B000AF0023FB81002376
:1003C800BB8100237B8100233B810023FB8000232A
:1003D800BB801A4B00221A7000F082FC00F036F83D
:1003E80000F08EF900F084F800F0CEF800F012F971
:1003F80000F056F901221249124802F0FFFC00F001
:10040800EBF9022000F0CCFA00F0FCF90346FB817E
:1004180000F004FA0346BB8100F00AFA03467B8128
:10042800094AFB891380084ABB895380064A7B899D
:100438009380642000F0A0FCE3E700BF8205002061
:1004480070050020FC0400207C05002080B596B0D3
:1004580000AF02233B6301233B6410237B6400232A
:10046800FB6407F13003184600F070FF0346002BC9
:1004780001D000F0B5FA0F23FB6100233B62002393
:100488007B620023BB620023FB6207F11C0300218F
:10049800184602F01DF80346002B01D000F0A0FA20
:1004A8004FF480537B600023BB613B1D184602F06C
:1004B800C5FA0346002B01D000F092FA02F06EFA5A
:1004C80002460A4BA3FB02239B09184600F068FD6D
:1004D800042000F071FD002200214FF0FF3000F0F1
:1004E80035FD00BF5837BD4680BD00BFD34D6210F3
:1004F80080B58CB000AF224B224A1A60204B0022F4
:100508005A601F4B00229A601D4B4FF6FF72DA604B
:100518001B4B00221A611A4B00225A610323FB600D
:1005280000233B6101237B610023BB610023FB6146
:1005380000233B6201237B620023BB620023FB6232
:1005480007F10C0319460E4803F090F90346002BF7
:1005580001D000F045FA00233B6000237B600023B4
:10056800BB603B461946064803F0E6FA0346002BF3
:1005780001D000F035FA00BF3037BD4680BD00BF5E
:1005880048040020002C014080B58CB000AF204BFF
:100598004FF080421A601E4B00225A601C4B00220A
:1005A8009A601B4B4FF6FF72DA60194B00221A61F2
:1005B8000323FB6000233B6101237B610023BB61B4
:1005C8000023FB6100233B6201237B620023BB62A3
:1005D8000023FB6207F10C0319460D4803F046F9A6
:1005E8000346002B01D000F0FBF900233B600023F9
:1005F800BB603B461946064803F09EFA0346002BAB
:1006080001D000F0EDF900BF3037BD4680BD00BF16
:100618008404002080B58CB000AF1F4B1F4A1A60BD
:100628001D4B00225A601C4B00229A601A4B4FF651
:10063800FF72DA60184B00221A610323FB60002363
:100648003B6101237B610023BB610023FB61002325
:100658003B6201237B620023BB620023FB6207F13C
:100668000C0319460C4803F001F90346002B01D08E
:1006780000F0B6F900233B600023BB603B461946F7
:10068800054803F059FA0346002B01D000F0A8F9F9
:1006980000BF3037BD4680BDC004002000040040C4
:1006A80080B500AF144B154A1A60134B4FF4E13272
:1006B8005A60114B00229A600F4B0022DA600E4BF1
:1006C80000221A610C4B0C225A610B4B00229A61D2
:1006D800094B0022DA61084B00221A62064B0022FD
:1006E8005A62054802F0F0FA0346002B01D000F0E8
:1006F80077F900BF80BD00BFFC0400200044004023
:1007080080B588B000AF314A304B5B6943F4800351
:1007180053612E4B5B6903F48003BB60BB682B4AB3
:100728002A4B5B6943F400335361284B5B6903F43C
:1007380000337B607B68254A244B5B6943F4802344
:100748005361224B5B6903F480233B603B680022C2
:1007580001211F4800F0D0FD002230214FF09040C9
:1007680000F0CAFD002203211A4800F0C5FD01234C
:10077800FB6001233B6100237B610023BB6107F120
:100788000C031946124800F041FC3023FB6001239A
:100798003B6100237B610023BB6107F10C03194611
:1007A8004FF0904000F032FC0323FB6001233B61D3
:1007B80000237B610023BB6107F10C031946054840
:1007C80000F024FC00BF2037BD4680BD0010024069
:1007D800001400480004004880B500AF3C210648DA
:1007E80003F0DCF83C21054803F0D8F83C21044824
:1007F80003F0D4F800BF80BD480400208404002022
:10080800C004002080B400AF034B5B6A1846BD46A5
:100818005DF8047B704700BF002C014080B400AF36
:100828004FF080435B6A1846BD465DF8047B70470D
:1008380080B400AF034B5B6A1846BD465DF8047B85
:10084800704700BF0004004080B586B000AF7860F4
:100858000023FB7423233B72EE237B720623BB72B7
:100868007B681B68DBB2FB7200233B737B68043335
:100878001B68DBB27B730023BB737B6808331B6880
:10088800DBB2FB7300233B7400237B610AE007F1B2
:1008980008027B6913441A78FB7C5340FB747B691C
:1008A80001337B617B69082BF1DDFB7C7B7400F0F5
:1008B80013F807F108030A221946064802F056FA07
:1008C800012000F059FA00F011F800BF1837BD46B2
:1008D80080BD00BFFC04002080B500AF01221021BC
:1008E8004FF0904000F008FD00BF80BD80B500AF1C
:1008F800002210214FF0904000F0FEFC00BF80BDA8
:1009080080B483B000AF786000BF0C37BD465DF897
:10091800047B704780B584B000AF786001221B4922
:100928001B4802F06BFA194B1B78FB73194B1B68B9
:10093800002B21D0174B1B68013B1749FA7BCA547F
:10094800144B1B680133134A1360124B1B68052BA9
:1009580018D1104B00221A600F4B1B78EE2B11D1C7
:100968000D4B5B78012B0DD1FFF7B6FF0B48FFF756
:100978006BFFFFF7BBFF05E0FB7B232B02D1054B89
:1009880001221A6000BF1037BD4680BD70050020E7
:10099800FC0400206C050020740500207C05002064
:1009A80080B582B000AF78607B68012B05D1012249
:1009B80001210A4800F0A0FC0CE07B68002B05D15F
:1009C80000220121054800F097FC03E001210348BB
:1009D80000F0AAFC00BF0837BD4680BD00140048DF
:1009E80080B400AFFEE700BF80B400AF00BFBD46D3
:1009F8005DF8047B704700BF80B400AFFEE700BF1E
:100A080080B400AFFEE700BF80B400AFFEE700BFD0
:100A180080B400AFFEE700BF80B400AF00BFBD46A2
:100A28005DF8047B704700BF80B400AF00BFBD46CF
:100A38005DF8047B704700BF80B400AF00BFBD46BF
:100A48005DF8047B704700BF80B500AF00F07AF90D
:100A580000F0CEFA00BF80BD80B500AF024802F0BA
:100A68005DFA00BF80BD00BFFC04002080B400AF69
:100A78001F4A1F4BD3F8883043F47003C2F88830FC
:100A88001C4A1C4B1B6843F0010313601949194B9E
:100A98005A68194B13404B60164A164B1B6823F0D3
:100AA800847323F480331360124A124B1B6823F4B7
:100AB800802313600F4A0F4B5B6823F4FE035360D7
:100AC8000C4A0C4BDB6A23F00F03D3620949094B2C
:100AD8001A6B0A4B13400B63064B00229A60044BB7
:100AE8004FF000629A6000BFBD465DF8047B704716
:100AF80000ED00E0001002400CC07FF8CCFC00FFC5
:100B080080B582B000AF1E4A1D4B9B6943F00103BC
:100B180093611B4B9B6903F001037B607B68032097
:100B280000F008FA002200216FF00B0000F00EFA26
:100B3800002200216FF00A0000F008FA00220021CC
:100B48006FF0090000F002FA002200216FF00400A3
:100B580000F0FCF9002200216FF0030000F0F6F924
:100B6800002200216FF0010000F0F0F900220021BE
:100B78004FF0FF3000F0EAF900BF0837BD4680BDEE
:100B88000010024080B58AB000AF78607B681B68AF
:100B9800354A93421ED1354A344B9B6943F400636E
:100BA8009361324B9B6903F400633B613B694FF4EB
:100BB80040737B610223BB610023FB6100233B621E
:100BC80006237B6207F1140319464FF0904000F0AA
:100BD8001DFA44E07B681B68B3F1804F1DD1234A9E
:100BE800224BDB6943F00103D361204BDB6903F03F
:100BF8000103FB60FB6803237B610223BB610023C5
:100C0800FB6100233B6201237B6207F11403194651
:100C18004FF0904000F0FAF921E07B681B68144A15
:100C280093421CD1114A114BDB6943F00203D36193
:100C38000E4BDB6903F00203BB60BB68C0237B611A
:100C48000223BB610023FB6100233B6202237B621A
:100C580007F1140319464FF0904000F0D7F900BF90
:100C68002837BD4680BD00BF002C0140001002405F
:100C78000004004080B588B000AF78607B681B68CE
:100C8800154A934224D1154A144BDB6943F40033C7
:100C9800D361124BDB6903F40033BB60BB680C23E0
:100CA800FB6002233B6101237B610323BB610723B4
:100CB800FB6107F10C0319464FF0904000F0A6F9CC
:100CC80000220121262000F041F9262000F05AF9DF
:100CD80000BF2037BD4680BD0044004000100240E0
:100CE80080B500AF084A084B1B6843F01003136037
:100CF800032000F01FF9002000F008F8FFF700FFBC
:100D08000023184680BD00BF0020024080B582B095
:100D180000AF7860094B1B68094AA2FB03239B09B3
:100D2800184600F03DF9002279684FF0FF3000F0D6
:100D38000DF9002318460837BD4680BD2804002059
:100D4800D34D621080B400AF044B1B680133034AD3
:100D5800136000BFBD465DF8047B70478405002022
:100D680080B400AF034B1B681846BD465DF8047B92
:100D7800704700BF8405002080B584B000AF78605C
:100D8800FFF7EEFFF86000BFFFF7EAFF0246FB68D7
:100D9800D21A7B689A42F7D300BF1037BD4680BD90
:100DA80080B485B000AF78607B6803F00703FB6010
:100DB8000C4BDB68BB60BA684FF6FF031340BB609F
:100DC800FB681A02BB68134343F0BF6343F4003364
:100DD800BB60044ABB68D36000BF1437BD465DF8EA
:100DE800047B704700ED00E080B400AF044BDB6883
:100DF80003F4E0631B0A1846BD465DF8047B7047A0
:100E080000ED00E080B483B000AF0346FB710949F0
:100E180097F907305B09FA7902F01F02012000FAFE
:100E280002F241F8232000BF0C37BD465DF8047B71
:100E3800704700BF00E100E080B483B000AF034614
:100E48003960FB7197F90730002B0BDA0D49FB79F4
:100E580003F00F03043B3A68D2B21201D2B20B443A
:100E68001A7609E0084997F907303A68D2B21201B0
:100E7800D2B20B4483F8002300BF0C37BD465DF89F
:100E8800047B704700ED00E000E100E080B489B029
:100E980000AFF860B9607A60FB6803F00703FB6194
:100EA800FB69C3F10703042B28BF0423BB61FB695B
:100EB8000433062B02D9FB69033B00E000237B6166
:100EC8000122BB6902FA03F35A1EBB681A407B6908
:100ED8009A4001217B6901FA03F3591E7B680B4094
:100EE800134318462437BD465DF8047B704700BF9E
:100EF80080B582B000AF78607B68013BB3F1807F3A
:100F080001D301230FE00A4A7B68013B53600F219C
:100F18004FF0FF30FFF790FF054B00229A60044B1B
:100F280007221A60002318460837BD4680BD00BF57
:100F380010E000E080B582B000AF78607868FFF715
:100F48002FFF00BF0837BD4680BD00BF80B586B003
:100F580000AF0346B9607A60FB7300237B61FFF73B
:100F680043FF78617A68B9687869FFF78FFF0246AE
:100F780097F90F3011461846FFF75EFF00BF183784
:100F8800BD4680BD80B582B000AF0346FB7197F9BE
:100F980007301846FFF736FF00BF0837BD4680BD4B
:100FA80080B582B000AF78607868FFF7A1FF03468C
:100FB80018460837BD4680BD80B483B000AF78605E
:100FC8007B68042B06D1094A084B1B6843F00403CD
:100FD800136005E0054A054B1B6823F00403136002
:100FE80000BF0C37BD465DF8047B704710E000E099
:100FF80080B500AF00F002F800BF80BD80B400AF3C
:1010080000BFBD465DF8047B704700BF80B487B061
:1010180000AF7860396000237B610023FB60002308
:101028003B614EE13B681A6801217B6901FA03F3D1
:101038001340FB60FB68002B00F040813B685B6855
:10104800022B03D03B685B68122B23D17B69DA083B
:101058007B68083253F822303B617B6903F0070351
:101068009B000F2202FA03F3DB433A6913403B610A
:101078003B681A697B6903F007039B0002FA03F3D4
:101088003A6913433B617B69DA087B68083239693E
:1010980043F822107B681B683B617B695B00032275
:1010A80002FA03F3DB433A6913403B613B685B6830
:1010B80003F003027B695B0002FA03F33A69134306
:1010C8003B617B683A691A603B685B68012B0BD00F
:1010D8003B685B68022B07D03B685B68112B03D029
:1010E8003B685B68122B30D17B689B683B617B69EE
:1010F8005B00032202FA03F3DB433A6913403B61C6
:101108003B68DA687B695B0002FA03F33A691343C8
:101118003B617B683A699A607B685B683B61012246
:101128007B6902FA03F3DB433A6913403B613B688E
:101138005B681B0903F001027B6902FA03F33A6951
:1011480013433B617B683A695A607B68DB683B61A3
:101158007B695B00032202FA03F3DB433A6913401D
:101168003B613B689A687B695B0002FA03F33A6962
:1011780013433B617B683A69DA603B685B6803F05C
:101188008053002B00F09A80554A554B9B6943F0D9
:1011980001039361524B9B6903F00103BB60BB6879
:1011A800504A7B699B08023352F823303B617B69C4
:1011B80003F003039B000F2202FA03F3DB433A69AF
:1011C80013403B617B68B3F1904F13D07B68464A6C
:1011D80093420DD07B68454A934207D07B68444AC6
:1011E800934201D1032306E0052304E0022302E031
:1011F800012300E000237A6902F003029200934081
:101208003A6913433B6137497B699B0802333A6962
:1012180041F82320374B1B683B61FB68DB433A6985
:1012280013403B613B685B6803F48033002B03D0B9
:101238003A69FB6813433B612E4A3B6913602D4BA7
:101248005B683B61FB68DB433A6913403B613B6881
:101258005B6803F40033002B03D03A69FB6813433F
:101268003B61244A3B695360224B9B683B61FB68A6
:10127800DB433A6913403B613B685B6803F48013C6
:10128800002B03D03A69FB6813433B61194A3B6959
:101298009360184BDB683B61FB68DB433A6913409A
:1012A8003B613B685B6803F40013002B03D03A6989
:1012B800FB6813433B610F4A3B69D3607B69013389
:1012C8007B613B681A687B6922FA03F3002B7FF481
:1012D800A9AE00BF1C37BD465DF8047B704700BF50
:1012E80000100240000001400004004800080048C7
:1012F800000C00480004014080B483B000AF78605F
:101308000B467B8013467B707B78002B03D07A8852
:101318007B689A6102E07A887B689A6200BF0C3722
:10132800BD465DF8047B704780B483B000AF786039
:101338000B467B807B685A697B885A407B685A6178
:1013480000BF0C37BD465DF8047B704790B5ADF51E
:10135800017D00AF3B1D18600023C7F8F8313B1D25
:101368001B681B6803F00103002B00F0E881B84BF1
:101378005B6803F00C03042B0CD0B54B5B6803F0DF
:101388000C03082B40F08280B14B5B6803F4803378
:10139800002B7BD04FF40033C7F80431D7F8043161
:1013A80093FAA3F207F580731A6007F580731B6838
:1013B800B3FA83F3DBB243F02003DBB2DBB25B09A1
:1013C800DBB2012B02D1A24B1B6839E04FF400338A
:1013D800C7F8D431D7F8D43193FAA3F207F1FC0354
:1013E8001A6007F1FC031B68B3FA83F3DBB243F01E
:1013F8002003DBB2DBB25B09DBB2022B02D1944BD8
:101408001B6A1DE04FF40033C7F8D031D7F8D0314C
:1014180093FAA3F207F1F8031A6007F1F8031B68BF
:10142800B3FA83F3DBB243F02003DBB2DBB25B0930
:10143800DBB2042B02D1864B5B6801E0844B5B6A0C
:101448004FF40032C7F8CC21D7F8CC2192FAA2F198
:1014580007F1F402116007F1F4021268B2FA82F29D
:10146800D2B242F02002D2B2D2B202F01F02D3406E
:1014780003F00103002B00F061813B1D1B685B68D2
:10148800002B40F05B81012301F01AB83B1D1B685B
:101498005B68B3F5803F06D16D4A6D4B1B6843F41A
:1014A8008033136030E03B1D1B685B68002B0CD158
:1014B800674A674B1B6823F480331360644A644BA4
:1014C8001B6823F4802313601EE03B1D1B685B68C8
:1014D800B3F5A02F0CD15E4A5D4B1B6843F4802303
:1014E80013605B4A5A4B1B6843F4803313600BE06C
:1014F800574A574B1B6823F480331360544A544BA4
:101508001B6823F4802313605149514BDB6A23F095
:101518000F023B1D1B689B681343CB623B1D1B6876
:101528005B68002B00F08380FFF71AFCC7F8F8010E
:101538000AE0FFF715FC0246D7F8F831D31A642BF6
:1015480002D9032300F0BCBF4FF40033C7F8C831F9
:10155800D7F8C83193FAA3F207F1F0031A6007F13C
:10156800F0031B68B3FA83F3DBB243F02003DBB26A
:10157800DBB25B09DBB2012B02D1354B1B6839E0CA
:101588004FF40033C7F8F431D7F8F43193FAA3F2E3
:1015980007F1EC031A6007F1EC031B68B3FA83F355
:1015A800DBB243F02003DBB2DBB25B09DBB2022B18
:1015B80002D1274B1B6A1DE04FF40033C7F8F03106
:1015C800D7F8F03193FAA3F207F1E8031A6007F1AC
:1015D800E8031B68B3FA83F3DBB243F02003DBB202
:1015E800DBB25B09DBB2042B02D1194B5B6801E06B
:1015F800174B5B6A4FF40032C7F8EC21D7F8EC219F
:1016080092FAA2F107F1E402116007F1E40212680C
:10161800B2FA82F2D2B242F02002D2B2D2B202F0D0
:101628001F02D34003F00103002B82D087E0FFF7AD
:1016380097FBC7F8F8010DE0FFF792FB0246D7F8D1
:10164800F831D31A642B05D9032300F039BF00BF42
:10165800001002404FF40033C7F8E831D7F8E831FA
:1016680093FAA3F207F1E0031A6007F1E0031B689D
:10167800B3FA83F3DBB243F02003DBB2DBB25B09DE
:10168800DBB2012B02D1B64B1B6839E04FF40033B3
:10169800C7F8E431D7F8E43193FAA3F207F1DC0391
:1016A8001A6007F1DC031B68B3FA83F3DBB243F07B
:1016B8002003DBB2DBB25B09DBB2022B02D1A84B01
:1016C8001B6A1DE04FF40033C7F8E031D7F8E0316A
:1016D80093FAA3F207F1D8031A6007F1D8031B683D
:1016E800B3FA83F3DBB243F02003DBB2DBB25B096E
:1016F800DBB2042B02D19A4B5B6801E0984B5B6A22
:101708004FF40032C7F8DC21D7F8DC2192FAA2F1B5
:1017180007F1D402116007F1D4021268B2FA82F21A
:10172800D2B242F02002D2B2D2B202F01F02D340AB
:1017380003F00103002B7FF47FAF00E000BF3B1DE7
:101748001B681B6803F00203002B00F0F481844B34
:101758005B6803F00C03002B0DD0814B5B6803F032
:101768000C03082B40F099807D4B5B6803F48033B1
:10177800002B40F092800223C7F8D831D7F8D8312F
:1017880093FAA3F207F1D0031A6007F1D0031B689C
:10179800B3FA83F3DBB243F02003DBB2DBB25B09BD
:1017A800DBB2012B02D16E4B1B6837E00223C7F86E
:1017B8009831D7F8983193FAA3F207F1CC031A605D
:1017C80007F1CC031B68B3FA83F3DBB243F02003C1
:1017D800DBB2DBB25B09DBB2022B02D1604B1B6AC6
:1017E8001CE00223C7F89431D7F8943193FAA3F296
:1017F80007F1C8031A6007F1C8031B68B3FA83F33B
:10180800DBB243F02003DBB2DBB25B09DBB2042BB3
:1018180002D1534B5B6801E0514B5B6A0222C7F867
:101828009021D7F8902192FAA2F107F1C402116031
:1018380007F1C4021268B2FA82F2D2B242F0200270
:10184800D2B2D2B202F01F02D34003F00103002B40
:1018580007D03B1D1B681B69012B02D0012300F038
:101868002FBE3F4C3E4B1B6823F0F8023B1D1B6804
:101878005969F823C7F88C31D7F88C3193FAA3F05B
:1018880007F1C003186007F1C0031B68B3FA83F3BC
:1018980001FA03F3134323604DE13B1D1B681B69E9
:1018A800002B00F0B3800123C7F88831D7F88831BE
:1018B80093FAA3F207F1BC031A6007F1BC031B6893
:1018C800B3FA83F39B0003F1844303F584031A46B8
:1018D80001231360FFF744FAC7F8F8010AE0FFF79D
:1018E8003FFA0246D7F8F831D31A022B02D903235C
:1018F80000F0E6BD0223C7F8C431D7F8C43193FA23
:10190800A3F207F1B8031A6007F1B8031B68B3FA2A
:1019180083F3DBB243F02003DBB2DBB25B09DBB25B
:10192800012B02D10E4B1B6839E00223C7F8C031E6
:10193800D7F8C03193FAA3F207F1B4031A6007F19C
:10194800B4031B68B3FA83F3DBB243F02003DBB2C2
:10195800DBB25B09DBB2022B04D1014B1B6A1EE030
:10196800001002400223C7F8BC31D7F8BC3193FA03
:10197800A3F207F1B0031A6007F1B0031B68B3FACA
:1019880083F3DBB243F02003DBB2DBB25B09DBB2EB
:10199800042B02D1B94B5B6801E0B84B5B6A0222A9
:1019A800C7F8B821D7F8B82192FAA2F107F1AC022A
:1019B800116007F1AC021268B2FA82F2D2B242F0B8
:1019C8002002D2B2D2B202F01F02D34003F00103C8
:1019D800002B84D0A94CA94B1B6823F0F8023B1DAF
:1019E8001B685969F823C7F8B431D7F8B43193FAAA
:1019F800A3F007F1A803186007F1A8031B68B3FA5E
:101A080083F301FA03F31343236094E00123C7F837
:101A1800B031D7F8B03193FAA3F207F1A4031A60F2
:101A280007F1A4031B68B3FA83F39B0003F1844313
:101A380003F584031A4600231360FFF791F9C7F8EA
:101A4800F8010AE0FFF78CF90246D7F8F831D31A03
:101A5800022B02D9032300F033BD0223C7F8AC31AF
:101A6800D7F8AC3193FAA3F207F1A0031A6007F193
:101A7800A0031B68B3FA83F3DBB243F02003DBB2A5
:101A8800DBB25B09DBB2012B02D17C4B1B6837E070
:101A98000223C7F8A831D7F8A83193FAA3F207F1BF
:101AA8009C031A6007F19C031B68B3FA83F3DBB24B
:101AB80043F02003DBB2DBB25B09DBB2022B02D1BD
:101AC8006E4B1B6A1CE00223C7F8A431D7F8A43177
:101AD80093FAA3F207F198031A6007F198031B68B9
:101AE800B3FA83F3DBB243F02003DBB2DBB25B096A
:101AF800DBB2042B02D1614B5B6801E05F4B5B6A90
:101B08000222C7F8A021D7F8A02192FAA2F107F182
:101B18009402116007F194021268B2FA82F2D2B20A
:101B280042F02002D2B2D2B202F01F02D34003F038
:101B38000103002B86D13B1D1B681B6803F00803BB
:101B4800002B00F032813B1D1B689B69002B00F0C5
:101B580099800123C7F89C31D7F89C3193FAA3F2F6
:101B680007F190031A6007F190031B68B3FA83F337
:101B78009B001A46424B13441A4601231360FFF791
:101B8800EFF8C7F8F8010AE0FFF7EAF80246D7F8D5
:101B9800F831D31A022B02D9032300F091BC022397
:101BA800C7F88431D7F8843193FAA3F207F18C038C
:101BB8001A6007F18C031B68B3FA83F3DBB243F0B6
:101BC8006003DBB2DBB25B09DBB2012B02D12B4B2A
:101BD8001B6837E00223C7F88031D7F8803193FAC1
:101BE800A3F207F188031A6007F188031B68B3FAA8
:101BF80083F3DBB243F06003DBB2DBB25B09DBB239
:101C0800022B02D11D4B1B6A1CE00223C7F87C3152
:101C1800D7F87C3193FAA3F207F184031A6007F12D
:101C280084031B68B3FA83F3DBB243F06003DBB2CF
:101C3800DBB25B09DBB2042B02D1104B5B6801E01D
:101C48000E4B5B6A0222C7F87821D7F8782192FAFE
:101C5800A2F107F18002116007F180021268B2FA5E
:101C680082F2D2B242F06002D2B2D2B202F01F02C5
:101C7800D34003F00103002B86D096E00010024009
:101C8800800442420123C7F87431D7F8743193FABB
:101C9800A3F207F17C031A6007F17C031B68B3FA0F
:101CA80083F39B001A46B54B13441A46002313606E
:101CB800FFF756F8C7F8F80109E0FFF751F80246B0
:101CC800D7F8F831D31A022B01D90323F8E30223FA
:101CD800C7F87031D7F8703193FAA3F207F1780397
:101CE8001A6007F178031B68B3FA83F3DBB243F099
:101CF8006003DBB2DBB25B09DBB2012B02D1A04B84
:101D08001B6837E00223C7F86C31D7F86C3193FAB7
:101D1800A3F207F174031A6007F174031B68B3FA9E
:101D280083F3DBB243F06003DBB2DBB25B09DBB207
:101D3800022B02D1924B1B6A1CE00223C7F86831C0
:101D4800D7F8683193FAA3F207F170031A6007F124
:101D580070031B68B3FA83F3DBB243F06003DBB2B2
:101D6800DBB25B09DBB2042B02D1854B5B6801E077
:101D7800834B5B6A0222C7F86421D7F8642192FA80
:101D8800A2F107F16C02116007F16C021268B2FA55
:101D980082F2D2B242F06002D2B2D2B202F01F0294
:101DA800D34003F00103002B87D13B1D1B681B6840
:101DB80003F00403002B00F08F81002387F8FF3124
:101DC8006F4BDB6903F08053002B12D16C4A6C4BCC
:101DD800DB6943F08053D361694BDB6903F08052C0
:101DE80007F10C031A6007F10C031B68012387F83D
:101DF800FF31644B1B6803F48073002B1AD1614ACE
:101E0800604B1B6843F480731360FEF7A9FFC7F8A3
:101E1800F80109E0FEF7A4FF0246D7F8F831D31A13
:101E2800642B01D903234BE3564B1B6803F48073DF
:101E3800002BEFD03B1D1B68DB68012B06D1504AF5
:101E48004F4B1B6A43F0010313622FE03B1D1B68D5
:101E5800DB68002B0CD14A4A494B1B6A23F001036B
:101E68001362474A464B1B6A23F0040313621DE0C2
:101E78003B1D1B68DB68052B0CD1414A404B1B6A94
:101E880043F0040313623E4A3D4B1B6A43F00103CF
:101E980013620BE03A4A3A4B1B6A23F001031362C0
:101EA800374A374B1B6A23F0040313623B1D1B6838
:101EB800DB68002B00F08780FEF752FFC7F8F801B7
:101EC8000BE0FEF74DFF0246D7F8F831D31A41F27E
:101ED8008832934201D90323F2E20223C7F8603122
:101EE800D7F8603193FAA3F207F168031A6007F193
:101EF80068031B68B3FA83F3DBB243F04003DBB239
:101F0800DBB25B09DBB2012B02D11D4B1B683DE044
:101F18000223C7F85C31D7F85C3193FAA3F207F1D2
:101F280064031A6007F164031B68B3FA83F3DBB236
:101F380043F04003DBB2DBB25B09DBB2022B02D118
:101F48000F4B1B6A22E00223C7F85831D7F85831E3
:101F580093FAA3F207F160031A6007F160031B68A4
:101F6800B3FA83F3DBB243F04003DBB2DBB25B09C5
:101F7800DBB2042B08D1024B5B6807E080044242C5
:101F88000010024000700040BF4B5B6A0222C7F895
:101F98005421D7F8542192FAA2F107F15C0211609A
:101FA80007F15C021268B2FA82F2D2B242F0400241
:101FB800D2B2D2B202F01F02D34003F00103002BC9
:101FC8003FF47FAF7EE0FEF7CBFEC7F8F8010BE0E9
:101FD800FEF7C6FE0246D7F8F831D31A41F2883226
:101FE800934201D903236BE20223C7F85031D7F893
:101FF800503193FAA3F207F158031A6007F1580316
:102008001B68B3FA83F3DBB243F04003DBB2DBB205
:102018005B09DBB2012B02D19B4B1B6837E0022323
:10202800C7F84C31D7F84C3193FAA3F207F15403AF
:102038001A6007F154031B68B3FA83F3DBB243F069
:102048004003DBB2DBB25B09DBB2022B02D18E4B61
:102058001B6A1CE00223C7F84831D7F8483193FAC5
:10206800A3F207F150031A6007F150031B68B3FA93
:1020780083F3DBB243F04003DBB2DBB25B09DBB2D4
:10208800042B02D1804B5B6801E07F4B5B6A022224
:10209800C7F84421D7F8442192FAA2F107F14C027B
:1020A800116007F14C021268B2FA82F2D2B242F021
:1020B8004002D2B2D2B202F01F02D34003F00103B1
:1020C800002B85D197F8FF31012B05D16E4A6E4B55
:1020D800DB6923F08053D3613B1D1B68DB69002B50
:1020E80000F0ED81684B5B6803F00C03082B00F0EF
:1020F800E4813B1D1B68DB69022B40F044814FF0F3
:102108008073C7F84031D7F8403193FAA3F207F14A
:1021180048031A6007F148031B68B3FA83F39B006E
:1021280003F1844303F584031A4600231360FEF782
:1021380017FEC7F8F80109E0FEF712FE0246D7F8C5
:10214800F831D31A022B01D90323B9E14FF00073F8
:10215800C7F83C31D7F83C3193FAA3F207F14403AE
:102168001A6007F144031B68B3FA83F3DBB243F048
:102178002003DBB2DBB25B09DBB2012B02D1424B9D
:102188001B6839E04FF00073C7F83831D7F8383199
:1021980093FAA3F207F140031A6007F140031B68A2
:1021A800B3FA83F3DBB243F02003DBB2DBB25B09A3
:1021B800DBB2022B02D1344B1B6A1DE04FF00073D7
:1021C800C7F83431D7F8343193FAA3F207F13C0356
:1021D8001A6007F13C031B68B3FA83F3DBB243F0E0
:1021E8002003DBB2DBB25B09DBB2042B02D1264B46
:1021F8005B6801E0244B5B6A4FF00072C7F830213E
:10220800D7F8302192FAA2F107F13802116007F1EC
:1022180038021268B2FA82F2D2B242F02002D2B286
:10222800D2B202F01F02D34003F00103002B83D186
:102238001548154B5B6823F474123B1D1B68596ADB
:102248003B1D1B681B6A0B43134343604FF08073AD
:10225800C7F82C31D7F82C3193FAA3F207F13403DD
:102268001A6007F134031B68B3FA83F39B0003F188
:10227800844303F584031A4601231360FEF770FDB7
:10228800C7F8F8010CE000BF00100240FEF768FD37
:102298000246D7F8F831D31A022B01D903230FE1EC
:1022A8004FF00073C7F82831D7F8283193FAA3F212
:1022B80007F130031A6007F130031B68B3FA83F3A0
:1022C800DBB243F02003DBB2DBB25B09DBB2012BEC
:1022D80002D17E4B1B6839E04FF00073C7F82431F8
:1022E800D7F8243193FAA3F207F12C031A6007F107
:1022F8002C031B68B3FA83F3DBB243F02003DBB291
:10230800DBB25B09DBB2022B02D1704B1B6A1DE00A
:102318004FF00073C7F82031D7F8203193FAA3F2B1
:1023280007F128031A6007F128031B68B3FA83F33F
:10233800DBB243F02003DBB2DBB25B09DBB2042B78
:1023480002D1624B5B6801E0604B5B6A4FF0007240
:10235800C7F81C21D7F81C2192FAA2F107F1240230
:10236800116007F124021268B2FA82F2D2B242F086
:102378002002D2B2D2B202F01F02D34003F001030E
:10238800002B83D09BE04FF08073C7F81831D7F843
:10239800183193FAA3F207F120031A6007F120031A
:1023A8001B68B3FA83F39B0003F1844303F58403AA
:1023B8001A4600231360FEF7D3FCC7F8F80109E0BA
:1023C800FEF7CEFC0246D7F8F831D31A022B01D912
:1023D800032375E04FF00073C7F81431D7F81431B0
:1023E80093FAA3F207F11C031A6007F11C031B6898
:1023F800B3FA83F3DBB243F02003DBB2DBB25B0951
:10240800DBB2012B02D1314B1B6839E04FF000736E
:10241800C7F81031D7F8103193FAA3F207F118036F
:102428001A6007F118031B68B3FA83F3DBB243F0B1
:102438002003DBB2DBB25B09DBB2022B02D1234BF8
:102448001B6A1DE04FF00073C7F80C31D7F80C3148
:1024580093FAA3F207F114031A6007F114031B6837
:10246800B3FA83F3DBB243F02003DBB2DBB25B09E0
:10247800DBB2042B02D1154B5B6801E0134B5B6A9E
:102488004FF00072C7F80821D7F8082192FAA2F194
:1024980007F11002116007F110021268B2FA82F215
:1024A800D2B242F02002D2B2D2B202F01F02D3401E
:1024B80003F00103002B83D101E0012300E0002396
:1024C800184607F50177BD4690BD00BF00100240D1
:1024D80080B59EB000AF7860396000237B67A34B5E
:1024E8001B6803F007023B689A4210D29F499F4B32
:1024F8001B6823F007023B6813430B609B4B1B6868
:1025080003F007023B689A4201D00123D0E17B68BF
:102518001B6803F00203002B08D09549944B5B68B5
:1025280023F0F0027B689B6813434B607B681B6851
:1025380003F00103002B00F068817B685B68012BC6
:102548005CD14FF400333B643B6C93FAA3F3FB6319
:10255800FB6BB3FA83F3DBB243F02003DBB2DBB2ED
:102568005B09DBB2012B02D1814B1B682DE04FF4D4
:1025780000333B673B6F93FAA3F3BB63BB6BB3FAC0
:1025880083F3DBB243F02003DBB2DBB25B09DBB2DF
:10259800022B02D1764B1B6A17E04FF40033FB661F
:1025A800FB6E93FAA3F37B637B6BB3FA83F3DBB223
:1025B80043F02003DBB2DBB25B09DBB2042B02D1B0
:1025C8006B4B5B6801E06A4B5B6A4FF40032BA669A
:1025D800BA6E92FAA2F23A633A6BB2FA82F2D2B2C5
:1025E80042F02002D2B2D2B202F01F02D34003F06E
:1025F8000103002B40F0BE80012359E17B685B6832
:10260800022B5BD14FF000737B667B6E93FAA3F3CA
:10261800FB62FB6AB3FA83F3DBB243F02003DBB25D
:10262800DBB25B09DBB2012B02D1514B1B682DE0F9
:102638004FF000733B663B6E93FAA3F3BB62BB6A31
:10264800B3FA83F3DBB243F02003DBB2DBB25B09FE
:10265800DBB2022B02D1464B1B6A17E04FF0007326
:10266800FB65FB6D93FAA3F37B627B6AB3FA83F392
:10267800DBB243F02003DBB2DBB25B09DBB2042B35
:1026880002D13B4B5B6801E0394B5B6A4FF000724B
:10269800BA65BA6D92FAA2F23A623A6AB2FA82F26C
:1026A800D2B242F02002D2B2D2B202F01F02D3401C
:1026B80003F00103002B5DD10123F9E002237B65C0
:1026C8007B6D93FAA3F3FB61FB69B3FA83F3DBB287
:1026D80043F02003DBB2DBB25B09DBB2012B02D192
:1026E800234B1B682BE002233B653B6D93FAA3F356
:1026F800BB61BB69B3FA83F3DBB243F02003DBB2FF
:10270800DBB25B09DBB2022B02D1194B1B6A16E064
:102718000223FB64FB6C93FAA3F37B617B69B3FA36
:1027280083F3DBB243F02003DBB2DBB25B09DBB23D
:10273800042B02D10E4B5B6801E00D4B5B6A022251
:10274800BA64BA6C92FAA2F23A613A69B2FA82F2BF
:10275800D2B242F02002D2B2D2B202F01F02D3406B
:1027680003F00103002B05D10123A1E00020024062
:10277800001002405049504B5B6823F003027B680D
:102788005B6813434B60FEF7EBFA78677B685B681E
:10279800012B12D10AE0FEF7E3FA02467B6FD31A47
:1027A80041F28832934201D9032381E0424B5B68AE
:1027B80003F00C03042BEED127E07B685B68022B47
:1027C8001DD10AE0FEF7CCFA02467B6FD31A41F21C
:1027D8008832934201D903236AE0374B5B6803F0E0
:1027E8000C03082BEED110E0FEF7BAFA02467B6F15
:1027F800D31A41F28832934201D9032358E02E4B71
:102808005B6803F00C03002BEED12C4B1B6803F024
:1028180007023B689A4210D92849284B1B6823F0C5
:1028280007023B6813430B60244B1B6803F0070245
:102838003B689A4201D001233AE07B681B6803F0A9
:102848000403002B08D01C491B4B5B6823F4E0628F
:102858007B68DB6813434B607B681B6803F00803E5
:10286800002B09D01449144B5B6823F460527B6831
:102878001B69DB0013434B6000F026F801460E4B42
:102888005B6803F0F002F0237B647B6C93FAA3F39C
:10289800FB60FB68B3FA83F322FA03F3084AD35CBC
:1028A80021FA03F3074A13600020FEF72FFA0023EA
:1028B80018467837BD4680BD00100240002002400F
:1028C800FC3B00082804002080B48BB000AF002334
:1028D800FB610023BB6100237B6200237B61002333
:1028E8003B62294B5B68FB61FB6903F00C03042B1B
:1028F80002D0082B03D03CE0244B3B623CE0FB6950
:1029080003F470124FF470133B613B6993FAA3F31D
:102918007B607B68B3FA83F322FA03F31C4AD35C27
:102928007B61194BDB6A03F00F020F23FB60FB6826
:1029380093FAA3F3BB60BB68B3FA83F322FA03F3F9
:10294800144AD35CBB61FB6903F48033002B08D0C5
:102958000E4ABB69B2FBF3F37A6902FB03F37B62AD
:1029680004E07B690C4A02FB03F37B627B6A3B62EF
:1029780002E0064B3B6200BF3B6A18462C37BD4657
:102988005DF8047B704700BF0010024000127A0017
:10299800143C0008243C000800093D0080B400AF46
:1029A800034B1B681846BD465DF8047B704700BFA3
:1029B8002804002080B582B000AFFFF7EFFF014682
:1029C8000B4B5B6803F4E0624FF4E0637B607B6869
:1029D80093FAA3F33B603B68B3FA83F322FA03F359
:1029E800044AD35C21FA03F318460837BD4680BD74
:1029F800001002400C3C000880B582B000AFFFF721
:102A0800CDFF01460B4B5B6803F460524FF46053F3
:102A18007B607B6893FAA3F33B603B68B3FA83F36C
:102A280022FA03F3044AD35C21FA03F31846083761
:102A3800BD4680BD001002400C3C000880B592B035
:102A480000AF786000233B640023FB637B681B684E
:102A580003F48033002B00F0EF80002387F8473021
:102A6800964BDB6903F08053002B0ED1934A934BAE
:102A7800DB6943F08053D361904BDB6903F08053EB
:102A8800BB60BB68012387F847308D4B1B6803F494
:102A98008073002B18D18A4A894B1B6843F48073D2
:102AA8001360FEF75DF9386408E0FEF759F902464D
:102AB8003B6CD31A642B01D90323FAE0804B1B68C3
:102AC80003F48073002BF0D07C4B1B6A03F4407333
:102AD800FB63FB6B002B00F09C807B685B6803F456
:102AE8004072FB6B9A4200F09480744B1B6A23F48B
:102AF8004073FB634FF480337B637B6B93FAA3F3E0
:102B0800FB61FB69B3FA83F39B001A466D4B1344D0
:102B18001A46012313604FF480337B627B6A93FA71
:102B2800A3F33B623B6AB3FA83F39B001A46654BF7
:102B380013441A4600231360604AFB6B1362FB6B55
:102B480003F00103002B64D0FEF70AF938640AE0A9
:102B5800FEF706F902463B6CD31A41F288329342DB
:102B680001D90323A5E00223BB63BB6B93FAA3F34C
:102B7800BB61BB69B3FA83F3DBB243F04003DBB25A
:102B8800DBB25B09DBB2012B02D14C4B1B682BE09B
:102B980002233B633B6B93FAA3F37B617B69B3FA34
:102BA80083F3DBB243F04003DBB2DBB25B09DBB299
:102BB800022B02D1414B1B6A16E00223FB62FB6A1F
:102BC80093FAA3F33B613B69B3FA83F3DBB243F0B7
:102BD8004003DBB2DBB25B09DBB2042B02D1374B1B
:102BE8005B6801E0354B5B6A0222BA62BA6A92FA04
:102BF800A2F2FA60FA68B2FA82F2D2B242F0400265
:102C0800D2B2D2B202F01F02D34003F00103002B6C
:102C18009ED02A49294B1B6A23F440727B685B6863
:102C280013430B6297F84730012B05D1234A234BF6
:102C3800DB6923F08053D3617B681B6803F00103D1
:102C4800002B08D01D491D4B1B6B23F003027B682A
:102C58009B6813430B637B681B6803F02003002BFE
:102C680008D01649154B1B6B23F010027B68DB68F4
:102C780013430B637B681B6803F08003002B08D0A9
:102C88000E490E4BDB6A23F4F8727B681B69134309
:102C9800CB627B681B6803F48053002B08D007497C
:102CA800064B1B6B23F480727B685B6913430B63D1
:102CB800002318464837BD4680BD00BF00100240BB
:102CC800007000400004424280B582B000AF7860D6
:102CD8007B68002B01D1012343E07B6893F86930BE
:102CE800DBB2002B06D17B68002283F86820786865
:102CF800FDF7C0FF7B68242283F869207B681B6886
:102D08007A681268126822F001021A60786800F086
:102D1800D7F90346012B01D1012322E07B685B6AC6
:102D2800002B02D0786800F031FB7B681B687A685A
:102D38001268526822F490425A607B681B687A686D
:102D48001268926822F02A029A607B681B687A6887
:102D58001268126842F001021A60786800F0B8FB45
:102D6800034618460837BD4680BD00BF80B485B00D
:102D780000AFF860B9601346FB80FB6893F86930D0
:102D8800DBB2202B32D1BB68002B02D0FB88002B92
:102D980001D101232BE0FB6893F86830012B01D1A6
:102DA800022324E0FB68012283F86820FB68BA68E4
:102DB800DA64FB68FA88A3F85020FB68FA88A3F85D
:102DC8005220FB680022DA66FB68212283F869201A
:102DD800FB68002283F86820FB681B68FA681268A1
:102DE800126842F080021A60002300E002231846AD
:102DF8001437BD465DF8047B704700BF80B485B0CA
:102E080000AFF860B9601346FB80FB6893F86A303E
:102E1800DBB2202B7AD1BB68002B02D0FB88002BB9
:102E280001D1012373E0FB6893F86830012B01D1CD
:102E380002236CE0FB68012283F86820FB68BA680B
:102E48005A65FB68FA88A3F85820FB68FA88A3F843
:102E58005A20FB689B68B3F5805F0ED1FB681B693D
:102E6800002B05D1FB6840F2FF12A3F85C2028E094
:102E7800FB68FF22A3F85C2023E0FB689B68002B1B
:102E88000DD1FB681B69002B04D1FB68FF22A3F856
:102E98005C2016E0FB687F22A3F85C2011E0FB6849
:102EA8009B68B3F1805F0CD1FB681B69002B04D1D0
:102EB800FB687F22A3F85C2003E0FB683F22A3F8AD
:102EC8005C20FB680022DA66FB68222283F86A200D
:102ED800FB681B68FA681268126842F480721A600C
:102EE800FB681B68FA681268926842F001029A60EF
:102EF800FB68002283F86820FB681B68FA68126880
:102F0800126842F020021A60002300E002231846EB
:102F18001437BD465DF8047B704700BF80B582B0AA
:102F280000AF78607B681B68DB6903F00103002B46
:102F380010D07B681B681B6803F48073002B09D0D2
:102F48007B681B6801221A627B68DB6E43F0010212
:102F58007B68DA667B681B68DB6903F00203002B79
:102F680010D07B681B689B6803F00103002B09D015
:102F78007B681B6802221A627B68DB6E43F00402DE
:102F88007B68DA667B681B68DB6903F00403002B47
:102F980010D07B681B689B6803F00103002B09D0E5
:102FA8007B681B6804221A627B68DB6E43F00202AE
:102FB8007B68DA667B681B68DB6903F00803002B13
:102FC80010D07B681B689B6803F00103002B09D0B5
:102FD8007B681B6808221A627B68DB6E43F0080274
:102FE8007B68DA667B681B68DB6903F48013002B57
:102FF80016D07B681B689B6803F48003002B0FD0F6
:103008007B681B684FF480121A627B68202283F861
:1030180069207B68202283F86A20786800F01CFC0D
:103028007B681B68DB6903F02003002B09D07B68F1
:103038001B681B6803F02003002B02D0786800F09F
:1030480095FB7B681B68DB6903F08003002B09D0C4
:103058007B681B681B6803F08003002B02D078682C
:1030680000F016FB7B681B68DB6903F04003002B4C
:1030780009D07B681B681B6803F04003002B02D053
:10308800786800F05BFB7B68DB6E002B0AD07B68FE
:10309800202283F869207B68202283F86A207868D8
:1030A80000F004F800BF0837BD4680BD80B483B087
:1030B80000AF786000BF0C37BD465DF8047B7047F1
:1030C80090B587B000AF78600023FB601023FB75D4
:1030D80000237B810023BB820023FB747B689A68F2
:1030E8007B681B691A437B685B691A437B68DB69E9
:1030F8001343FB607B681A687B681B6819689E4BE2
:103108000B40F9680B4313607B681B687A68126888
:10311800526822F440517A68D2680A435A607B6840
:103128009A697B681B6A1343FB607B681B687A6833
:103138001268926822F43061FA680A439A607B68E0
:103148001B688E4A934221D18D4B1B6B03F00303FE
:10315800032B17D801A252F823F000BF75310008DD
:1031680081310008873100087B3100080023FB7596
:103178001EE00223FB751BE00423FB7518E00823FF
:10318800FB7515E01023FB7500BF11E07B681B6819
:103198007C4A934202D10023FB7509E07B681B68D7
:1031A800794A934202D10023FB7501E01023FB7595
:1031B8007B68DB69B3F5004F70D1FB7D082B57D8CE
:1031C80001A252F823F000BFF531000811320008BF
:1031D8002D32000879320008473200087932000899
:1031E800793200087932000863320008FFF7E2FB01
:1031F80003465A007B685B685B081A447B685B6817
:10320800B2FBF3F3BB8236E0FFF7F6FB03465A0046
:103218007B685B685B081A447B685B68B2FBF3F306
:10322800BB8228E07B685B685B0803F5740303F5E1
:1032380010537A685268B3FBF2F3BB821BE0FFF7C6
:1032480043FB03465A007B685B685B081A447B684B
:103258005B68B2FBF3F3BB820DE07B685B685B08DD
:1032680003F580327B685B68B2FBF3F3BB8202E054
:103278000123FB7400BFBB8A23F00F037B81BB8A49
:103288005B109BB203F007039AB27B8913439BB28E
:103298007B817B681B687A89DA6068E0FB7D082B94
:1032A80062D801A252F823F0D5320008F53200089E
:1032B80015330008713300083533000871330008EE
:1032C8007133000871330008553300087B681C68A7
:1032D800FFF770FB02467B685B685B081A447B68F3
:1032E8005B68B2FBF3F39BB2E36040E07B681C6869
:1032F800FFF782FB02467B685B685B081A447B68C1
:103308005B68B2FBF3F39BB2E36030E07B681A685A
:103318007B685B685B0803F5F40303F590537968F1
:103328004968B3FBF1F39BB2D36020E07B681C686B
:10333800FFF7CAFA02467B685B685B081A447B6839
:103348005B68B2FBF3F39BB2E36010E07B681B6839
:103358007A685268520802F500417A685268B1FBEF
:10336800F2F292B2DA6002E00123FB7400BFFB7C48
:1033780018461C37BD4690BDF369FFEF0038014081
:1033880000100240004400400048004080B483B070
:1033980000AF78607B685B6A03F00103002B0AD0FA
:1033A8007B681B687A681268526822F400317A6870
:1033B800926A0A435A607B685B6A03F00203002B37
:1033C8000AD07B681B687A681268526822F48031D8
:1033D8007A68D26A0A435A607B685B6A03F004031E
:1033E800002B0AD07B681B687A681268526822F43E
:1033F80080217A68126B0A435A607B685B6A03F023
:103408000803002B0AD07B681B687A681268526828
:1034180022F400417A68526B0A435A607B685B6AFF
:1034280003F01003002B0AD07B681B687A681268C7
:10343800926822F480517A68926B0A439A607B689A
:103448005B6A03F02003002B0AD07B681B687A684C
:103458001268926822F400517A68D26B0A439A6023
:103468007B685B6A03F04003002B1AD07B681B68FB
:103478007A681268526822F480117A68126C0A43DA
:103488005A607B681B6CB3F5801F0AD17B681B6888
:103498007A681268526822F4C0017A68526C0A434A
:1034A8005A607B685B6A03F08003002B0AD07B6854
:1034B8001B687A681268526822F400217A68926C54
:1034C8000A435A6000BF0C37BD465DF8047B70475D
:1034D80080B582B000AF78607B680022DA667B68CE
:1034E8001B681B6803F00803002B0CD04FF47A7399
:1034F80000224FF40011786800F02AF80346002BE8
:1035080001D0032320E07B681B681B6803F00403D9
:10351800002B0CD04FF47A7300224FF480017868A6
:1035280000F016F80346002B01D003230CE07B685B
:10353800202283F869207B68202283F86A207B6830
:10354800002283F86820002318460837BD4680BD4E
:1035580080B586B000AFF860B9603B601346FB7178
:10356800FDF7FEFB7861FB79002B40F084803CE09E
:103578003B68B3F1FF3F38D03B68002B07D0FDF71D
:10358800EFFB02467B69D21A3B689A422DD9FB6849
:103598001B68FA681268126822F080021A60FB68D9
:1035A8001B68FA681268126822F020021A60FB6829
:1035B8001B68FA681268126822F480721A60FB6845
:1035C8001B68FA681268926822F001029A60FB6828
:1035D800202283F86920FB68202283F86A20FB6890
:1035E800002283F8682003234EE0FB681B68DA6931
:1035F800BB681A40BB689A42BAD144E03B68B3F151
:10360800FF3F38D03B68002B07D0FDF7A9FB0246E7
:103618007B69D21A3B689A422DD9FB681B68FA6805
:103628001268126822F080021A60FB681B68FA6848
:103638001268126822F020021A60FB681B68FA6898
:103648001268126822F480721A60FB681B68FA68B4
:103658001268926822F001029A60FB68202283F8BF
:103668006920FB68202283F86A20FB68002283F81F
:103678006820032308E0FB681B68DA69BB681A4006
:10368800BB689A42BAD0002318461837BD4680BD99
:1036980080B485B000AF78607B6893F86930DBB29E
:1036A800212B44D17B68B3F85230002B11D17B68B1
:1036B8001B687A681268126822F080021A607B68B8
:1036C8001B687A681268126842F040021A60002388
:1036D8002EE07B689B68B3F5805F14D17B681B691B
:1036E800002B10D17B68DB6CFB607B681B68FA6879
:1036F8001288C2F3080292B21A857B68DB6C9A1CA6
:103708007B68DA6409E07B681A687B68DB6C581CA4
:103718007968C8641B789BB213857B68B3F852300C
:10372800013B9AB27B68A3F85220002300E00223F1
:1037380018461437BD465DF8047B704780B582B0E3
:1037480000AF78607B681B687A681268126822F09C
:1037580040021A607B68202283F869207868FDF7A8
:10376800CFF8002318460837BD4680BD80B584B021
:1037780000AF78607B68B3F85C30FB817B6893F8B6
:103788006A30DBB2222B59D17B689B68B3F5805F26
:1037980015D17B681B69002B11D17B685B6DBB6001
:1037A8007B681B689B8C9AB2FB8913409AB2BB68F2
:1037B8001A807B685B6D9A1C7B685A650EE07B6893
:1037C8005B6D591C7A6851657A681268928C92B25E
:1037D800D1B2FA89D2B20A40D2B21A707B68B3F871
:1037E8005A30013B9AB27B68A3F85A207B68B3F839
:1037F8005A30002B20D17B681B687A6812681268DF
:1038080022F020021A607B681B687A6812681268C6
:1038180022F480721A607B681B687A681268926862
:1038280022F001029A607B68202283F86A20786877
:10383800FDF770F800230AE0002308E07B681B68A6
:103848007A681268926942F008029A61022318465F
:103858001037BD4680BD00BF80B483B000AF78602C
:1038680000BF0C37BD465DF8047B704780B586B055
:1038780000AF7860396000237B6100233B6100233F
:10388800FB607B68002B01D1012383E07B6893F800
:103898003930DBB2002B06D17B68002283F8382050
:1038A8007868FDF76FF97B68022283F839207B6816
:1038B8001A687B681B689B6823F4803323F007032E
:1038C80093607B681A687B6804331946104600F0D9
:1038D8009DF87B681B689B687B617B681B689B699C
:1038E8003B617B681B681B6AFB603B681B687A69E5
:1038F80013437B613B6923F4407323F003033B616B
:103908003B689A683B689B691B0213433A691343F7
:103918003B613B6923F4406323F00C033B613B6943
:1039280023F4704323F0F0033B613B68DA683B689B
:10393800DB691B0213433A6913433B613B681B690C
:103948001A013B681B6A1B0313433A6913433B6123
:10395800FB6823F02203FB60FB6823F08803FB600D
:103968003B685A683B685B691B011343FA68134359
:10397800FB607B681B687A699A607B681B683A6998
:103988009A617B681B68FA681A627B68012283F86F
:103998003920002318461837BD4680BD80B582B04F
:1039A80000AF786039603B68002B02D0042B08D048
:1039B8000FE07B681B6801220021184600F098F888
:1039C80016E07B681B6801220421184600F090F875
:1039D8000EE07B681B6801220021184600F088F879
:1039E8007B681B6801220421184600F081F800BF9B
:1039F8007B681B687A681268126842F001021A60D4
:103A0800002318460837BD4680BD00BF80B485B086
:103A180000AF786039600023FB607B681B68FB603F
:103A28007B682E4A934207D07B68B3F1804F03D05E
:103A38007B682B4A934208D1FB6823F07003FB6034
:103A48003B685B68FA681343FB607B68234A9342D0
:103A580013D07B68B3F1804F0FD07B68204A934224
:103A68000BD07B681F4A934207D07B681E4A93425B
:103A780003D07B681D4A934208D1FB6823F4407346
:103A8800FB603B68DB68FA681343FB607B68FA6895
:103A98001A603B689A687B68DA623B681A687B68D8
:103AA8009A627B680D4A93420BD07B680D4A934219
:103AB80007D07B680C4A934203D07B680B4A934239
:103AC80003D13B681A697B681A637B6801225A61D3
:103AD80000BF1437BD465DF8047B7047002C0140D9
:103AE80000040040004001400044014000480140FB
:103AF80080B487B000AFF860B9607A6000237B615A
:103B08000122BB6802FA03F37B61FB681A6A7B69CE
:103B1800DB431A40FB681A62FB681A6A7968BB685B
:103B280001FA03F31A43FB681A6200BF1C37BD464B
:103B38005DF8047B704700BF80B485B000AF786043
:103B480039607B6893F83830012B01D1022338E0C3
:103B58007B68012283F838207B681B685B68FB6000
:103B68007B681B689B68BB607B681B68184A93422C
:103B780008D1FB6823F47003FB603B685B68FA6854
:103B88001343FB60FB6823F07003FB603B681B6812
:103B9800FA681343FB60BB6823F08003BB603B6893
:103BA8009B68BA681343BB607B681B68FA685A60F5
:103BB8007B681B68BA689A607B68002283F83820A3
:103BC800002318461437BD465DF8047B704700BFD4
:103BD800002C0140F8B500BFF8BC08BC9E467047F1
:0C3BE800F8B500BFF8BC08BC9E46704752
:103BF400430000000000002000000000000000005E
:103C0400010203040607080900000000010203047E
:103C140002030405060708090A0B0C0D0E0F101009
:103C24000102030405060708090A0B0C0D0E0F1008
:083C34007D020008F501000803
:043C3C00CD010008AE
:103C400000000000EC02002054030020BC03002010
:103C50000000000000000000000000000000000064
:103C60000000000000000000000000000000000054
:103C700000000000F43B000800000000000000000D
:103C80000000000000000000000000000000000034
:103C90000000000000000000000000000000000024
:103CA0000000000000000000000000000000000014
:103CB0000000000000000000000000000000000004
:103CC00000000000000000000000000000000000F4
:103CD00000000000000000000000000000000000E4
:103CE00000000000000000000100000000000000D3
:103CF0000E33CDAB34126DE6ECDE05000B00000098
:103D000000000000000000000000000000000000B3
:103D100000000000000000000000000000000000A3
:103D20000000000000000000000000000000000093
:103D30000000000000000000000000000000000083
:0C406000000000000000000000127A00C8
:040000050800036983
:00000001FF
